{
  "_format": "hh-sol-artifact-1",
  "contractName": "MockChainlinkPriceFeed",
  "sourceName": "contracts/test/MockChainlinkPriceFeed.sol",
  "abi": [
    {
      "inputs": [
        {
          "internalType": "int256",
          "name": "_initialPrice",
          "type": "int256"
        }
      ],
      "stateMutability": "nonpayable",
      "type": "constructor"
    },
    {
      "inputs": [],
      "name": "latestRoundData",
      "outputs": [
        {
          "internalType": "int256",
          "name": "",
          "type": "int256"
        },
        {
          "internalType": "int256",
          "name": "",
          "type": "int256"
        },
        {
          "internalType": "uint256",
          "name": "",
          "type": "uint256"
        },
        {
          "internalType": "uint256",
          "name": "",
          "type": "uint256"
        },
        {
          "internalType": "uint256",
          "name": "",
          "type": "uint256"
        }
      ],
      "stateMutability": "view",
      "type": "function"
    },
    {
      "inputs": [
        {
          "internalType": "int256",
          "name": "_price",
          "type": "int256"
        }
      ],
      "name": "setLatestPrice",
      "outputs": [],
      "stateMutability": "nonpayable",
      "type": "function"
    }
  ],
  "bytecode": "0x608060405234801561001057600080fd5b506040516102743803806102748339818101604052810190610032919061007a565b80600081905550506100a7565b600080fd5b6000819050919050565b61005781610044565b811461006257600080fd5b50565b6000815190506100748161004e565b92915050565b6000602082840312156100905761008f61003f565b5b600061009e84828501610065565b91505092915050565b6101be806100b66000396000f3fe608060405234801561001057600080fd5b50600436106100365760003560e01c8063805fe7fb1461003b578063feaf968c14610057575b600080fd5b610055600480360381019061005091906100e0565b610079565b005b61005f610083565b604051610070959493929190610135565b60405180910390f35b8060008190555050565b6000806000806000806000546000806000945094509450945094509091929394565b600080fd5b6000819050919050565b6100bd816100aa565b81146100c857600080fd5b50565b6000813590506100da816100b4565b92915050565b6000602082840312156100f6576100f56100a5565b5b6000610104848285016100cb565b91505092915050565b610116816100aa565b82525050565b6000819050919050565b61012f8161011c565b82525050565b600060a08201905061014a600083018861010d565b610157602083018761010d565b6101646040830186610126565b6101716060830185610126565b61017e6080830184610126565b969550505050505056fea2646970667358221220d18a8790ccb65b012d72c831a0b70816cf6bb5630786f9f8410960daf8f3558b64736f6c63430008140033",
  "linkReferences": {},
  "deployedLinkReferences": {}
}