{
  "_format": "hh-sol-artifact-1",
  "contractName": "CoinDollar",
  "sourceName": "contracts/CoinDollar.sol",
  "abi": [
    {
      "inputs": [
        {
          "internalType": "string",
          "name": "name",
          "type": "string"
        },
        {
          "internalType": "string",
          "name": "symbol",
          "type": "string"
        },
        {
          "internalType": "address",
          "name": "_coinGoldAddress",
          "type": "address"
        },
        {
          "internalType": "address",
          "name": "_goldPriceFeed",
          "type": "address"
        }
      ],
      "stateMutability": "nonpayable",
      "type": "constructor"
    },
    {
      "inputs": [],
      "name": "AccessControlBadConfirmation",
      "type": "error"
    },
    {
      "inputs": [
        {
          "internalType": "address",
          "name": "account",
          "type": "address"
        },
        {
          "internalType": "bytes32",
          "name": "neededRole",
          "type": "bytes32"
        }
      ],
      "name": "AccessControlUnauthorizedAccount",
      "type": "error"
    },
    {
      "inputs": [
        {
          "internalType": "address",
          "name": "spender",
          "type": "address"
        },
        {
          "internalType": "uint256",
          "name": "allowance",
          "type": "uint256"
        },
        {
          "internalType": "uint256",
          "name": "needed",
          "type": "uint256"
        }
      ],
      "name": "ERC20InsufficientAllowance",
      "type": "error"
    },
    {
      "inputs": [
        {
          "internalType": "address",
          "name": "sender",
          "type": "address"
        },
        {
          "internalType": "uint256",
          "name": "balance",
          "type": "uint256"
        },
        {
          "internalType": "uint256",
          "name": "needed",
          "type": "uint256"
        }
      ],
      "name": "ERC20InsufficientBalance",
      "type": "error"
    },
    {
      "inputs": [
        {
          "internalType": "address",
          "name": "approver",
          "type": "address"
        }
      ],
      "name": "ERC20InvalidApprover",
      "type": "error"
    },
    {
      "inputs": [
        {
          "internalType": "address",
          "name": "receiver",
          "type": "address"
        }
      ],
      "name": "ERC20InvalidReceiver",
      "type": "error"
    },
    {
      "inputs": [
        {
          "internalType": "address",
          "name": "sender",
          "type": "address"
        }
      ],
      "name": "ERC20InvalidSender",
      "type": "error"
    },
    {
      "inputs": [
        {
          "internalType": "address",
          "name": "spender",
          "type": "address"
        }
      ],
      "name": "ERC20InvalidSpender",
      "type": "error"
    },
    {
      "anonymous": false,
      "inputs": [
        {
          "indexed": false,
          "internalType": "uint256",
          "name": "newSupply",
          "type": "uint256"
        }
      ],
      "name": "AdjustSupply",
      "type": "event"
    },
    {
      "anonymous": false,
      "inputs": [
        {
          "indexed": true,
          "internalType": "address",
          "name": "owner",
          "type": "address"
        },
        {
          "indexed": true,
          "internalType": "address",
          "name": "spender",
          "type": "address"
        },
        {
          "indexed": false,
          "internalType": "uint256",
          "name": "value",
          "type": "uint256"
        }
      ],
      "name": "Approval",
      "type": "event"
    },
    {
      "anonymous": false,
      "inputs": [
        {
          "indexed": true,
          "internalType": "address",
          "name": "from",
          "type": "address"
        },
        {
          "indexed": false,
          "internalType": "uint256",
          "name": "amount",
          "type": "uint256"
        }
      ],
      "name": "Burn",
      "type": "event"
    },
    {
      "anonymous": false,
      "inputs": [
        {
          "indexed": true,
          "internalType": "address",
          "name": "to",
          "type": "address"
        },
        {
          "indexed": false,
          "internalType": "uint256",
          "name": "amount",
          "type": "uint256"
        }
      ],
      "name": "Mint",
      "type": "event"
    },
    {
      "anonymous": false,
      "inputs": [
        {
          "indexed": true,
          "internalType": "bytes32",
          "name": "role",
          "type": "bytes32"
        },
        {
          "indexed": true,
          "internalType": "bytes32",
          "name": "previousAdminRole",
          "type": "bytes32"
        },
        {
          "indexed": true,
          "internalType": "bytes32",
          "name": "newAdminRole",
          "type": "bytes32"
        }
      ],
      "name": "RoleAdminChanged",
      "type": "event"
    },
    {
      "anonymous": false,
      "inputs": [
        {
          "indexed": true,
          "internalType": "bytes32",
          "name": "role",
          "type": "bytes32"
        },
        {
          "indexed": true,
          "internalType": "address",
          "name": "account",
          "type": "address"
        },
        {
          "indexed": true,
          "internalType": "address",
          "name": "sender",
          "type": "address"
        }
      ],
      "name": "RoleGranted",
      "type": "event"
    },
    {
      "anonymous": false,
      "inputs": [
        {
          "indexed": true,
          "internalType": "bytes32",
          "name": "role",
          "type": "bytes32"
        },
        {
          "indexed": true,
          "internalType": "address",
          "name": "account",
          "type": "address"
        },
        {
          "indexed": true,
          "internalType": "address",
          "name": "sender",
          "type": "address"
        }
      ],
      "name": "RoleRevoked",
      "type": "event"
    },
    {
      "anonymous": false,
      "inputs": [
        {
          "indexed": true,
          "internalType": "address",
          "name": "from",
          "type": "address"
        },
        {
          "indexed": true,
          "internalType": "address",
          "name": "to",
          "type": "address"
        },
        {
          "indexed": false,
          "internalType": "uint256",
          "name": "value",
          "type": "uint256"
        }
      ],
      "name": "Transfer",
      "type": "event"
    },
    {
      "inputs": [],
      "name": "ADMIN_ROLE",
      "outputs": [
        {
          "internalType": "bytes32",
          "name": "",
          "type": "bytes32"
        }
      ],
      "stateMutability": "view",
      "type": "function"
    },
    {
      "inputs": [],
      "name": "DEFAULT_ADMIN_ROLE",
      "outputs": [
        {
          "internalType": "bytes32",
          "name": "",
          "type": "bytes32"
        }
      ],
      "stateMutability": "view",
      "type": "function"
    },
    {
      "inputs": [],
      "name": "MINTER_ROLE",
      "outputs": [
        {
          "internalType": "bytes32",
          "name": "",
          "type": "bytes32"
        }
      ],
      "stateMutability": "view",
      "type": "function"
    },
    {
      "inputs": [],
      "name": "adjustSupply",
      "outputs": [],
      "stateMutability": "nonpayable",
      "type": "function"
    },
    {
      "inputs": [
        {
          "internalType": "address",
          "name": "owner",
          "type": "address"
        },
        {
          "internalType": "address",
          "name": "spender",
          "type": "address"
        }
      ],
      "name": "allowance",
      "outputs": [
        {
          "internalType": "uint256",
          "name": "",
          "type": "uint256"
        }
      ],
      "stateMutability": "view",
      "type": "function"
    },
    {
      "inputs": [
        {
          "internalType": "address",
          "name": "spender",
          "type": "address"
        },
        {
          "internalType": "uint256",
          "name": "value",
          "type": "uint256"
        }
      ],
      "name": "approve",
      "outputs": [
        {
          "internalType": "bool",
          "name": "",
          "type": "bool"
        }
      ],
      "stateMutability": "nonpayable",
      "type": "function"
    },
    {
      "inputs": [
        {
          "internalType": "address",
          "name": "account",
          "type": "address"
        }
      ],
      "name": "balanceOf",
      "outputs": [
        {
          "internalType": "uint256",
          "name": "",
          "type": "uint256"
        }
      ],
      "stateMutability": "view",
      "type": "function"
    },
    {
      "inputs": [
        {
          "internalType": "uint256",
          "name": "amount",
          "type": "uint256"
        }
      ],
      "name": "burn",
      "outputs": [],
      "stateMutability": "nonpayable",
      "type": "function"
    },
    {
      "inputs": [
        {
          "internalType": "uint256",
          "name": "amount",
          "type": "uint256"
        }
      ],
      "name": "burnCoinGold",
      "outputs": [],
      "stateMutability": "nonpayable",
      "type": "function"
    },
    {
      "inputs": [
        {
          "internalType": "bytes",
          "name": "",
          "type": "bytes"
        }
      ],
      "name": "checkUpkeep",
      "outputs": [
        {
          "internalType": "bool",
          "name": "upkeepNeeded",
          "type": "bool"
        },
        {
          "internalType": "bytes",
          "name": "performData",
          "type": "bytes"
        }
      ],
      "stateMutability": "view",
      "type": "function"
    },
    {
      "inputs": [],
      "name": "coinGold",
      "outputs": [
        {
          "internalType": "contract CoinGold",
          "name": "",
          "type": "address"
        }
      ],
      "stateMutability": "view",
      "type": "function"
    },
    {
      "inputs": [],
      "name": "decimals",
      "outputs": [
        {
          "internalType": "uint8",
          "name": "",
          "type": "uint8"
        }
      ],
      "stateMutability": "view",
      "type": "function"
    },
    {
      "inputs": [],
      "name": "getGoldCoinTotalCapitalization",
      "outputs": [
        {
          "internalType": "uint256",
          "name": "",
          "type": "uint256"
        }
      ],
      "stateMutability": "view",
      "type": "function"
    },
    {
      "inputs": [],
      "name": "getGoldPrice",
      "outputs": [
        {
          "internalType": "uint256",
          "name": "",
          "type": "uint256"
        }
      ],
      "stateMutability": "view",
      "type": "function"
    },
    {
      "inputs": [
        {
          "internalType": "bytes32",
          "name": "role",
          "type": "bytes32"
        }
      ],
      "name": "getRoleAdmin",
      "outputs": [
        {
          "internalType": "bytes32",
          "name": "",
          "type": "bytes32"
        }
      ],
      "stateMutability": "view",
      "type": "function"
    },
    {
      "inputs": [
        {
          "internalType": "address",
          "name": "account",
          "type": "address"
        }
      ],
      "name": "grantMinterRole",
      "outputs": [],
      "stateMutability": "nonpayable",
      "type": "function"
    },
    {
      "inputs": [],
      "name": "grantMinterRoleInCoinGold",
      "outputs": [],
      "stateMutability": "nonpayable",
      "type": "function"
    },
    {
      "inputs": [
        {
          "internalType": "bytes32",
          "name": "role",
          "type": "bytes32"
        },
        {
          "internalType": "address",
          "name": "account",
          "type": "address"
        }
      ],
      "name": "grantRole",
      "outputs": [],
      "stateMutability": "nonpayable",
      "type": "function"
    },
    {
      "inputs": [
        {
          "internalType": "bytes32",
          "name": "role",
          "type": "bytes32"
        },
        {
          "internalType": "address",
          "name": "account",
          "type": "address"
        }
      ],
      "name": "hasRole",
      "outputs": [
        {
          "internalType": "bool",
          "name": "",
          "type": "bool"
        }
      ],
      "stateMutability": "view",
      "type": "function"
    },
    {
      "inputs": [],
      "name": "lastAdjustmentTimestamp",
      "outputs": [
        {
          "internalType": "uint256",
          "name": "",
          "type": "uint256"
        }
      ],
      "stateMutability": "view",
      "type": "function"
    },
    {
      "inputs": [],
      "name": "maximumBackingValue",
      "outputs": [
        {
          "internalType": "uint256",
          "name": "",
          "type": "uint256"
        }
      ],
      "stateMutability": "view",
      "type": "function"
    },
    {
      "inputs": [],
      "name": "minimumBackingValue",
      "outputs": [
        {
          "internalType": "uint256",
          "name": "",
          "type": "uint256"
        }
      ],
      "stateMutability": "view",
      "type": "function"
    },
    {
      "inputs": [
        {
          "internalType": "uint256",
          "name": "amount",
          "type": "uint256"
        }
      ],
      "name": "mint",
      "outputs": [],
      "stateMutability": "nonpayable",
      "type": "function"
    },
    {
      "inputs": [
        {
          "internalType": "uint256",
          "name": "ouncesOfGold",
          "type": "uint256"
        }
      ],
      "name": "mintCoinGold",
      "outputs": [],
      "stateMutability": "nonpayable",
      "type": "function"
    },
    {
      "inputs": [],
      "name": "name",
      "outputs": [
        {
          "internalType": "string",
          "name": "",
          "type": "string"
        }
      ],
      "stateMutability": "view",
      "type": "function"
    },
    {
      "inputs": [],
      "name": "owner",
      "outputs": [
        {
          "internalType": "address",
          "name": "",
          "type": "address"
        }
      ],
      "stateMutability": "view",
      "type": "function"
    },
    {
      "inputs": [
        {
          "internalType": "bytes",
          "name": "",
          "type": "bytes"
        }
      ],
      "name": "performUpkeep",
      "outputs": [],
      "stateMutability": "nonpayable",
      "type": "function"
    },
    {
      "inputs": [
        {
          "internalType": "bytes32",
          "name": "role",
          "type": "bytes32"
        },
        {
          "internalType": "address",
          "name": "callerConfirmation",
          "type": "address"
        }
      ],
      "name": "renounceRole",
      "outputs": [],
      "stateMutability": "nonpayable",
      "type": "function"
    },
    {
      "inputs": [],
      "name": "reserveRatio",
      "outputs": [
        {
          "internalType": "uint256",
          "name": "",
          "type": "uint256"
        }
      ],
      "stateMutability": "view",
      "type": "function"
    },
    {
      "inputs": [
        {
          "internalType": "address",
          "name": "account",
          "type": "address"
        }
      ],
      "name": "revokeMinterRole",
      "outputs": [],
      "stateMutability": "nonpayable",
      "type": "function"
    },
    {
      "inputs": [],
      "name": "revokeMinterRoleInCoinGold",
      "outputs": [],
      "stateMutability": "nonpayable",
      "type": "function"
    },
    {
      "inputs": [
        {
          "internalType": "bytes32",
          "name": "role",
          "type": "bytes32"
        },
        {
          "internalType": "address",
          "name": "account",
          "type": "address"
        }
      ],
      "name": "revokeRole",
      "outputs": [],
      "stateMutability": "nonpayable",
      "type": "function"
    },
    {
      "inputs": [
        {
          "internalType": "bytes4",
          "name": "interfaceId",
          "type": "bytes4"
        }
      ],
      "name": "supportsInterface",
      "outputs": [
        {
          "internalType": "bool",
          "name": "",
          "type": "bool"
        }
      ],
      "stateMutability": "view",
      "type": "function"
    },
    {
      "inputs": [],
      "name": "symbol",
      "outputs": [
        {
          "internalType": "string",
          "name": "",
          "type": "string"
        }
      ],
      "stateMutability": "view",
      "type": "function"
    },
    {
      "inputs": [],
      "name": "totalSupply",
      "outputs": [
        {
          "internalType": "uint256",
          "name": "",
          "type": "uint256"
        }
      ],
      "stateMutability": "view",
      "type": "function"
    },
    {
      "inputs": [
        {
          "internalType": "address",
          "name": "to",
          "type": "address"
        },
        {
          "internalType": "uint256",
          "name": "value",
          "type": "uint256"
        }
      ],
      "name": "transfer",
      "outputs": [
        {
          "internalType": "bool",
          "name": "",
          "type": "bool"
        }
      ],
      "stateMutability": "nonpayable",
      "type": "function"
    },
    {
      "inputs": [
        {
          "internalType": "address",
          "name": "to",
          "type": "address"
        },
        {
          "internalType": "uint256",
          "name": "amount",
          "type": "uint256"
        }
      ],
      "name": "transferCoinDollar",
      "outputs": [
        {
          "internalType": "bool",
          "name": "",
          "type": "bool"
        }
      ],
      "stateMutability": "nonpayable",
      "type": "function"
    },
    {
      "inputs": [
        {
          "internalType": "address",
          "name": "to",
          "type": "address"
        },
        {
          "internalType": "uint256",
          "name": "amount",
          "type": "uint256"
        }
      ],
      "name": "transferCoinGold",
      "outputs": [],
      "stateMutability": "nonpayable",
      "type": "function"
    },
    {
      "inputs": [
        {
          "internalType": "address",
          "name": "user",
          "type": "address"
        },
        {
          "internalType": "address",
          "name": "recipient",
          "type": "address"
        },
        {
          "internalType": "uint256",
          "name": "amount",
          "type": "uint256"
        }
      ],
      "name": "transferCoinGoldFromUser",
      "outputs": [],
      "stateMutability": "nonpayable",
      "type": "function"
    },
    {
      "inputs": [
        {
          "internalType": "address",
          "name": "from",
          "type": "address"
        },
        {
          "internalType": "address",
          "name": "to",
          "type": "address"
        },
        {
          "internalType": "uint256",
          "name": "value",
          "type": "uint256"
        }
      ],
      "name": "transferFrom",
      "outputs": [
        {
          "internalType": "bool",
          "name": "",
          "type": "bool"
        }
      ],
      "stateMutability": "nonpayable",
      "type": "function"
    }
  ],
  "bytecode": "0x60806040523480156200001157600080fd5b50604051620037da380380620037da8339818101604052810190620000379190620005d7565b838381600390816200004a9190620008d2565b5080600490816200005c9190620008d2565b50505033600860006101000a81548173ffffffffffffffffffffffffffffffffffffffff021916908373ffffffffffffffffffffffffffffffffffffffff16021790555081600660006101000a81548173ffffffffffffffffffffffffffffffffffffffff021916908373ffffffffffffffffffffffffffffffffffffffff16021790555080600760006101000a81548173ffffffffffffffffffffffffffffffffffffffff021916908373ffffffffffffffffffffffffffffffffffffffff160217905550426009819055506014600a81905550600660009054906101000a900473ffffffffffffffffffffffffffffffffffffffff1673ffffffffffffffffffffffffffffffffffffffff1663d7f7582c6040518163ffffffff1660e01b8152600401602060405180830381865afa1580156200019f573d6000803e3d6000fd5b505050506040513d601f19601f82011682018060405250810190620001c59190620009ea565b600b819055506002600b54620001dc919062000a4b565b600c81905550620001f76000801b336200026860201b60201c565b506200022a7fa49807205ce4d355092ef5a8a18f56e8913cf4a201fbe287825b095693c21775336200026860201b60201c565b506200025d7f9f2df0fed2c77648de5860a4cc508cd0818c85b8b8a1ab4ceeef8d981c8956a6336200026860201b60201c565b505050505062000a83565b60006200027c83836200036c60201b60201c565b620003615760016005600085815260200190815260200160002060000160008473ffffffffffffffffffffffffffffffffffffffff1673ffffffffffffffffffffffffffffffffffffffff16815260200190815260200160002060006101000a81548160ff021916908315150217905550620002fd620003d760201b60201c565b73ffffffffffffffffffffffffffffffffffffffff168273ffffffffffffffffffffffffffffffffffffffff16847f2f8788117e7eff1d82e926ec794901d17c78024a50270940304540a733656f0d60405160405180910390a46001905062000366565b600090505b92915050565b60006005600084815260200190815260200160002060000160008373ffffffffffffffffffffffffffffffffffffffff1673ffffffffffffffffffffffffffffffffffffffff16815260200190815260200160002060009054906101000a900460ff16905092915050565b600033905090565b6000604051905090565b600080fd5b600080fd5b600080fd5b600080fd5b6000601f19601f8301169050919050565b7f4e487b7100000000000000000000000000000000000000000000000000000000600052604160045260246000fd5b6200044882620003fd565b810181811067ffffffffffffffff821117156200046a57620004696200040e565b5b80604052505050565b60006200047f620003df565b90506200048d82826200043d565b919050565b600067ffffffffffffffff821115620004b057620004af6200040e565b5b620004bb82620003fd565b9050602081019050919050565b60005b83811015620004e8578082015181840152602081019050620004cb565b60008484015250505050565b60006200050b620005058462000492565b62000473565b9050828152602081018484840111156200052a5762000529620003f8565b5b62000537848285620004c8565b509392505050565b600082601f830112620005575762000556620003f3565b5b815162000569848260208601620004f4565b91505092915050565b600073ffffffffffffffffffffffffffffffffffffffff82169050919050565b60006200059f8262000572565b9050919050565b620005b18162000592565b8114620005bd57600080fd5b50565b600081519050620005d181620005a6565b92915050565b60008060008060808587031215620005f457620005f3620003e9565b5b600085015167ffffffffffffffff811115620006155762000614620003ee565b5b62000623878288016200053f565b945050602085015167ffffffffffffffff811115620006475762000646620003ee565b5b62000655878288016200053f565b93505060406200066887828801620005c0565b92505060606200067b87828801620005c0565b91505092959194509250565b600081519050919050565b7f4e487b7100000000000000000000000000000000000000000000000000000000600052602260045260246000fd5b60006002820490506001821680620006da57607f821691505b602082108103620006f057620006ef62000692565b5b50919050565b60008190508160005260206000209050919050565b60006020601f8301049050919050565b600082821b905092915050565b6000600883026200075a7fffffffffffffffffffffffffffffffffffffffffffffffffffffffffffffffff826200071b565b6200076686836200071b565b95508019841693508086168417925050509392505050565b6000819050919050565b6000819050919050565b6000620007b3620007ad620007a7846200077e565b62000788565b6200077e565b9050919050565b6000819050919050565b620007cf8362000792565b620007e7620007de82620007ba565b84845462000728565b825550505050565b600090565b620007fe620007ef565b6200080b818484620007c4565b505050565b5b81811015620008335762000827600082620007f4565b60018101905062000811565b5050565b601f82111562000882576200084c81620006f6565b62000857846200070b565b8101602085101562000867578190505b6200087f62000876856200070b565b83018262000810565b50505b505050565b600082821c905092915050565b6000620008a76000198460080262000887565b1980831691505092915050565b6000620008c2838362000894565b9150826002028217905092915050565b620008dd8262000687565b67ffffffffffffffff811115620008f957620008f86200040e565b5b620009058254620006c1565b6200091282828562000837565b600060209050601f8311600181146200094a576000841562000935578287015190505b620009418582620008b4565b865550620009b1565b601f1984166200095a86620006f6565b60005b8281101562000984578489015182556001820191506020850194506020810190506200095d565b86831015620009a45784890151620009a0601f89168262000894565b8355505b6001600288020188555050505b505050505050565b620009c4816200077e565b8114620009d057600080fd5b50565b600081519050620009e481620009b9565b92915050565b60006020828403121562000a035762000a02620003e9565b5b600062000a1384828501620009d3565b91505092915050565b7f4e487b7100000000000000000000000000000000000000000000000000000000600052601260045260246000fd5b600062000a58826200077e565b915062000a65836200077e565b92508262000a785762000a7762000a1c565b5b828204905092915050565b612d478062000a936000396000f3fe608060405234801561001057600080fd5b50600436106102475760003560e01c806366dabc9a1161013b578063a217fddf116100b8578063d547741f1161007c578063d547741f146106cd578063da6bae10146106e9578063dcd27c9e14610707578063dd62ed3e14610723578063ea68d3761461075357610247565b8063a217fddf14610639578063a9059cbb14610657578063b355175d14610687578063c79e3bd1146106a5578063d5391393146106af57610247565b80638da5cb5b116100ff5780638da5cb5b1461059357806391d14854146105b157806395d89b41146105e15780639c841efe146105ff578063a0712d681461061d57610247565b806366dabc9a146104da57806369e2f0fb146104f85780636e04ff0d1461051457806370a082311461054557806375b238fc1461057557610247565b806323b872dd116101c95780633dd1eb611161018d5780633dd1eb611461044e5780633f64524d1461046a57806342966c68146104865780634585e33b146104a25780634eec552e146104be57610247565b806323b872dd14610398578063248a9ca3146103c85780632f2ff15d146103f8578063313ce5671461041457806336568abe1461043257610247565b806308d362931161021057806308d36293146102e0578063095ea7b3146103105780630c7d5cd81461034057806312cbdd211461035e57806318160ddd1461037a57610247565b80626fd09a1461024c57806301ffc9a7146102565780630338c4771461028657806306fdde03146102a45780630844969a146102c2575b600080fd5b61025461075d565b005b610270600480360381019061026b91906121e2565b6107fa565b60405161027d919061222a565b60405180910390f35b61028e610874565b60405161029b919061225e565b60405180910390f35b6102ac61087a565b6040516102b99190612309565b60405180910390f35b6102ca61090c565b6040516102d791906123aa565b60405180910390f35b6102fa60048036038101906102f5919061242f565b610932565b604051610307919061222a565b60405180910390f35b61032a6004803603810190610325919061242f565b610949565b604051610337919061222a565b60405180910390f35b61034861096c565b604051610355919061225e565b60405180910390f35b6103786004803603810190610373919061246f565b610972565b005b610382610a08565b60405161038f919061225e565b60405180910390f35b6103b260048036038101906103ad919061246f565b610a12565b6040516103bf919061222a565b60405180910390f35b6103e260048036038101906103dd91906124f8565b610a41565b6040516103ef9190612534565b60405180910390f35b610412600480360381019061040d919061254f565b610a61565b005b61041c610a83565b60405161042991906125ab565b60405180910390f35b61044c6004803603810190610447919061254f565b610a8c565b005b610468600480360381019061046391906125c6565b610b07565b005b610484600480360381019061047f919061242f565b610b42565b005b6104a0600480360381019061049b91906125f3565b610be7565b005b6104bc60048036038101906104b79190612685565b610c6d565b005b6104d860048036038101906104d391906125f3565b610c79565b005b6104e2610d09565b6040516104ef919061225e565b60405180910390f35b610512600480360381019061050d91906125c6565b610d0f565b005b61052e60048036038101906105299190612685565b610d4a565b60405161053c929190612727565b60405180910390f35b61055f600480360381019061055a91906125c6565b610e41565b60405161056c919061225e565b60405180910390f35b61057d610e89565b60405161058a9190612534565b60405180910390f35b61059b610ead565b6040516105a89190612766565b60405180910390f35b6105cb60048036038101906105c6919061254f565b610ed3565b6040516105d8919061222a565b60405180910390f35b6105e9610f3e565b6040516105f69190612309565b60405180910390f35b610607610fd0565b604051610614919061225e565b60405180910390f35b610637600480360381019061063291906125f3565b610fd6565b005b61064161105c565b60405161064e9190612534565b60405180910390f35b610671600480360381019061066c919061242f565b611063565b60405161067e919061222a565b60405180910390f35b61068f611086565b60405161069c919061225e565b60405180910390f35b6106ad61111e565b005b6106b7611329565b6040516106c49190612534565b60405180910390f35b6106e760048036038101906106e2919061254f565b61134d565b005b6106f161136f565b6040516106fe919061225e565b60405180910390f35b610721600480360381019061071c91906125f3565b611453565b005b61073d60048036038101906107389190612781565b6114e3565b60405161074a919061225e565b60405180910390f35b61075b61156a565b005b6000801b61076a8161159f565b600660009054906101000a900473ffffffffffffffffffffffffffffffffffffffff1673ffffffffffffffffffffffffffffffffffffffff166369e2f0fb306040518263ffffffff1660e01b81526004016107c59190612766565b600060405180830381600087803b1580156107df57600080fd5b505af11580156107f3573d6000803e3d6000fd5b5050505050565b60007f7965db0b000000000000000000000000000000000000000000000000000000007bffffffffffffffffffffffffffffffffffffffffffffffffffffffff1916827bffffffffffffffffffffffffffffffffffffffffffffffffffffffff1916148061086d575061086c826115b3565b5b9050919050565b60095481565b606060038054610889906127f0565b80601f01602080910402602001604051908101604052809291908181526020018280546108b5906127f0565b80156109025780601f106108d757610100808354040283529160200191610902565b820191906000526020600020905b8154815290600101906020018083116108e557829003601f168201915b5050505050905090565b600660009054906101000a900473ffffffffffffffffffffffffffffffffffffffff1681565b600061093f33848461161d565b6001905092915050565b600080610954611711565b9050610961818585611719565b600191505092915050565b600a5481565b600660009054906101000a900473ffffffffffffffffffffffffffffffffffffffff1673ffffffffffffffffffffffffffffffffffffffff16633184b9fd8484846040518463ffffffff1660e01b81526004016109d193929190612821565b600060405180830381600087803b1580156109eb57600080fd5b505af11580156109ff573d6000803e3d6000fd5b50505050505050565b6000600254905090565b600080610a1d611711565b9050610a2a85828561172b565b610a3585858561161d565b60019150509392505050565b600060056000838152602001908152602001600020600101549050919050565b610a6a82610a41565b610a738161159f565b610a7d83836117bf565b50505050565b60006012905090565b610a94611711565b73ffffffffffffffffffffffffffffffffffffffff168173ffffffffffffffffffffffffffffffffffffffff1614610af8576040517f6697b23200000000000000000000000000000000000000000000000000000000815260040160405180910390fd5b610b0282826118b1565b505050565b6000801b610b148161159f565b610b3e7f9f2df0fed2c77648de5860a4cc508cd0818c85b8b8a1ab4ceeef8d981c8956a683610a61565b5050565b600660009054906101000a900473ffffffffffffffffffffffffffffffffffffffff1673ffffffffffffffffffffffffffffffffffffffff16633f64524d83836040518363ffffffff1660e01b8152600401610b9f929190612858565b6020604051808303816000875af1158015610bbe573d6000803e3d6000fd5b505050506040513d601f19601f82011682018060405250810190610be291906128ad565b505050565b7f9f2df0fed2c77648de5860a4cc508cd0818c85b8b8a1ab4ceeef8d981c8956a6610c118161159f565b610c1b33836119a4565b3373ffffffffffffffffffffffffffffffffffffffff167fcc16f5dbb4873280815c1ee09dbd06736cffcc184412cf7a71a0fdb75d397ca583604051610c61919061225e565b60405180910390a25050565b610c75611a26565b5050565b600660009054906101000a900473ffffffffffffffffffffffffffffffffffffffff1673ffffffffffffffffffffffffffffffffffffffff16634eec552e826040518263ffffffff1660e01b8152600401610cd4919061225e565b600060405180830381600087803b158015610cee57600080fd5b505af1158015610d02573d6000803e3d6000fd5b5050505050565b600c5481565b6000801b610d1c8161159f565b610d467f9f2df0fed2c77648de5860a4cc508cd0818c85b8b8a1ab4ceeef8d981c8956a68361134d565b5050565b6000606060006305f5e100600660009054906101000a900473ffffffffffffffffffffffffffffffffffffffff1673ffffffffffffffffffffffffffffffffffffffff166318160ddd6040518163ffffffff1660e01b8152600401602060405180830381865afa158015610dc2573d6000803e3d6000fd5b505050506040513d601f19601f82011682018060405250810190610de691906128ef565b610dee61136f565b610df8919061294b565b610e0291906129bc565b90506000816002610e13919061294b565b610e1b610a08565b119050600082610e29610a08565b1090508180610e355750805b94505050509250929050565b60008060008373ffffffffffffffffffffffffffffffffffffffff1673ffffffffffffffffffffffffffffffffffffffff168152602001908152602001600020549050919050565b7fa49807205ce4d355092ef5a8a18f56e8913cf4a201fbe287825b095693c2177581565b600860009054906101000a900473ffffffffffffffffffffffffffffffffffffffff1681565b60006005600084815260200190815260200160002060000160008373ffffffffffffffffffffffffffffffffffffffff1673ffffffffffffffffffffffffffffffffffffffff16815260200190815260200160002060009054906101000a900460ff16905092915050565b606060048054610f4d906127f0565b80601f0160208091040260200160405190810160405280929190818152602001828054610f79906127f0565b8015610fc65780601f10610f9b57610100808354040283529160200191610fc6565b820191906000526020600020905b815481529060010190602001808311610fa957829003601f168201915b5050505050905090565b600b5481565b7f9f2df0fed2c77648de5860a4cc508cd0818c85b8b8a1ab4ceeef8d981c8956a66110008161159f565b61100a3383611cb1565b3373ffffffffffffffffffffffffffffffffffffffff167f0f6798a560793a54c3bcfe86a93cde1e73087d944c0ea20544137d412139688583604051611050919061225e565b60405180910390a25050565b6000801b81565b60008061106e611711565b905061107b81858561161d565b600191505092915050565b6000600660009054906101000a900473ffffffffffffffffffffffffffffffffffffffff1673ffffffffffffffffffffffffffffffffffffffff1663d7f7582c6040518163ffffffff1660e01b8152600401602060405180830381865afa1580156110f5573d6000803e3d6000fd5b505050506040513d601f19601f8201168201806040525081019061111991906128ef565b905090565b6000801b61112b8161159f565b600660009054906101000a900473ffffffffffffffffffffffffffffffffffffffff1673ffffffffffffffffffffffffffffffffffffffff166391d14854600660009054906101000a900473ffffffffffffffffffffffffffffffffffffffff1673ffffffffffffffffffffffffffffffffffffffff1663d53913936040518163ffffffff1660e01b8152600401602060405180830381865afa1580156111d6573d6000803e3d6000fd5b505050506040513d601f19601f820116820180604052508101906111fa9190612a02565b306040518363ffffffff1660e01b8152600401611218929190612a2f565b602060405180830381865afa158015611235573d6000803e3d6000fd5b505050506040513d601f19601f8201168201806040525081019061125991906128ad565b15611299576040517f08c379a000000000000000000000000000000000000000000000000000000000815260040161129090612aca565b60405180910390fd5b600660009054906101000a900473ffffffffffffffffffffffffffffffffffffffff1673ffffffffffffffffffffffffffffffffffffffff16633dd1eb61306040518263ffffffff1660e01b81526004016112f49190612766565b600060405180830381600087803b15801561130e57600080fd5b505af1158015611322573d6000803e3d6000fd5b5050505050565b7f9f2df0fed2c77648de5860a4cc508cd0818c85b8b8a1ab4ceeef8d981c8956a681565b61135682610a41565b61135f8161159f565b61136983836118b1565b50505050565b600080600760009054906101000a900473ffffffffffffffffffffffffffffffffffffffff1673ffffffffffffffffffffffffffffffffffffffff1663feaf968c6040518163ffffffff1660e01b815260040160a060405180830381865afa1580156113df573d6000803e3d6000fd5b505050506040513d601f19601f820116820180604052508101906114039190612b62565b5050509150506000811361144c576040517f08c379a000000000000000000000000000000000000000000000000000000000815260040161144390612c29565b60405180910390fd5b8091505090565b600660009054906101000a900473ffffffffffffffffffffffffffffffffffffffff1673ffffffffffffffffffffffffffffffffffffffff1663dcd27c9e826040518263ffffffff1660e01b81526004016114ae919061225e565b600060405180830381600087803b1580156114c857600080fd5b505af11580156114dc573d6000803e3d6000fd5b5050505050565b6000600160008473ffffffffffffffffffffffffffffffffffffffff1673ffffffffffffffffffffffffffffffffffffffff16815260200190815260200160002060008373ffffffffffffffffffffffffffffffffffffffff1673ffffffffffffffffffffffffffffffffffffffff16815260200190815260200160002054905092915050565b7fa49807205ce4d355092ef5a8a18f56e8913cf4a201fbe287825b095693c217756115948161159f565b61159c611a26565b50565b6115b0816115ab611711565b611d33565b50565b60007f01ffc9a7000000000000000000000000000000000000000000000000000000007bffffffffffffffffffffffffffffffffffffffffffffffffffffffff1916827bffffffffffffffffffffffffffffffffffffffffffffffffffffffff1916149050919050565b600073ffffffffffffffffffffffffffffffffffffffff168373ffffffffffffffffffffffffffffffffffffffff160361168f5760006040517f96c6fd1e0000000000000000000000000000000000000000000000000000000081526004016116869190612766565b60405180910390fd5b600073ffffffffffffffffffffffffffffffffffffffff168273ffffffffffffffffffffffffffffffffffffffff16036117015760006040517fec442f050000000000000000000000000000000000000000000000000000000081526004016116f89190612766565b60405180910390fd5b61170c838383611d84565b505050565b600033905090565b6117268383836001611fa9565b505050565b600061173784846114e3565b90507fffffffffffffffffffffffffffffffffffffffffffffffffffffffffffffffff81146117b957818110156117a9578281836040517ffb8f41b20000000000000000000000000000000000000000000000000000000081526004016117a093929190612c49565b60405180910390fd5b6117b884848484036000611fa9565b5b50505050565b60006117cb8383610ed3565b6118a65760016005600085815260200190815260200160002060000160008473ffffffffffffffffffffffffffffffffffffffff1673ffffffffffffffffffffffffffffffffffffffff16815260200190815260200160002060006101000a81548160ff021916908315150217905550611843611711565b73ffffffffffffffffffffffffffffffffffffffff168273ffffffffffffffffffffffffffffffffffffffff16847f2f8788117e7eff1d82e926ec794901d17c78024a50270940304540a733656f0d60405160405180910390a4600190506118ab565b600090505b92915050565b60006118bd8383610ed3565b156119995760006005600085815260200190815260200160002060000160008473ffffffffffffffffffffffffffffffffffffffff1673ffffffffffffffffffffffffffffffffffffffff16815260200190815260200160002060006101000a81548160ff021916908315150217905550611936611711565b73ffffffffffffffffffffffffffffffffffffffff168273ffffffffffffffffffffffffffffffffffffffff16847ff6391f5c32d9c69d2a47ea670b442974b53935d1edc7fd64eb21e047a839171b60405160405180910390a46001905061199e565b600090505b92915050565b600073ffffffffffffffffffffffffffffffffffffffff168273ffffffffffffffffffffffffffffffffffffffff1603611a165760006040517f96c6fd1e000000000000000000000000000000000000000000000000000000008152600401611a0d9190612766565b60405180910390fd5b611a2282600083611d84565b5050565b6000611a3061136f565b905060008111611a75576040517f08c379a0000000000000000000000000000000000000000000000000000000008152600401611a6c90612c29565b60405180910390fd5b60006305f5e100600660009054906101000a900473ffffffffffffffffffffffffffffffffffffffff1673ffffffffffffffffffffffffffffffffffffffff166318160ddd6040518163ffffffff1660e01b8152600401602060405180830381865afa158015611ae9573d6000803e3d6000fd5b505050506040513d601f19601f82011682018060405250810190611b0d91906128ef565b83611b18919061294b565b611b2291906129bc565b9050611b2c610a08565b811115611b7c576000611b3d610a08565b82611b489190612c80565b9050611b76600860009054906101000a900473ffffffffffffffffffffffffffffffffffffffff1682611cb1565b50611c62565b806002611b89919061294b565b611b91610a08565b1115611c61576000816002611ba6919061294b565b9050600081611bb3610a08565b611bbd9190612c80565b90506000811115611c5e5760006064600a54611bd7610a08565b611be1919061294b565b611beb91906129bc565b9050808211611bfa5781611bfc565b805b915081611c2a600860009054906101000a900473ffffffffffffffffffffffffffffffffffffffff16610e41565b10611c5c57611c5b600860009054906101000a900473ffffffffffffffffffffffffffffffffffffffff16836119a4565b5b505b50505b5b426009819055506000611c73610a08565b90507ff38f88701fc8a3b6310e829bdbfaea4839f27f6a232c5b417f63c08a7e2a563c81604051611ca4919061225e565b60405180910390a1505050565b600073ffffffffffffffffffffffffffffffffffffffff168273ffffffffffffffffffffffffffffffffffffffff1603611d235760006040517fec442f05000000000000000000000000000000000000000000000000000000008152600401611d1a9190612766565b60405180910390fd5b611d2f60008383611d84565b5050565b611d3d8282610ed3565b611d805780826040517fe2517d3f000000000000000000000000000000000000000000000000000000008152600401611d77929190612cb4565b60405180910390fd5b5050565b600073ffffffffffffffffffffffffffffffffffffffff168373ffffffffffffffffffffffffffffffffffffffff1603611dd6578060026000828254611dca9190612cdd565b92505081905550611ea9565b60008060008573ffffffffffffffffffffffffffffffffffffffff1673ffffffffffffffffffffffffffffffffffffffff16815260200190815260200160002054905081811015611e62578381836040517fe450d38c000000000000000000000000000000000000000000000000000000008152600401611e5993929190612c49565b60405180910390fd5b8181036000808673ffffffffffffffffffffffffffffffffffffffff1673ffffffffffffffffffffffffffffffffffffffff16815260200190815260200160002081905550505b600073ffffffffffffffffffffffffffffffffffffffff168273ffffffffffffffffffffffffffffffffffffffff1603611ef25780600260008282540392505081905550611f3f565b806000808473ffffffffffffffffffffffffffffffffffffffff1673ffffffffffffffffffffffffffffffffffffffff168152602001908152602001600020600082825401925050819055505b8173ffffffffffffffffffffffffffffffffffffffff168373ffffffffffffffffffffffffffffffffffffffff167fddf252ad1be2c89b69c2b068fc378daa952ba7f163c4a11628f55a4df523b3ef83604051611f9c919061225e565b60405180910390a3505050565b600073ffffffffffffffffffffffffffffffffffffffff168473ffffffffffffffffffffffffffffffffffffffff160361201b5760006040517fe602df050000000000000000000000000000000000000000000000000000000081526004016120129190612766565b60405180910390fd5b600073ffffffffffffffffffffffffffffffffffffffff168373ffffffffffffffffffffffffffffffffffffffff160361208d5760006040517f94280d620000000000000000000000000000000000000000000000000000000081526004016120849190612766565b60405180910390fd5b81600160008673ffffffffffffffffffffffffffffffffffffffff1673ffffffffffffffffffffffffffffffffffffffff16815260200190815260200160002060008573ffffffffffffffffffffffffffffffffffffffff1673ffffffffffffffffffffffffffffffffffffffff16815260200190815260200160002081905550801561217a578273ffffffffffffffffffffffffffffffffffffffff168473ffffffffffffffffffffffffffffffffffffffff167f8c5be1e5ebec7d5bd14f71427d1e84f3dd0314c0f7b2291e5b200ac8c7c3b92584604051612171919061225e565b60405180910390a35b50505050565b600080fd5b600080fd5b60007fffffffff0000000000000000000000000000000000000000000000000000000082169050919050565b6121bf8161218a565b81146121ca57600080fd5b50565b6000813590506121dc816121b6565b92915050565b6000602082840312156121f8576121f7612180565b5b6000612206848285016121cd565b91505092915050565b60008115159050919050565b6122248161220f565b82525050565b600060208201905061223f600083018461221b565b92915050565b6000819050919050565b61225881612245565b82525050565b6000602082019050612273600083018461224f565b92915050565b600081519050919050565b600082825260208201905092915050565b60005b838110156122b3578082015181840152602081019050612298565b60008484015250505050565b6000601f19601f8301169050919050565b60006122db82612279565b6122e58185612284565b93506122f5818560208601612295565b6122fe816122bf565b840191505092915050565b6000602082019050818103600083015261232381846122d0565b905092915050565b600073ffffffffffffffffffffffffffffffffffffffff82169050919050565b6000819050919050565b600061237061236b6123668461232b565b61234b565b61232b565b9050919050565b600061238282612355565b9050919050565b600061239482612377565b9050919050565b6123a481612389565b82525050565b60006020820190506123bf600083018461239b565b92915050565b60006123d08261232b565b9050919050565b6123e0816123c5565b81146123eb57600080fd5b50565b6000813590506123fd816123d7565b92915050565b61240c81612245565b811461241757600080fd5b50565b60008135905061242981612403565b92915050565b6000806040838503121561244657612445612180565b5b6000612454858286016123ee565b92505060206124658582860161241a565b9150509250929050565b60008060006060848603121561248857612487612180565b5b6000612496868287016123ee565b93505060206124a7868287016123ee565b92505060406124b88682870161241a565b9150509250925092565b6000819050919050565b6124d5816124c2565b81146124e057600080fd5b50565b6000813590506124f2816124cc565b92915050565b60006020828403121561250e5761250d612180565b5b600061251c848285016124e3565b91505092915050565b61252e816124c2565b82525050565b60006020820190506125496000830184612525565b92915050565b6000806040838503121561256657612565612180565b5b6000612574858286016124e3565b9250506020612585858286016123ee565b9150509250929050565b600060ff82169050919050565b6125a58161258f565b82525050565b60006020820190506125c0600083018461259c565b92915050565b6000602082840312156125dc576125db612180565b5b60006125ea848285016123ee565b91505092915050565b60006020828403121561260957612608612180565b5b60006126178482850161241a565b91505092915050565b600080fd5b600080fd5b600080fd5b60008083601f84011261264557612644612620565b5b8235905067ffffffffffffffff81111561266257612661612625565b5b60208301915083600182028301111561267e5761267d61262a565b5b9250929050565b6000806020838503121561269c5761269b612180565b5b600083013567ffffffffffffffff8111156126ba576126b9612185565b5b6126c68582860161262f565b92509250509250929050565b600081519050919050565b600082825260208201905092915050565b60006126f9826126d2565b61270381856126dd565b9350612713818560208601612295565b61271c816122bf565b840191505092915050565b600060408201905061273c600083018561221b565b818103602083015261274e81846126ee565b90509392505050565b612760816123c5565b82525050565b600060208201905061277b6000830184612757565b92915050565b6000806040838503121561279857612797612180565b5b60006127a6858286016123ee565b92505060206127b7858286016123ee565b9150509250929050565b7f4e487b7100000000000000000000000000000000000000000000000000000000600052602260045260246000fd5b6000600282049050600182168061280857607f821691505b60208210810361281b5761281a6127c1565b5b50919050565b60006060820190506128366000830186612757565b6128436020830185612757565b612850604083018461224f565b949350505050565b600060408201905061286d6000830185612757565b61287a602083018461224f565b9392505050565b61288a8161220f565b811461289557600080fd5b50565b6000815190506128a781612881565b92915050565b6000602082840312156128c3576128c2612180565b5b60006128d184828501612898565b91505092915050565b6000815190506128e981612403565b92915050565b60006020828403121561290557612904612180565b5b6000612913848285016128da565b91505092915050565b7f4e487b7100000000000000000000000000000000000000000000000000000000600052601160045260246000fd5b600061295682612245565b915061296183612245565b925082820261296f81612245565b915082820484148315176129865761298561291c565b5b5092915050565b7f4e487b7100000000000000000000000000000000000000000000000000000000600052601260045260246000fd5b60006129c782612245565b91506129d283612245565b9250826129e2576129e161298d565b5b828204905092915050565b6000815190506129fc816124cc565b92915050565b600060208284031215612a1857612a17612180565b5b6000612a26848285016129ed565b91505092915050565b6000604082019050612a446000830185612525565b612a516020830184612757565b9392505050565b7f436f696e446f6c6c617220616c726561647920686173204d494e5445525f524f60008201527f4c4520696e20436f696e476f6c64000000000000000000000000000000000000602082015250565b6000612ab4602e83612284565b9150612abf82612a58565b604082019050919050565b60006020820190508181036000830152612ae381612aa7565b9050919050565b600069ffffffffffffffffffff82169050919050565b612b0981612aea565b8114612b1457600080fd5b50565b600081519050612b2681612b00565b92915050565b6000819050919050565b612b3f81612b2c565b8114612b4a57600080fd5b50565b600081519050612b5c81612b36565b92915050565b600080600080600060a08688031215612b7e57612b7d612180565b5b6000612b8c88828901612b17565b9550506020612b9d88828901612b4d565b9450506040612bae888289016128da565b9350506060612bbf888289016128da565b9250506080612bd088828901612b17565b9150509295509295909350565b7f496e76616c696420676f6c642070726963650000000000000000000000000000600082015250565b6000612c13601283612284565b9150612c1e82612bdd565b602082019050919050565b60006020820190508181036000830152612c4281612c06565b9050919050565b6000606082019050612c5e6000830186612757565b612c6b602083018561224f565b612c78604083018461224f565b949350505050565b6000612c8b82612245565b9150612c9683612245565b9250828203905081811115612cae57612cad61291c565b5b92915050565b6000604082019050612cc96000830185612757565b612cd66020830184612525565b9392505050565b6000612ce882612245565b9150612cf383612245565b9250828201905080821115612d0b57612d0a61291c565b5b9291505056fea2646970667358221220023b5e520911f44bbfa5e7e5b22a76c381a7b43f5b7eee226e012c358140901164736f6c63430008140033",
  "linkReferences": {},
  "deployedLinkReferences": {}
}