{
    "_format": "hh-sol-artifact-1",
    "contractName": "CoinGold",
    "sourceName": "contracts/CoinGold.sol",
    "abi": [
        {
            "inputs": [
                {
                    "internalType": "string",
                    "name": "name",
                    "type": "string"
                },
                {
                    "internalType": "string",
                    "name": "symbol",
                    "type": "string"
                },
                {
                    "internalType": "address",
                    "name": "_dataFeedAddress",
                    "type": "address"
                }
            ],
            "stateMutability": "nonpayable",
            "type": "constructor"
        },
        {
            "inputs": [],
            "name": "AccessControlBadConfirmation",
            "type": "error"
        },
        {
            "inputs": [
                {
                    "internalType": "address",
                    "name": "account",
                    "type": "address"
                },
                {
                    "internalType": "bytes32",
                    "name": "neededRole",
                    "type": "bytes32"
                }
            ],
            "name": "AccessControlUnauthorizedAccount",
            "type": "error"
        },
        {
            "inputs": [
                {
                    "internalType": "address",
                    "name": "spender",
                    "type": "address"
                },
                {
                    "internalType": "uint256",
                    "name": "allowance",
                    "type": "uint256"
                },
                {
                    "internalType": "uint256",
                    "name": "needed",
                    "type": "uint256"
                }
            ],
            "name": "ERC20InsufficientAllowance",
            "type": "error"
        },
        {
            "inputs": [
                {
                    "internalType": "address",
                    "name": "sender",
                    "type": "address"
                },
                {
                    "internalType": "uint256",
                    "name": "balance",
                    "type": "uint256"
                },
                {
                    "internalType": "uint256",
                    "name": "needed",
                    "type": "uint256"
                }
            ],
            "name": "ERC20InsufficientBalance",
            "type": "error"
        },
        {
            "inputs": [
                {
                    "internalType": "address",
                    "name": "approver",
                    "type": "address"
                }
            ],
            "name": "ERC20InvalidApprover",
            "type": "error"
        },
        {
            "inputs": [
                {
                    "internalType": "address",
                    "name": "receiver",
                    "type": "address"
                }
            ],
            "name": "ERC20InvalidReceiver",
            "type": "error"
        },
        {
            "inputs": [
                {
                    "internalType": "address",
                    "name": "sender",
                    "type": "address"
                }
            ],
            "name": "ERC20InvalidSender",
            "type": "error"
        },
        {
            "inputs": [
                {
                    "internalType": "address",
                    "name": "spender",
                    "type": "address"
                }
            ],
            "name": "ERC20InvalidSpender",
            "type": "error"
        },
        {
            "anonymous": false,
            "inputs": [
                {
                    "indexed": true,
                    "internalType": "address",
                    "name": "owner",
                    "type": "address"
                },
                {
                    "indexed": true,
                    "internalType": "address",
                    "name": "spender",
                    "type": "address"
                },
                {
                    "indexed": false,
                    "internalType": "uint256",
                    "name": "value",
                    "type": "uint256"
                }
            ],
            "name": "Approval",
            "type": "event"
        },
        {
            "anonymous": false,
            "inputs": [
                {
                    "indexed": true,
                    "internalType": "address",
                    "name": "from",
                    "type": "address"
                },
                {
                    "indexed": false,
                    "internalType": "uint256",
                    "name": "amount",
                    "type": "uint256"
                }
            ],
            "name": "Burn",
            "type": "event"
        },
        {
            "anonymous": false,
            "inputs": [
                {
                    "indexed": true,
                    "internalType": "address",
                    "name": "to",
                    "type": "address"
                },
                {
                    "indexed": false,
                    "internalType": "uint256",
                    "name": "amount",
                    "type": "uint256"
                }
            ],
            "name": "Mint",
            "type": "event"
        },
        {
            "anonymous": false,
            "inputs": [
                {
                    "indexed": true,
                    "internalType": "bytes32",
                    "name": "role",
                    "type": "bytes32"
                },
                {
                    "indexed": true,
                    "internalType": "bytes32",
                    "name": "previousAdminRole",
                    "type": "bytes32"
                },
                {
                    "indexed": true,
                    "internalType": "bytes32",
                    "name": "newAdminRole",
                    "type": "bytes32"
                }
            ],
            "name": "RoleAdminChanged",
            "type": "event"
        },
        {
            "anonymous": false,
            "inputs": [
                {
                    "indexed": true,
                    "internalType": "bytes32",
                    "name": "role",
                    "type": "bytes32"
                },
                {
                    "indexed": true,
                    "internalType": "address",
                    "name": "account",
                    "type": "address"
                },
                {
                    "indexed": true,
                    "internalType": "address",
                    "name": "sender",
                    "type": "address"
                }
            ],
            "name": "RoleGranted",
            "type": "event"
        },
        {
            "anonymous": false,
            "inputs": [
                {
                    "indexed": true,
                    "internalType": "bytes32",
                    "name": "role",
                    "type": "bytes32"
                },
                {
                    "indexed": true,
                    "internalType": "address",
                    "name": "account",
                    "type": "address"
                },
                {
                    "indexed": true,
                    "internalType": "address",
                    "name": "sender",
                    "type": "address"
                }
            ],
            "name": "RoleRevoked",
            "type": "event"
        },
        {
            "anonymous": false,
            "inputs": [
                {
                    "indexed": true,
                    "internalType": "address",
                    "name": "from",
                    "type": "address"
                },
                {
                    "indexed": true,
                    "internalType": "address",
                    "name": "to",
                    "type": "address"
                },
                {
                    "indexed": false,
                    "internalType": "uint256",
                    "name": "value",
                    "type": "uint256"
                }
            ],
            "name": "Transfer",
            "type": "event"
        },
        {
            "inputs": [],
            "name": "ADMIN_ROLE",
            "outputs": [
                {
                    "internalType": "bytes32",
                    "name": "",
                    "type": "bytes32"
                }
            ],
            "stateMutability": "view",
            "type": "function"
        },
        {
            "inputs": [],
            "name": "DEFAULT_ADMIN_ROLE",
            "outputs": [
                {
                    "internalType": "bytes32",
                    "name": "",
                    "type": "bytes32"
                }
            ],
            "stateMutability": "view",
            "type": "function"
        },
        {
            "inputs": [],
            "name": "MINTER_ROLE",
            "outputs": [
                {
                    "internalType": "bytes32",
                    "name": "",
                    "type": "bytes32"
                }
            ],
            "stateMutability": "view",
            "type": "function"
        },
        {
            "inputs": [
                {
                    "internalType": "address",
                    "name": "owner",
                    "type": "address"
                },
                {
                    "internalType": "address",
                    "name": "spender",
                    "type": "address"
                }
            ],
            "name": "allowance",
            "outputs": [
                {
                    "internalType": "uint256",
                    "name": "",
                    "type": "uint256"
                }
            ],
            "stateMutability": "view",
            "type": "function"
        },
        {
            "inputs": [
                {
                    "internalType": "address",
                    "name": "spender",
                    "type": "address"
                },
                {
                    "internalType": "uint256",
                    "name": "value",
                    "type": "uint256"
                }
            ],
            "name": "approve",
            "outputs": [
                {
                    "internalType": "bool",
                    "name": "",
                    "type": "bool"
                }
            ],
            "stateMutability": "nonpayable",
            "type": "function"
        },
        {
            "inputs": [
                {
                    "internalType": "address",
                    "name": "account",
                    "type": "address"
                }
            ],
            "name": "balanceOf",
            "outputs": [
                {
                    "internalType": "uint256",
                    "name": "",
                    "type": "uint256"
                }
            ],
            "stateMutability": "view",
            "type": "function"
        },
        {
            "inputs": [
                {
                    "internalType": "uint256",
                    "name": "amount",
                    "type": "uint256"
                }
            ],
            "name": "burnCoinGold",
            "outputs": [],
            "stateMutability": "nonpayable",
            "type": "function"
        },
        {
            "inputs": [],
            "name": "decimals",
            "outputs": [
                {
                    "internalType": "uint8",
                    "name": "",
                    "type": "uint8"
                }
            ],
            "stateMutability": "view",
            "type": "function"
        },
        {
            "inputs": [],
            "name": "getChainlinkDataFeedLatestAnswer",
            "outputs": [
                {
                    "internalType": "int256",
                    "name": "",
                    "type": "int256"
                }
            ],
            "stateMutability": "view",
            "type": "function"
        },
        {
            "inputs": [
                {
                    "internalType": "bytes32",
                    "name": "role",
                    "type": "bytes32"
                }
            ],
            "name": "getRoleAdmin",
            "outputs": [
                {
                    "internalType": "bytes32",
                    "name": "",
                    "type": "bytes32"
                }
            ],
            "stateMutability": "view",
            "type": "function"
        },
        {
            "inputs": [
                {
                    "internalType": "address",
                    "name": "account",
                    "type": "address"
                }
            ],
            "name": "grantMinterRole",
            "outputs": [],
            "stateMutability": "nonpayable",
            "type": "function"
        },
        {
            "inputs": [
                {
                    "internalType": "bytes32",
                    "name": "role",
                    "type": "bytes32"
                },
                {
                    "internalType": "address",
                    "name": "account",
                    "type": "address"
                }
            ],
            "name": "grantRole",
            "outputs": [],
            "stateMutability": "nonpayable",
            "type": "function"
        },
        {
            "inputs": [
                {
                    "internalType": "bytes32",
                    "name": "role",
                    "type": "bytes32"
                },
                {
                    "internalType": "address",
                    "name": "account",
                    "type": "address"
                }
            ],
            "name": "hasRole",
            "outputs": [
                {
                    "internalType": "bool",
                    "name": "",
                    "type": "bool"
                }
            ],
            "stateMutability": "view",
            "type": "function"
        },
        {
            "inputs": [
                {
                    "internalType": "uint256",
                    "name": "gramsOfGold",
                    "type": "uint256"
                }
            ],
            "name": "mintCoinGold",
            "outputs": [],
            "stateMutability": "nonpayable",
            "type": "function"
        },
        {
            "inputs": [],
            "name": "name",
            "outputs": [
                {
                    "internalType": "string",
                    "name": "",
                    "type": "string"
                }
            ],
            "stateMutability": "view",
            "type": "function"
        },
        {
            "inputs": [],
            "name": "owner",
            "outputs": [
                {
                    "internalType": "address",
                    "name": "",
                    "type": "address"
                }
            ],
            "stateMutability": "view",
            "type": "function"
        },
        {
            "inputs": [
                {
                    "internalType": "bytes32",
                    "name": "role",
                    "type": "bytes32"
                },
                {
                    "internalType": "address",
                    "name": "callerConfirmation",
                    "type": "address"
                }
            ],
            "name": "renounceRole",
            "outputs": [],
            "stateMutability": "nonpayable",
            "type": "function"
        },
        {
            "inputs": [
                {
                    "internalType": "address",
                    "name": "account",
                    "type": "address"
                }
            ],
            "name": "revokeMinterRole",
            "outputs": [],
            "stateMutability": "nonpayable",
            "type": "function"
        },
        {
            "inputs": [
                {
                    "internalType": "bytes32",
                    "name": "role",
                    "type": "bytes32"
                },
                {
                    "internalType": "address",
                    "name": "account",
                    "type": "address"
                }
            ],
            "name": "revokeRole",
            "outputs": [],
            "stateMutability": "nonpayable",
            "type": "function"
        },
        {
            "inputs": [
                {
                    "internalType": "address",
                    "name": "_coinDollar",
                    "type": "address"
                }
            ],
            "name": "setCoinDollarAddress",
            "outputs": [],
            "stateMutability": "nonpayable",
            "type": "function"
        },
        {
            "inputs": [
                {
                    "internalType": "bytes4",
                    "name": "interfaceId",
                    "type": "bytes4"
                }
            ],
            "name": "supportsInterface",
            "outputs": [
                {
                    "internalType": "bool",
                    "name": "",
                    "type": "bool"
                }
            ],
            "stateMutability": "view",
            "type": "function"
        },
        {
            "inputs": [],
            "name": "symbol",
            "outputs": [
                {
                    "internalType": "string",
                    "name": "",
                    "type": "string"
                }
            ],
            "stateMutability": "view",
            "type": "function"
        },
        {
            "inputs": [],
            "name": "totalCapitalization",
            "outputs": [
                {
                    "internalType": "uint256",
                    "name": "",
                    "type": "uint256"
                }
            ],
            "stateMutability": "view",
            "type": "function"
        },
        {
            "inputs": [],
            "name": "totalSupply",
            "outputs": [
                {
                    "internalType": "uint256",
                    "name": "",
                    "type": "uint256"
                }
            ],
            "stateMutability": "view",
            "type": "function"
        },
        {
            "inputs": [
                {
                    "internalType": "address",
                    "name": "to",
                    "type": "address"
                },
                {
                    "internalType": "uint256",
                    "name": "value",
                    "type": "uint256"
                }
            ],
            "name": "transfer",
            "outputs": [
                {
                    "internalType": "bool",
                    "name": "",
                    "type": "bool"
                }
            ],
            "stateMutability": "nonpayable",
            "type": "function"
        },
        {
            "inputs": [
                {
                    "internalType": "address",
                    "name": "to",
                    "type": "address"
                },
                {
                    "internalType": "uint256",
                    "name": "amount",
                    "type": "uint256"
                }
            ],
            "name": "transferCoinGold",
            "outputs": [
                {
                    "internalType": "bool",
                    "name": "",
                    "type": "bool"
                }
            ],
            "stateMutability": "nonpayable",
            "type": "function"
        },
        {
            "inputs": [
                {
                    "internalType": "address",
                    "name": "from",
                    "type": "address"
                },
                {
                    "internalType": "address",
                    "name": "to",
                    "type": "address"
                },
                {
                    "internalType": "uint256",
                    "name": "value",
                    "type": "uint256"
                }
            ],
            "name": "transferFrom",
            "outputs": [
                {
                    "internalType": "bool",
                    "name": "",
                    "type": "bool"
                }
            ],
            "stateMutability": "nonpayable",
            "type": "function"
        },
        {
            "inputs": [
                {
                    "internalType": "address",
                    "name": "user",
                    "type": "address"
                },
                {
                    "internalType": "address",
                    "name": "recipient",
                    "type": "address"
                },
                {
                    "internalType": "uint256",
                    "name": "amount",
                    "type": "uint256"
                }
            ],
            "name": "transferFromUser",
            "outputs": [],
            "stateMutability": "nonpayable",
            "type": "function"
        }
    ],
    "bytecode": "0x60806040523480156200001157600080fd5b5060405162002b0238038062002b028339818101604052810190620000379190620004d5565b828281600390816200004a9190620007ba565b5080600490816200005c9190620007ba565b50505080600660006101000a81548173ffffffffffffffffffffffffffffffffffffffff021916908373ffffffffffffffffffffffffffffffffffffffff16021790555033600760006101000a81548173ffffffffffffffffffffffffffffffffffffffff021916908373ffffffffffffffffffffffffffffffffffffffff160217905550620000f66000801b336200016660201b60201c565b50620001297f9f2df0fed2c77648de5860a4cc508cd0818c85b8b8a1ab4ceeef8d981c8956a6336200016660201b60201c565b506200015c7fa49807205ce4d355092ef5a8a18f56e8913cf4a201fbe287825b095693c21775336200016660201b60201c565b50505050620008a1565b60006200017a83836200026a60201b60201c565b6200025f5760016005600085815260200190815260200160002060000160008473ffffffffffffffffffffffffffffffffffffffff1673ffffffffffffffffffffffffffffffffffffffff16815260200190815260200160002060006101000a81548160ff021916908315150217905550620001fb620002d560201b60201c565b73ffffffffffffffffffffffffffffffffffffffff168273ffffffffffffffffffffffffffffffffffffffff16847f2f8788117e7eff1d82e926ec794901d17c78024a50270940304540a733656f0d60405160405180910390a46001905062000264565b600090505b92915050565b60006005600084815260200190815260200160002060000160008373ffffffffffffffffffffffffffffffffffffffff1673ffffffffffffffffffffffffffffffffffffffff16815260200190815260200160002060009054906101000a900460ff16905092915050565b600033905090565b6000604051905090565b600080fd5b600080fd5b600080fd5b600080fd5b6000601f19601f8301169050919050565b7f4e487b7100000000000000000000000000000000000000000000000000000000600052604160045260246000fd5b6200034682620002fb565b810181811067ffffffffffffffff821117156200036857620003676200030c565b5b80604052505050565b60006200037d620002dd565b90506200038b82826200033b565b919050565b600067ffffffffffffffff821115620003ae57620003ad6200030c565b5b620003b982620002fb565b9050602081019050919050565b60005b83811015620003e6578082015181840152602081019050620003c9565b60008484015250505050565b600062000409620004038462000390565b62000371565b905082815260208101848484011115620004285762000427620002f6565b5b62000435848285620003c6565b509392505050565b600082601f830112620004555762000454620002f1565b5b815162000467848260208601620003f2565b91505092915050565b600073ffffffffffffffffffffffffffffffffffffffff82169050919050565b60006200049d8262000470565b9050919050565b620004af8162000490565b8114620004bb57600080fd5b50565b600081519050620004cf81620004a4565b92915050565b600080600060608486031215620004f157620004f0620002e7565b5b600084015167ffffffffffffffff811115620005125762000511620002ec565b5b62000520868287016200043d565b935050602084015167ffffffffffffffff811115620005445762000543620002ec565b5b62000552868287016200043d565b92505060406200056586828701620004be565b9150509250925092565b600081519050919050565b7f4e487b7100000000000000000000000000000000000000000000000000000000600052602260045260246000fd5b60006002820490506001821680620005c257607f821691505b602082108103620005d857620005d76200057a565b5b50919050565b60008190508160005260206000209050919050565b60006020601f8301049050919050565b600082821b905092915050565b600060088302620006427fffffffffffffffffffffffffffffffffffffffffffffffffffffffffffffffff8262000603565b6200064e868362000603565b95508019841693508086168417925050509392505050565b6000819050919050565b6000819050919050565b60006200069b620006956200068f8462000666565b62000670565b62000666565b9050919050565b6000819050919050565b620006b7836200067a565b620006cf620006c682620006a2565b84845462000610565b825550505050565b600090565b620006e6620006d7565b620006f3818484620006ac565b505050565b5b818110156200071b576200070f600082620006dc565b600181019050620006f9565b5050565b601f8211156200076a576200073481620005de565b6200073f84620005f3565b810160208510156200074f578190505b620007676200075e85620005f3565b830182620006f8565b50505b505050565b600082821c905092915050565b60006200078f600019846008026200076f565b1980831691505092915050565b6000620007aa83836200077c565b9150826002028217905092915050565b620007c5826200056f565b67ffffffffffffffff811115620007e157620007e06200030c565b5b620007ed8254620005a9565b620007fa8282856200071f565b600060209050601f8311600181146200083257600084156200081d578287015190505b6200082985826200079c565b86555062000899565b601f1984166200084286620005de565b60005b828110156200086c5784890151825560018201915060208501945060208101905062000845565b868310156200088c578489015162000888601f8916826200077c565b8355505b6001600288020188555050505b505050505050565b61225180620008b16000396000f3fe608060405234801561001057600080fd5b50600436106101c45760003560e01c806370a08231116100f9578063bea4dfb511610097578063d7f7582c11610071578063d7f7582c1461051b578063dcd27c9e14610539578063dd62ed3e14610555578063ec30bee114610585576101c4565b8063bea4dfb5146104c3578063d5391393146104e1578063d547741f146104ff576101c4565b806391d14854116100d357806391d148541461042757806395d89b4114610457578063a217fddf14610475578063a9059cbb14610493576101c4565b806370a08231146103bb57806375b238fc146103eb5780638da5cb5b14610409576101c4565b8063313ce567116101665780633dd1eb61116101405780633dd1eb61146103375780633f64524d146103535780634eec552e1461038357806369e2f0fb1461039f576101c4565b8063313ce567146102e15780633184b9fd146102ff57806336568abe1461031b576101c4565b806318160ddd116101a257806318160ddd1461024757806323b872dd14610265578063248a9ca3146102955780632f2ff15d146102c5576101c4565b806301ffc9a7146101c957806306fdde03146101f9578063095ea7b314610217575b600080fd5b6101e360048036038101906101de91906118fa565b6105a1565b6040516101f09190611942565b60405180910390f35b61020161061b565b60405161020e91906119ed565b60405180910390f35b610231600480360381019061022c9190611aa3565b6106ad565b60405161023e9190611942565b60405180910390f35b61024f6106d0565b60405161025c9190611af2565b60405180910390f35b61027f600480360381019061027a9190611b0d565b6106da565b60405161028c9190611942565b60405180910390f35b6102af60048036038101906102aa9190611b96565b610709565b6040516102bc9190611bd2565b60405180910390f35b6102df60048036038101906102da9190611bed565b610729565b005b6102e961074b565b6040516102f69190611c49565b60405180910390f35b61031960048036038101906103149190611b0d565b610754565b005b61033560048036038101906103309190611bed565b61078f565b005b610351600480360381019061034c9190611c64565b61080a565b005b61036d60048036038101906103689190611aa3565b610838565b60405161037a9190611942565b60405180910390f35b61039d60048036038101906103989190611c91565b61084f565b005b6103b960048036038101906103b49190611c64565b610989565b005b6103d560048036038101906103d09190611c64565b6109b7565b6040516103e29190611af2565b60405180910390f35b6103f36109ff565b6040516104009190611bd2565b60405180910390f35b610411610a23565b60405161041e9190611ccd565b60405180910390f35b610441600480360381019061043c9190611bed565b610a49565b60405161044e9190611942565b60405180910390f35b61045f610ab4565b60405161046c91906119ed565b60405180910390f35b61047d610b46565b60405161048a9190611bd2565b60405180910390f35b6104ad60048036038101906104a89190611aa3565b610b4d565b6040516104ba9190611942565b60405180910390f35b6104cb610b70565b6040516104d89190611d01565b60405180910390f35b6104e9610c11565b6040516104f69190611bd2565b60405180910390f35b61051960048036038101906105149190611bed565b610c35565b005b610523610c57565b6040516105309190611af2565b60405180910390f35b610553600480360381019061054e9190611c91565b610d62565b005b61056f600480360381019061056a9190611d1c565b610e51565b60405161057c9190611af2565b60405180910390f35b61059f600480360381019061059a9190611c64565b610ed8565b005b60007f7965db0b000000000000000000000000000000000000000000000000000000007bffffffffffffffffffffffffffffffffffffffffffffffffffffffff1916827bffffffffffffffffffffffffffffffffffffffffffffffffffffffff19161480610614575061061382610f47565b5b9050919050565b60606003805461062a90611d8b565b80601f016020809104026020016040519081016040528092919081815260200182805461065690611d8b565b80156106a35780601f10610678576101008083540402835291602001916106a3565b820191906000526020600020905b81548152906001019060200180831161068657829003601f168201915b5050505050905090565b6000806106b8610fb1565b90506106c5818585610fb9565b600191505092915050565b6000600254905090565b6000806106e5610fb1565b90506106f2858285610fcb565b6106fd85858561105f565b60019150509392505050565b600060056000838152602001908152602001600020600101549050919050565b61073282610709565b61073b81611153565b6107458383611167565b50505050565b60006012905090565b7f9f2df0fed2c77648de5860a4cc508cd0818c85b8b8a1ab4ceeef8d981c8956a661077e81611153565b61078984848461105f565b50505050565b610797610fb1565b73ffffffffffffffffffffffffffffffffffffffff168173ffffffffffffffffffffffffffffffffffffffff16146107fb576040517f6697b23200000000000000000000000000000000000000000000000000000000815260040160405180910390fd5b6108058282611259565b505050565b6108347f9f2df0fed2c77648de5860a4cc508cd0818c85b8b8a1ab4ceeef8d981c8956a682611167565b5050565b600061084533848461105f565b6001905092915050565b7f9f2df0fed2c77648de5860a4cc508cd0818c85b8b8a1ab4ceeef8d981c8956a661087981611153565b600082116108bc576040517f08c379a00000000000000000000000000000000000000000000000000000000081526004016108b390611e2e565b60405180910390fd5b816108c6336109b7565b1015610907576040517f08c379a00000000000000000000000000000000000000000000000000000000081526004016108fe90611e9a565b60405180910390fd5b61092433670de0b6b3a76400008461091f9190611ee9565b61134c565b3373ffffffffffffffffffffffffffffffffffffffff167fcc16f5dbb4873280815c1ee09dbd06736cffcc184412cf7a71a0fdb75d397ca5670de0b6b3a7640000846109709190611ee9565b60405161097d9190611af2565b60405180910390a25050565b6109b37f9f2df0fed2c77648de5860a4cc508cd0818c85b8b8a1ab4ceeef8d981c8956a682611259565b5050565b60008060008373ffffffffffffffffffffffffffffffffffffffff1673ffffffffffffffffffffffffffffffffffffffff168152602001908152602001600020549050919050565b7fa49807205ce4d355092ef5a8a18f56e8913cf4a201fbe287825b095693c2177581565b600760009054906101000a900473ffffffffffffffffffffffffffffffffffffffff1681565b60006005600084815260200190815260200160002060000160008373ffffffffffffffffffffffffffffffffffffffff1673ffffffffffffffffffffffffffffffffffffffff16815260200190815260200160002060009054906101000a900460ff16905092915050565b606060048054610ac390611d8b565b80601f0160208091040260200160405190810160405280929190818152602001828054610aef90611d8b565b8015610b3c5780601f10610b1157610100808354040283529160200191610b3c565b820191906000526020600020905b815481529060010190602001808311610b1f57829003601f168201915b5050505050905090565b6000801b81565b600080610b58610fb1565b9050610b6581858561105f565b600191505092915050565b600080600660009054906101000a900473ffffffffffffffffffffffffffffffffffffffff1673ffffffffffffffffffffffffffffffffffffffff1663feaf968c6040518163ffffffff1660e01b815260040160a060405180830381865afa158015610be0573d6000803e3d6000fd5b505050506040513d601f19601f82011682018060405250810190610c049190611fae565b5050509150508091505090565b7f9f2df0fed2c77648de5860a4cc508cd0818c85b8b8a1ab4ceeef8d981c8956a681565b610c3e82610709565b610c4781611153565b610c518383611259565b50505050565b600080600660009054906101000a900473ffffffffffffffffffffffffffffffffffffffff1673ffffffffffffffffffffffffffffffffffffffff1663feaf968c6040518163ffffffff1660e01b815260040160a060405180830381865afa158015610cc7573d6000803e3d6000fd5b505050506040513d601f19601f82011682018060405250810190610ceb9190611fae565b50505091505060008113610d34576040517f08c379a0000000000000000000000000000000000000000000000000000000008152600401610d2b90612075565b60405180910390fd5b6000610d3e6106d0565b90506305f5e1008183610d519190611ee9565b610d5b91906120c4565b9250505090565b7f9f2df0fed2c77648de5860a4cc508cd0818c85b8b8a1ab4ceeef8d981c8956a6610d8c81611153565b60008211610dcf576040517f08c379a0000000000000000000000000000000000000000000000000000000008152600401610dc690612167565b60405180910390fd5b610dec33670de0b6b3a764000084610de79190611ee9565b6113ce565b3373ffffffffffffffffffffffffffffffffffffffff167f0f6798a560793a54c3bcfe86a93cde1e73087d944c0ea20544137d4121396885670de0b6b3a764000084610e389190611ee9565b604051610e459190611af2565b60405180910390a25050565b6000600160008473ffffffffffffffffffffffffffffffffffffffff1673ffffffffffffffffffffffffffffffffffffffff16815260200190815260200160002060008373ffffffffffffffffffffffffffffffffffffffff1673ffffffffffffffffffffffffffffffffffffffff16815260200190815260200160002054905092915050565b7fa49807205ce4d355092ef5a8a18f56e8913cf4a201fbe287825b095693c21775610f0281611153565b81600860006101000a81548173ffffffffffffffffffffffffffffffffffffffff021916908373ffffffffffffffffffffffffffffffffffffffff1602179055505050565b60007f01ffc9a7000000000000000000000000000000000000000000000000000000007bffffffffffffffffffffffffffffffffffffffffffffffffffffffff1916827bffffffffffffffffffffffffffffffffffffffffffffffffffffffff1916149050919050565b600033905090565b610fc68383836001611450565b505050565b6000610fd78484610e51565b90507fffffffffffffffffffffffffffffffffffffffffffffffffffffffffffffffff81146110595781811015611049578281836040517ffb8f41b200000000000000000000000000000000000000000000000000000000815260040161104093929190612187565b60405180910390fd5b61105884848484036000611450565b5b50505050565b600073ffffffffffffffffffffffffffffffffffffffff168373ffffffffffffffffffffffffffffffffffffffff16036110d15760006040517f96c6fd1e0000000000000000000000000000000000000000000000000000000081526004016110c89190611ccd565b60405180910390fd5b600073ffffffffffffffffffffffffffffffffffffffff168273ffffffffffffffffffffffffffffffffffffffff16036111435760006040517fec442f0500000000000000000000000000000000000000000000000000000000815260040161113a9190611ccd565b60405180910390fd5b61114e838383611627565b505050565b6111648161115f610fb1565b61184c565b50565b60006111738383610a49565b61124e5760016005600085815260200190815260200160002060000160008473ffffffffffffffffffffffffffffffffffffffff1673ffffffffffffffffffffffffffffffffffffffff16815260200190815260200160002060006101000a81548160ff0219169083151502179055506111eb610fb1565b73ffffffffffffffffffffffffffffffffffffffff168273ffffffffffffffffffffffffffffffffffffffff16847f2f8788117e7eff1d82e926ec794901d17c78024a50270940304540a733656f0d60405160405180910390a460019050611253565b600090505b92915050565b60006112658383610a49565b156113415760006005600085815260200190815260200160002060000160008473ffffffffffffffffffffffffffffffffffffffff1673ffffffffffffffffffffffffffffffffffffffff16815260200190815260200160002060006101000a81548160ff0219169083151502179055506112de610fb1565b73ffffffffffffffffffffffffffffffffffffffff168273ffffffffffffffffffffffffffffffffffffffff16847ff6391f5c32d9c69d2a47ea670b442974b53935d1edc7fd64eb21e047a839171b60405160405180910390a460019050611346565b600090505b92915050565b600073ffffffffffffffffffffffffffffffffffffffff168273ffffffffffffffffffffffffffffffffffffffff16036113be5760006040517f96c6fd1e0000000000000000000000000000000000000000000000000000000081526004016113b59190611ccd565b60405180910390fd5b6113ca82600083611627565b5050565b600073ffffffffffffffffffffffffffffffffffffffff168273ffffffffffffffffffffffffffffffffffffffff16036114405760006040517fec442f050000000000000000000000000000000000000000000000000000000081526004016114379190611ccd565b60405180910390fd5b61144c60008383611627565b5050565b600073ffffffffffffffffffffffffffffffffffffffff168473ffffffffffffffffffffffffffffffffffffffff16036114c25760006040517fe602df050000000000000000000000000000000000000000000000000000000081526004016114b99190611ccd565b60405180910390fd5b600073ffffffffffffffffffffffffffffffffffffffff168373ffffffffffffffffffffffffffffffffffffffff16036115345760006040517f94280d6200000000000000000000000000000000000000000000000000000000815260040161152b9190611ccd565b60405180910390fd5b81600160008673ffffffffffffffffffffffffffffffffffffffff1673ffffffffffffffffffffffffffffffffffffffff16815260200190815260200160002060008573ffffffffffffffffffffffffffffffffffffffff1673ffffffffffffffffffffffffffffffffffffffff168152602001908152602001600020819055508015611621578273ffffffffffffffffffffffffffffffffffffffff168473ffffffffffffffffffffffffffffffffffffffff167f8c5be1e5ebec7d5bd14f71427d1e84f3dd0314c0f7b2291e5b200ac8c7c3b925846040516116189190611af2565b60405180910390a35b50505050565b600073ffffffffffffffffffffffffffffffffffffffff168373ffffffffffffffffffffffffffffffffffffffff160361167957806002600082825461166d91906121be565b9250508190555061174c565b60008060008573ffffffffffffffffffffffffffffffffffffffff1673ffffffffffffffffffffffffffffffffffffffff16815260200190815260200160002054905081811015611705578381836040517fe450d38c0000000000000000000000000000000000000000000000000000000081526004016116fc93929190612187565b60405180910390fd5b8181036000808673ffffffffffffffffffffffffffffffffffffffff1673ffffffffffffffffffffffffffffffffffffffff16815260200190815260200160002081905550505b600073ffffffffffffffffffffffffffffffffffffffff168273ffffffffffffffffffffffffffffffffffffffff160361179557806002600082825403925050819055506117e2565b806000808473ffffffffffffffffffffffffffffffffffffffff1673ffffffffffffffffffffffffffffffffffffffff168152602001908152602001600020600082825401925050819055505b8173ffffffffffffffffffffffffffffffffffffffff168373ffffffffffffffffffffffffffffffffffffffff167fddf252ad1be2c89b69c2b068fc378daa952ba7f163c4a11628f55a4df523b3ef8360405161183f9190611af2565b60405180910390a3505050565b6118568282610a49565b6118995780826040517fe2517d3f0000000000000000000000000000000000000000000000000000000081526004016118909291906121f2565b60405180910390fd5b5050565b600080fd5b60007fffffffff0000000000000000000000000000000000000000000000000000000082169050919050565b6118d7816118a2565b81146118e257600080fd5b50565b6000813590506118f4816118ce565b92915050565b6000602082840312156119105761190f61189d565b5b600061191e848285016118e5565b91505092915050565b60008115159050919050565b61193c81611927565b82525050565b60006020820190506119576000830184611933565b92915050565b600081519050919050565b600082825260208201905092915050565b60005b8381101561199757808201518184015260208101905061197c565b60008484015250505050565b6000601f19601f8301169050919050565b60006119bf8261195d565b6119c98185611968565b93506119d9818560208601611979565b6119e2816119a3565b840191505092915050565b60006020820190508181036000830152611a0781846119b4565b905092915050565b600073ffffffffffffffffffffffffffffffffffffffff82169050919050565b6000611a3a82611a0f565b9050919050565b611a4a81611a2f565b8114611a5557600080fd5b50565b600081359050611a6781611a41565b92915050565b6000819050919050565b611a8081611a6d565b8114611a8b57600080fd5b50565b600081359050611a9d81611a77565b92915050565b60008060408385031215611aba57611ab961189d565b5b6000611ac885828601611a58565b9250506020611ad985828601611a8e565b9150509250929050565b611aec81611a6d565b82525050565b6000602082019050611b076000830184611ae3565b92915050565b600080600060608486031215611b2657611b2561189d565b5b6000611b3486828701611a58565b9350506020611b4586828701611a58565b9250506040611b5686828701611a8e565b9150509250925092565b6000819050919050565b611b7381611b60565b8114611b7e57600080fd5b50565b600081359050611b9081611b6a565b92915050565b600060208284031215611bac57611bab61189d565b5b6000611bba84828501611b81565b91505092915050565b611bcc81611b60565b82525050565b6000602082019050611be76000830184611bc3565b92915050565b60008060408385031215611c0457611c0361189d565b5b6000611c1285828601611b81565b9250506020611c2385828601611a58565b9150509250929050565b600060ff82169050919050565b611c4381611c2d565b82525050565b6000602082019050611c5e6000830184611c3a565b92915050565b600060208284031215611c7a57611c7961189d565b5b6000611c8884828501611a58565b91505092915050565b600060208284031215611ca757611ca661189d565b5b6000611cb584828501611a8e565b91505092915050565b611cc781611a2f565b82525050565b6000602082019050611ce26000830184611cbe565b92915050565b6000819050919050565b611cfb81611ce8565b82525050565b6000602082019050611d166000830184611cf2565b92915050565b60008060408385031215611d3357611d3261189d565b5b6000611d4185828601611a58565b9250506020611d5285828601611a58565b9150509250929050565b7f4e487b7100000000000000000000000000000000000000000000000000000000600052602260045260246000fd5b60006002820490506001821680611da357607f821691505b602082108103611db657611db5611d5c565b5b50919050565b7f4275726e20616d6f756e74206d7573742062652067726561746572207468616e60008201527f207a65726f000000000000000000000000000000000000000000000000000000602082015250565b6000611e18602583611968565b9150611e2382611dbc565b604082019050919050565b60006020820190508181036000830152611e4781611e0b565b9050919050565b7f496e73756666696369656e7420436f696e476f6c642062616c616e6365000000600082015250565b6000611e84601d83611968565b9150611e8f82611e4e565b602082019050919050565b60006020820190508181036000830152611eb381611e77565b9050919050565b7f4e487b7100000000000000000000000000000000000000000000000000000000600052601160045260246000fd5b6000611ef482611a6d565b9150611eff83611a6d565b9250828202611f0d81611a6d565b91508282048414831517611f2457611f23611eba565b5b5092915050565b600069ffffffffffffffffffff82169050919050565b611f4a81611f2b565b8114611f5557600080fd5b50565b600081519050611f6781611f41565b92915050565b611f7681611ce8565b8114611f8157600080fd5b50565b600081519050611f9381611f6d565b92915050565b600081519050611fa881611a77565b92915050565b600080600080600060a08688031215611fca57611fc961189d565b5b6000611fd888828901611f58565b9550506020611fe988828901611f84565b9450506040611ffa88828901611f99565b935050606061200b88828901611f99565b925050608061201c88828901611f58565b9150509295509295909350565b7f496e76616c696420676f6c642070726963650000000000000000000000000000600082015250565b600061205f601283611968565b915061206a82612029565b602082019050919050565b6000602082019050818103600083015261208e81612052565b9050919050565b7f4e487b7100000000000000000000000000000000000000000000000000000000600052601260045260246000fd5b60006120cf82611a6d565b91506120da83611a6d565b9250826120ea576120e9612095565b5b828204905092915050565b7f4d696e7420616d6f756e74206d7573742062652067726561746572207468616e60008201527f207a65726f000000000000000000000000000000000000000000000000000000602082015250565b6000612151602583611968565b915061215c826120f5565b604082019050919050565b6000602082019050818103600083015261218081612144565b9050919050565b600060608201905061219c6000830186611cbe565b6121a96020830185611ae3565b6121b66040830184611ae3565b949350505050565b60006121c982611a6d565b91506121d483611a6d565b92508282019050808211156121ec576121eb611eba565b5b92915050565b60006040820190506122076000830185611cbe565b6122146020830184611bc3565b939250505056fea264697066735822122015734cb0b591366b51a0e4cc71c0ab507a48f2103a076dbb2a7bb417fc1c90cd64736f6c63430008140033",
    "linkReferences": {},
    "deployedLinkReferences": {}
}