{
  "_format": "hh-sol-artifact-1",
  "contractName": "CoinGold",
  "sourceName": "contracts/CoinGold.sol",
  "abi": [
    {
      "inputs": [
        {
          "internalType": "string",
          "name": "name",
          "type": "string"
        },
        {
          "internalType": "string",
          "name": "symbol",
          "type": "string"
        },
        {
          "internalType": "address",
          "name": "_dataFeedAddress",
          "type": "address"
        }
      ],
      "stateMutability": "nonpayable",
      "type": "constructor"
    },
    {
      "inputs": [],
      "name": "AccessControlBadConfirmation",
      "type": "error"
    },
    {
      "inputs": [
        {
          "internalType": "address",
          "name": "account",
          "type": "address"
        },
        {
          "internalType": "bytes32",
          "name": "neededRole",
          "type": "bytes32"
        }
      ],
      "name": "AccessControlUnauthorizedAccount",
      "type": "error"
    },
    {
      "inputs": [
        {
          "internalType": "address",
          "name": "spender",
          "type": "address"
        },
        {
          "internalType": "uint256",
          "name": "allowance",
          "type": "uint256"
        },
        {
          "internalType": "uint256",
          "name": "needed",
          "type": "uint256"
        }
      ],
      "name": "ERC20InsufficientAllowance",
      "type": "error"
    },
    {
      "inputs": [
        {
          "internalType": "address",
          "name": "sender",
          "type": "address"
        },
        {
          "internalType": "uint256",
          "name": "balance",
          "type": "uint256"
        },
        {
          "internalType": "uint256",
          "name": "needed",
          "type": "uint256"
        }
      ],
      "name": "ERC20InsufficientBalance",
      "type": "error"
    },
    {
      "inputs": [
        {
          "internalType": "address",
          "name": "approver",
          "type": "address"
        }
      ],
      "name": "ERC20InvalidApprover",
      "type": "error"
    },
    {
      "inputs": [
        {
          "internalType": "address",
          "name": "receiver",
          "type": "address"
        }
      ],
      "name": "ERC20InvalidReceiver",
      "type": "error"
    },
    {
      "inputs": [
        {
          "internalType": "address",
          "name": "sender",
          "type": "address"
        }
      ],
      "name": "ERC20InvalidSender",
      "type": "error"
    },
    {
      "inputs": [
        {
          "internalType": "address",
          "name": "spender",
          "type": "address"
        }
      ],
      "name": "ERC20InvalidSpender",
      "type": "error"
    },
    {
      "anonymous": false,
      "inputs": [
        {
          "indexed": true,
          "internalType": "address",
          "name": "owner",
          "type": "address"
        },
        {
          "indexed": true,
          "internalType": "address",
          "name": "spender",
          "type": "address"
        },
        {
          "indexed": false,
          "internalType": "uint256",
          "name": "value",
          "type": "uint256"
        }
      ],
      "name": "Approval",
      "type": "event"
    },
    {
      "anonymous": false,
      "inputs": [
        {
          "indexed": true,
          "internalType": "address",
          "name": "from",
          "type": "address"
        },
        {
          "indexed": false,
          "internalType": "uint256",
          "name": "amount",
          "type": "uint256"
        }
      ],
      "name": "Burn",
      "type": "event"
    },
    {
      "anonymous": false,
      "inputs": [
        {
          "indexed": true,
          "internalType": "address",
          "name": "to",
          "type": "address"
        },
        {
          "indexed": false,
          "internalType": "uint256",
          "name": "amount",
          "type": "uint256"
        }
      ],
      "name": "Mint",
      "type": "event"
    },
    {
      "anonymous": false,
      "inputs": [
        {
          "indexed": true,
          "internalType": "bytes32",
          "name": "role",
          "type": "bytes32"
        },
        {
          "indexed": true,
          "internalType": "bytes32",
          "name": "previousAdminRole",
          "type": "bytes32"
        },
        {
          "indexed": true,
          "internalType": "bytes32",
          "name": "newAdminRole",
          "type": "bytes32"
        }
      ],
      "name": "RoleAdminChanged",
      "type": "event"
    },
    {
      "anonymous": false,
      "inputs": [
        {
          "indexed": true,
          "internalType": "bytes32",
          "name": "role",
          "type": "bytes32"
        },
        {
          "indexed": true,
          "internalType": "address",
          "name": "account",
          "type": "address"
        },
        {
          "indexed": true,
          "internalType": "address",
          "name": "sender",
          "type": "address"
        }
      ],
      "name": "RoleGranted",
      "type": "event"
    },
    {
      "anonymous": false,
      "inputs": [
        {
          "indexed": true,
          "internalType": "bytes32",
          "name": "role",
          "type": "bytes32"
        },
        {
          "indexed": true,
          "internalType": "address",
          "name": "account",
          "type": "address"
        },
        {
          "indexed": true,
          "internalType": "address",
          "name": "sender",
          "type": "address"
        }
      ],
      "name": "RoleRevoked",
      "type": "event"
    },
    {
      "anonymous": false,
      "inputs": [
        {
          "indexed": true,
          "internalType": "address",
          "name": "from",
          "type": "address"
        },
        {
          "indexed": true,
          "internalType": "address",
          "name": "to",
          "type": "address"
        },
        {
          "indexed": false,
          "internalType": "uint256",
          "name": "value",
          "type": "uint256"
        }
      ],
      "name": "Transfer",
      "type": "event"
    },
    {
      "inputs": [],
      "name": "ADMIN_ROLE",
      "outputs": [
        {
          "internalType": "bytes32",
          "name": "",
          "type": "bytes32"
        }
      ],
      "stateMutability": "view",
      "type": "function"
    },
    {
      "inputs": [],
      "name": "DEFAULT_ADMIN_ROLE",
      "outputs": [
        {
          "internalType": "bytes32",
          "name": "",
          "type": "bytes32"
        }
      ],
      "stateMutability": "view",
      "type": "function"
    },
    {
      "inputs": [],
      "name": "MINTER_ROLE",
      "outputs": [
        {
          "internalType": "bytes32",
          "name": "",
          "type": "bytes32"
        }
      ],
      "stateMutability": "view",
      "type": "function"
    },
    {
      "inputs": [
        {
          "internalType": "address",
          "name": "owner",
          "type": "address"
        },
        {
          "internalType": "address",
          "name": "spender",
          "type": "address"
        }
      ],
      "name": "allowance",
      "outputs": [
        {
          "internalType": "uint256",
          "name": "",
          "type": "uint256"
        }
      ],
      "stateMutability": "view",
      "type": "function"
    },
    {
      "inputs": [
        {
          "internalType": "address",
          "name": "spender",
          "type": "address"
        },
        {
          "internalType": "uint256",
          "name": "value",
          "type": "uint256"
        }
      ],
      "name": "approve",
      "outputs": [
        {
          "internalType": "bool",
          "name": "",
          "type": "bool"
        }
      ],
      "stateMutability": "nonpayable",
      "type": "function"
    },
    {
      "inputs": [
        {
          "internalType": "address",
          "name": "account",
          "type": "address"
        }
      ],
      "name": "balanceOf",
      "outputs": [
        {
          "internalType": "uint256",
          "name": "",
          "type": "uint256"
        }
      ],
      "stateMutability": "view",
      "type": "function"
    },
    {
      "inputs": [
        {
          "internalType": "uint256",
          "name": "amount",
          "type": "uint256"
        }
      ],
      "name": "burnCoinGold",
      "outputs": [],
      "stateMutability": "nonpayable",
      "type": "function"
    },
    {
      "inputs": [],
      "name": "decimals",
      "outputs": [
        {
          "internalType": "uint8",
          "name": "",
          "type": "uint8"
        }
      ],
      "stateMutability": "view",
      "type": "function"
    },
    {
      "inputs": [],
      "name": "getChainlinkDataFeedLatestAnswer",
      "outputs": [
        {
          "internalType": "int256",
          "name": "",
          "type": "int256"
        }
      ],
      "stateMutability": "view",
      "type": "function"
    },
    {
      "inputs": [
        {
          "internalType": "bytes32",
          "name": "role",
          "type": "bytes32"
        }
      ],
      "name": "getRoleAdmin",
      "outputs": [
        {
          "internalType": "bytes32",
          "name": "",
          "type": "bytes32"
        }
      ],
      "stateMutability": "view",
      "type": "function"
    },
    {
      "inputs": [
        {
          "internalType": "address",
          "name": "account",
          "type": "address"
        }
      ],
      "name": "grantMinterRole",
      "outputs": [],
      "stateMutability": "nonpayable",
      "type": "function"
    },
    {
      "inputs": [
        {
          "internalType": "bytes32",
          "name": "role",
          "type": "bytes32"
        },
        {
          "internalType": "address",
          "name": "account",
          "type": "address"
        }
      ],
      "name": "grantRole",
      "outputs": [],
      "stateMutability": "nonpayable",
      "type": "function"
    },
    {
      "inputs": [
        {
          "internalType": "bytes32",
          "name": "role",
          "type": "bytes32"
        },
        {
          "internalType": "address",
          "name": "account",
          "type": "address"
        }
      ],
      "name": "hasRole",
      "outputs": [
        {
          "internalType": "bool",
          "name": "",
          "type": "bool"
        }
      ],
      "stateMutability": "view",
      "type": "function"
    },
    {
      "inputs": [
        {
          "internalType": "uint256",
          "name": "ouncesOfGold",
          "type": "uint256"
        }
      ],
      "name": "mintCoinGold",
      "outputs": [],
      "stateMutability": "nonpayable",
      "type": "function"
    },
    {
      "inputs": [],
      "name": "name",
      "outputs": [
        {
          "internalType": "string",
          "name": "",
          "type": "string"
        }
      ],
      "stateMutability": "view",
      "type": "function"
    },
    {
      "inputs": [],
      "name": "owner",
      "outputs": [
        {
          "internalType": "address",
          "name": "",
          "type": "address"
        }
      ],
      "stateMutability": "view",
      "type": "function"
    },
    {
      "inputs": [
        {
          "internalType": "bytes32",
          "name": "role",
          "type": "bytes32"
        },
        {
          "internalType": "address",
          "name": "callerConfirmation",
          "type": "address"
        }
      ],
      "name": "renounceRole",
      "outputs": [],
      "stateMutability": "nonpayable",
      "type": "function"
    },
    {
      "inputs": [
        {
          "internalType": "address",
          "name": "account",
          "type": "address"
        }
      ],
      "name": "revokeMinterRole",
      "outputs": [],
      "stateMutability": "nonpayable",
      "type": "function"
    },
    {
      "inputs": [
        {
          "internalType": "bytes32",
          "name": "role",
          "type": "bytes32"
        },
        {
          "internalType": "address",
          "name": "account",
          "type": "address"
        }
      ],
      "name": "revokeRole",
      "outputs": [],
      "stateMutability": "nonpayable",
      "type": "function"
    },
    {
      "inputs": [
        {
          "internalType": "bytes4",
          "name": "interfaceId",
          "type": "bytes4"
        }
      ],
      "name": "supportsInterface",
      "outputs": [
        {
          "internalType": "bool",
          "name": "",
          "type": "bool"
        }
      ],
      "stateMutability": "view",
      "type": "function"
    },
    {
      "inputs": [],
      "name": "symbol",
      "outputs": [
        {
          "internalType": "string",
          "name": "",
          "type": "string"
        }
      ],
      "stateMutability": "view",
      "type": "function"
    },
    {
      "inputs": [],
      "name": "totalCapitalization",
      "outputs": [
        {
          "internalType": "uint256",
          "name": "",
          "type": "uint256"
        }
      ],
      "stateMutability": "view",
      "type": "function"
    },
    {
      "inputs": [],
      "name": "totalSupply",
      "outputs": [
        {
          "internalType": "uint256",
          "name": "",
          "type": "uint256"
        }
      ],
      "stateMutability": "view",
      "type": "function"
    },
    {
      "inputs": [
        {
          "internalType": "address",
          "name": "to",
          "type": "address"
        },
        {
          "internalType": "uint256",
          "name": "value",
          "type": "uint256"
        }
      ],
      "name": "transfer",
      "outputs": [
        {
          "internalType": "bool",
          "name": "",
          "type": "bool"
        }
      ],
      "stateMutability": "nonpayable",
      "type": "function"
    },
    {
      "inputs": [
        {
          "internalType": "address",
          "name": "to",
          "type": "address"
        },
        {
          "internalType": "uint256",
          "name": "amount",
          "type": "uint256"
        }
      ],
      "name": "transferCoinGold",
      "outputs": [
        {
          "internalType": "bool",
          "name": "",
          "type": "bool"
        }
      ],
      "stateMutability": "nonpayable",
      "type": "function"
    },
    {
      "inputs": [
        {
          "internalType": "address",
          "name": "from",
          "type": "address"
        },
        {
          "internalType": "address",
          "name": "to",
          "type": "address"
        },
        {
          "internalType": "uint256",
          "name": "value",
          "type": "uint256"
        }
      ],
      "name": "transferFrom",
      "outputs": [
        {
          "internalType": "bool",
          "name": "",
          "type": "bool"
        }
      ],
      "stateMutability": "nonpayable",
      "type": "function"
    },
    {
      "inputs": [
        {
          "internalType": "address",
          "name": "user",
          "type": "address"
        },
        {
          "internalType": "address",
          "name": "recipient",
          "type": "address"
        },
        {
          "internalType": "uint256",
          "name": "amount",
          "type": "uint256"
        }
      ],
      "name": "transferFromUser",
      "outputs": [],
      "stateMutability": "nonpayable",
      "type": "function"
    }
  ],
  "bytecode": "0x60806040523480156200001157600080fd5b5060405162002a4938038062002a498339818101604052810190620000379190620004d5565b828281600390816200004a9190620007ba565b5080600490816200005c9190620007ba565b50505080600660006101000a81548173ffffffffffffffffffffffffffffffffffffffff021916908373ffffffffffffffffffffffffffffffffffffffff16021790555033600760006101000a81548173ffffffffffffffffffffffffffffffffffffffff021916908373ffffffffffffffffffffffffffffffffffffffff160217905550620000f66000801b336200016660201b60201c565b50620001297f9f2df0fed2c77648de5860a4cc508cd0818c85b8b8a1ab4ceeef8d981c8956a6336200016660201b60201c565b506200015c7fa49807205ce4d355092ef5a8a18f56e8913cf4a201fbe287825b095693c21775336200016660201b60201c565b50505050620008a1565b60006200017a83836200026a60201b60201c565b6200025f5760016005600085815260200190815260200160002060000160008473ffffffffffffffffffffffffffffffffffffffff1673ffffffffffffffffffffffffffffffffffffffff16815260200190815260200160002060006101000a81548160ff021916908315150217905550620001fb620002d560201b60201c565b73ffffffffffffffffffffffffffffffffffffffff168273ffffffffffffffffffffffffffffffffffffffff16847f2f8788117e7eff1d82e926ec794901d17c78024a50270940304540a733656f0d60405160405180910390a46001905062000264565b600090505b92915050565b60006005600084815260200190815260200160002060000160008373ffffffffffffffffffffffffffffffffffffffff1673ffffffffffffffffffffffffffffffffffffffff16815260200190815260200160002060009054906101000a900460ff16905092915050565b600033905090565b6000604051905090565b600080fd5b600080fd5b600080fd5b600080fd5b6000601f19601f8301169050919050565b7f4e487b7100000000000000000000000000000000000000000000000000000000600052604160045260246000fd5b6200034682620002fb565b810181811067ffffffffffffffff821117156200036857620003676200030c565b5b80604052505050565b60006200037d620002dd565b90506200038b82826200033b565b919050565b600067ffffffffffffffff821115620003ae57620003ad6200030c565b5b620003b982620002fb565b9050602081019050919050565b60005b83811015620003e6578082015181840152602081019050620003c9565b60008484015250505050565b600062000409620004038462000390565b62000371565b905082815260208101848484011115620004285762000427620002f6565b5b62000435848285620003c6565b509392505050565b600082601f830112620004555762000454620002f1565b5b815162000467848260208601620003f2565b91505092915050565b600073ffffffffffffffffffffffffffffffffffffffff82169050919050565b60006200049d8262000470565b9050919050565b620004af8162000490565b8114620004bb57600080fd5b50565b600081519050620004cf81620004a4565b92915050565b600080600060608486031215620004f157620004f0620002e7565b5b600084015167ffffffffffffffff811115620005125762000511620002ec565b5b62000520868287016200043d565b935050602084015167ffffffffffffffff811115620005445762000543620002ec565b5b62000552868287016200043d565b92505060406200056586828701620004be565b9150509250925092565b600081519050919050565b7f4e487b7100000000000000000000000000000000000000000000000000000000600052602260045260246000fd5b60006002820490506001821680620005c257607f821691505b602082108103620005d857620005d76200057a565b5b50919050565b60008190508160005260206000209050919050565b60006020601f8301049050919050565b600082821b905092915050565b600060088302620006427fffffffffffffffffffffffffffffffffffffffffffffffffffffffffffffffff8262000603565b6200064e868362000603565b95508019841693508086168417925050509392505050565b6000819050919050565b6000819050919050565b60006200069b620006956200068f8462000666565b62000670565b62000666565b9050919050565b6000819050919050565b620006b7836200067a565b620006cf620006c682620006a2565b84845462000610565b825550505050565b600090565b620006e6620006d7565b620006f3818484620006ac565b505050565b5b818110156200071b576200070f600082620006dc565b600181019050620006f9565b5050565b601f8211156200076a576200073481620005de565b6200073f84620005f3565b810160208510156200074f578190505b620007676200075e85620005f3565b830182620006f8565b50505b505050565b600082821c905092915050565b60006200078f600019846008026200076f565b1980831691505092915050565b6000620007aa83836200077c565b9150826002028217905092915050565b620007c5826200056f565b67ffffffffffffffff811115620007e157620007e06200030c565b5b620007ed8254620005a9565b620007fa8282856200071f565b600060209050601f8311600181146200083257600084156200081d578287015190505b6200082985826200079c565b86555062000899565b601f1984166200084286620005de565b60005b828110156200086c5784890151825560018201915060208501945060208101905062000845565b868310156200088c578489015162000888601f8916826200077c565b8355505b6001600288020188555050505b505050505050565b61219880620008b16000396000f3fe608060405234801561001057600080fd5b50600436106101a95760003560e01c806369e2f0fb116100f9578063a9059cbb11610097578063d547741f11610071578063d547741f146104e4578063d7f7582c14610500578063dcd27c9e1461051e578063dd62ed3e1461053a576101a9565b8063a9059cbb14610478578063bea4dfb5146104a8578063d5391393146104c6576101a9565b80638da5cb5b116100d35780638da5cb5b146103ee57806391d148541461040c57806395d89b411461043c578063a217fddf1461045a576101a9565b806369e2f0fb1461038457806370a08231146103a057806375b238fc146103d0576101a9565b80632f2ff15d1161016657806336568abe1161014057806336568abe146103005780633dd1eb611461031c5780633f64524d146103385780634eec552e14610368576101a9565b80632f2ff15d146102aa578063313ce567146102c65780633184b9fd146102e4576101a9565b806301ffc9a7146101ae57806306fdde03146101de578063095ea7b3146101fc57806318160ddd1461022c57806323b872dd1461024a578063248a9ca31461027a575b600080fd5b6101c860048036038101906101c39190611808565b61056a565b6040516101d59190611850565b60405180910390f35b6101e66105e4565b6040516101f391906118fb565b60405180910390f35b610216600480360381019061021191906119b1565b610676565b6040516102239190611850565b60405180910390f35b610234610699565b6040516102419190611a00565b60405180910390f35b610264600480360381019061025f9190611a1b565b6106a3565b6040516102719190611850565b60405180910390f35b610294600480360381019061028f9190611aa4565b6106d2565b6040516102a19190611ae0565b60405180910390f35b6102c460048036038101906102bf9190611afb565b6106f2565b005b6102ce610714565b6040516102db9190611b57565b60405180910390f35b6102fe60048036038101906102f99190611a1b565b61071d565b005b61031a60048036038101906103159190611afb565b610758565b005b61033660048036038101906103319190611b72565b6107d3565b005b610352600480360381019061034d91906119b1565b610801565b60405161035f9190611850565b60405180910390f35b610382600480360381019061037d9190611b9f565b610818565b005b61039e60048036038101906103999190611b72565b61092c565b005b6103ba60048036038101906103b59190611b72565b61095a565b6040516103c79190611a00565b60405180910390f35b6103d86109a2565b6040516103e59190611ae0565b60405180910390f35b6103f66109c6565b6040516104039190611bdb565b60405180910390f35b61042660048036038101906104219190611afb565b6109ec565b6040516104339190611850565b60405180910390f35b610444610a57565b60405161045191906118fb565b60405180910390f35b610462610ae9565b60405161046f9190611ae0565b60405180910390f35b610492600480360381019061048d91906119b1565b610af0565b60405161049f9190611850565b60405180910390f35b6104b0610b13565b6040516104bd9190611c0f565b60405180910390f35b6104ce610bb4565b6040516104db9190611ae0565b60405180910390f35b6104fe60048036038101906104f99190611afb565b610bd8565b005b610508610bfa565b6040516105159190611a00565b60405180910390f35b61053860048036038101906105339190611b9f565b610d05565b005b610554600480360381019061054f9190611c2a565b610dce565b6040516105619190611a00565b60405180910390f35b60007f7965db0b000000000000000000000000000000000000000000000000000000007bffffffffffffffffffffffffffffffffffffffffffffffffffffffff1916827bffffffffffffffffffffffffffffffffffffffffffffffffffffffff191614806105dd57506105dc82610e55565b5b9050919050565b6060600380546105f390611c99565b80601f016020809104026020016040519081016040528092919081815260200182805461061f90611c99565b801561066c5780601f106106415761010080835404028352916020019161066c565b820191906000526020600020905b81548152906001019060200180831161064f57829003601f168201915b5050505050905090565b600080610681610ebf565b905061068e818585610ec7565b600191505092915050565b6000600254905090565b6000806106ae610ebf565b90506106bb858285610ed9565b6106c6858585610f6d565b60019150509392505050565b600060056000838152602001908152602001600020600101549050919050565b6106fb826106d2565b61070481611061565b61070e8383611075565b50505050565b60006012905090565b7f9f2df0fed2c77648de5860a4cc508cd0818c85b8b8a1ab4ceeef8d981c8956a661074781611061565b610752848484610f6d565b50505050565b610760610ebf565b73ffffffffffffffffffffffffffffffffffffffff168173ffffffffffffffffffffffffffffffffffffffff16146107c4576040517f6697b23200000000000000000000000000000000000000000000000000000000815260040160405180910390fd5b6107ce8282611167565b505050565b6107fd7f9f2df0fed2c77648de5860a4cc508cd0818c85b8b8a1ab4ceeef8d981c8956a682611075565b5050565b600061080e338484610f6d565b6001905092915050565b7f9f2df0fed2c77648de5860a4cc508cd0818c85b8b8a1ab4ceeef8d981c8956a661084281611061565b60008211610885576040517f08c379a000000000000000000000000000000000000000000000000000000000815260040161087c90611d3c565b60405180910390fd5b8161088f3361095a565b10156108d0576040517f08c379a00000000000000000000000000000000000000000000000000000000081526004016108c790611da8565b60405180910390fd5b6108da338361125a565b3373ffffffffffffffffffffffffffffffffffffffff167fcc16f5dbb4873280815c1ee09dbd06736cffcc184412cf7a71a0fdb75d397ca5836040516109209190611a00565b60405180910390a25050565b6109567f9f2df0fed2c77648de5860a4cc508cd0818c85b8b8a1ab4ceeef8d981c8956a682611167565b5050565b60008060008373ffffffffffffffffffffffffffffffffffffffff1673ffffffffffffffffffffffffffffffffffffffff168152602001908152602001600020549050919050565b7fa49807205ce4d355092ef5a8a18f56e8913cf4a201fbe287825b095693c2177581565b600760009054906101000a900473ffffffffffffffffffffffffffffffffffffffff1681565b60006005600084815260200190815260200160002060000160008373ffffffffffffffffffffffffffffffffffffffff1673ffffffffffffffffffffffffffffffffffffffff16815260200190815260200160002060009054906101000a900460ff16905092915050565b606060048054610a6690611c99565b80601f0160208091040260200160405190810160405280929190818152602001828054610a9290611c99565b8015610adf5780601f10610ab457610100808354040283529160200191610adf565b820191906000526020600020905b815481529060010190602001808311610ac257829003601f168201915b5050505050905090565b6000801b81565b600080610afb610ebf565b9050610b08818585610f6d565b600191505092915050565b600080600660009054906101000a900473ffffffffffffffffffffffffffffffffffffffff1673ffffffffffffffffffffffffffffffffffffffff1663feaf968c6040518163ffffffff1660e01b815260040160a060405180830381865afa158015610b83573d6000803e3d6000fd5b505050506040513d601f19601f82011682018060405250810190610ba79190611e4b565b5050509150508091505090565b7f9f2df0fed2c77648de5860a4cc508cd0818c85b8b8a1ab4ceeef8d981c8956a681565b610be1826106d2565b610bea81611061565b610bf48383611167565b50505050565b600080600660009054906101000a900473ffffffffffffffffffffffffffffffffffffffff1673ffffffffffffffffffffffffffffffffffffffff1663feaf968c6040518163ffffffff1660e01b815260040160a060405180830381865afa158015610c6a573d6000803e3d6000fd5b505050506040513d601f19601f82011682018060405250810190610c8e9190611e4b565b50505091505060008113610cd7576040517f08c379a0000000000000000000000000000000000000000000000000000000008152600401610cce90611f12565b60405180910390fd5b6000610ce1610699565b9050806305f5e10083610cf49190611f90565b610cfe9190611ffa565b9250505090565b7f9f2df0fed2c77648de5860a4cc508cd0818c85b8b8a1ab4ceeef8d981c8956a6610d2f81611061565b60008211610d72576040517f08c379a0000000000000000000000000000000000000000000000000000000008152600401610d69906120ae565b60405180910390fd5b610d7c33836112dc565b3373ffffffffffffffffffffffffffffffffffffffff167f0f6798a560793a54c3bcfe86a93cde1e73087d944c0ea20544137d412139688583604051610dc29190611a00565b60405180910390a25050565b6000600160008473ffffffffffffffffffffffffffffffffffffffff1673ffffffffffffffffffffffffffffffffffffffff16815260200190815260200160002060008373ffffffffffffffffffffffffffffffffffffffff1673ffffffffffffffffffffffffffffffffffffffff16815260200190815260200160002054905092915050565b60007f01ffc9a7000000000000000000000000000000000000000000000000000000007bffffffffffffffffffffffffffffffffffffffffffffffffffffffff1916827bffffffffffffffffffffffffffffffffffffffffffffffffffffffff1916149050919050565b600033905090565b610ed4838383600161135e565b505050565b6000610ee58484610dce565b90507fffffffffffffffffffffffffffffffffffffffffffffffffffffffffffffffff8114610f675781811015610f57578281836040517ffb8f41b2000000000000000000000000000000000000000000000000000000008152600401610f4e939291906120ce565b60405180910390fd5b610f668484848403600061135e565b5b50505050565b600073ffffffffffffffffffffffffffffffffffffffff168373ffffffffffffffffffffffffffffffffffffffff1603610fdf5760006040517f96c6fd1e000000000000000000000000000000000000000000000000000000008152600401610fd69190611bdb565b60405180910390fd5b600073ffffffffffffffffffffffffffffffffffffffff168273ffffffffffffffffffffffffffffffffffffffff16036110515760006040517fec442f050000000000000000000000000000000000000000000000000000000081526004016110489190611bdb565b60405180910390fd5b61105c838383611535565b505050565b6110728161106d610ebf565b61175a565b50565b600061108183836109ec565b61115c5760016005600085815260200190815260200160002060000160008473ffffffffffffffffffffffffffffffffffffffff1673ffffffffffffffffffffffffffffffffffffffff16815260200190815260200160002060006101000a81548160ff0219169083151502179055506110f9610ebf565b73ffffffffffffffffffffffffffffffffffffffff168273ffffffffffffffffffffffffffffffffffffffff16847f2f8788117e7eff1d82e926ec794901d17c78024a50270940304540a733656f0d60405160405180910390a460019050611161565b600090505b92915050565b600061117383836109ec565b1561124f5760006005600085815260200190815260200160002060000160008473ffffffffffffffffffffffffffffffffffffffff1673ffffffffffffffffffffffffffffffffffffffff16815260200190815260200160002060006101000a81548160ff0219169083151502179055506111ec610ebf565b73ffffffffffffffffffffffffffffffffffffffff168273ffffffffffffffffffffffffffffffffffffffff16847ff6391f5c32d9c69d2a47ea670b442974b53935d1edc7fd64eb21e047a839171b60405160405180910390a460019050611254565b600090505b92915050565b600073ffffffffffffffffffffffffffffffffffffffff168273ffffffffffffffffffffffffffffffffffffffff16036112cc5760006040517f96c6fd1e0000000000000000000000000000000000000000000000000000000081526004016112c39190611bdb565b60405180910390fd5b6112d882600083611535565b5050565b600073ffffffffffffffffffffffffffffffffffffffff168273ffffffffffffffffffffffffffffffffffffffff160361134e5760006040517fec442f050000000000000000000000000000000000000000000000000000000081526004016113459190611bdb565b60405180910390fd5b61135a60008383611535565b5050565b600073ffffffffffffffffffffffffffffffffffffffff168473ffffffffffffffffffffffffffffffffffffffff16036113d05760006040517fe602df050000000000000000000000000000000000000000000000000000000081526004016113c79190611bdb565b60405180910390fd5b600073ffffffffffffffffffffffffffffffffffffffff168373ffffffffffffffffffffffffffffffffffffffff16036114425760006040517f94280d620000000000000000000000000000000000000000000000000000000081526004016114399190611bdb565b60405180910390fd5b81600160008673ffffffffffffffffffffffffffffffffffffffff1673ffffffffffffffffffffffffffffffffffffffff16815260200190815260200160002060008573ffffffffffffffffffffffffffffffffffffffff1673ffffffffffffffffffffffffffffffffffffffff16815260200190815260200160002081905550801561152f578273ffffffffffffffffffffffffffffffffffffffff168473ffffffffffffffffffffffffffffffffffffffff167f8c5be1e5ebec7d5bd14f71427d1e84f3dd0314c0f7b2291e5b200ac8c7c3b925846040516115269190611a00565b60405180910390a35b50505050565b600073ffffffffffffffffffffffffffffffffffffffff168373ffffffffffffffffffffffffffffffffffffffff160361158757806002600082825461157b9190612105565b9250508190555061165a565b60008060008573ffffffffffffffffffffffffffffffffffffffff1673ffffffffffffffffffffffffffffffffffffffff16815260200190815260200160002054905081811015611613578381836040517fe450d38c00000000000000000000000000000000000000000000000000000000815260040161160a939291906120ce565b60405180910390fd5b8181036000808673ffffffffffffffffffffffffffffffffffffffff1673ffffffffffffffffffffffffffffffffffffffff16815260200190815260200160002081905550505b600073ffffffffffffffffffffffffffffffffffffffff168273ffffffffffffffffffffffffffffffffffffffff16036116a357806002600082825403925050819055506116f0565b806000808473ffffffffffffffffffffffffffffffffffffffff1673ffffffffffffffffffffffffffffffffffffffff168152602001908152602001600020600082825401925050819055505b8173ffffffffffffffffffffffffffffffffffffffff168373ffffffffffffffffffffffffffffffffffffffff167fddf252ad1be2c89b69c2b068fc378daa952ba7f163c4a11628f55a4df523b3ef8360405161174d9190611a00565b60405180910390a3505050565b61176482826109ec565b6117a75780826040517fe2517d3f00000000000000000000000000000000000000000000000000000000815260040161179e929190612139565b60405180910390fd5b5050565b600080fd5b60007fffffffff0000000000000000000000000000000000000000000000000000000082169050919050565b6117e5816117b0565b81146117f057600080fd5b50565b600081359050611802816117dc565b92915050565b60006020828403121561181e5761181d6117ab565b5b600061182c848285016117f3565b91505092915050565b60008115159050919050565b61184a81611835565b82525050565b60006020820190506118656000830184611841565b92915050565b600081519050919050565b600082825260208201905092915050565b60005b838110156118a557808201518184015260208101905061188a565b60008484015250505050565b6000601f19601f8301169050919050565b60006118cd8261186b565b6118d78185611876565b93506118e7818560208601611887565b6118f0816118b1565b840191505092915050565b6000602082019050818103600083015261191581846118c2565b905092915050565b600073ffffffffffffffffffffffffffffffffffffffff82169050919050565b60006119488261191d565b9050919050565b6119588161193d565b811461196357600080fd5b50565b6000813590506119758161194f565b92915050565b6000819050919050565b61198e8161197b565b811461199957600080fd5b50565b6000813590506119ab81611985565b92915050565b600080604083850312156119c8576119c76117ab565b5b60006119d685828601611966565b92505060206119e78582860161199c565b9150509250929050565b6119fa8161197b565b82525050565b6000602082019050611a1560008301846119f1565b92915050565b600080600060608486031215611a3457611a336117ab565b5b6000611a4286828701611966565b9350506020611a5386828701611966565b9250506040611a648682870161199c565b9150509250925092565b6000819050919050565b611a8181611a6e565b8114611a8c57600080fd5b50565b600081359050611a9e81611a78565b92915050565b600060208284031215611aba57611ab96117ab565b5b6000611ac884828501611a8f565b91505092915050565b611ada81611a6e565b82525050565b6000602082019050611af56000830184611ad1565b92915050565b60008060408385031215611b1257611b116117ab565b5b6000611b2085828601611a8f565b9250506020611b3185828601611966565b9150509250929050565b600060ff82169050919050565b611b5181611b3b565b82525050565b6000602082019050611b6c6000830184611b48565b92915050565b600060208284031215611b8857611b876117ab565b5b6000611b9684828501611966565b91505092915050565b600060208284031215611bb557611bb46117ab565b5b6000611bc38482850161199c565b91505092915050565b611bd58161193d565b82525050565b6000602082019050611bf06000830184611bcc565b92915050565b6000819050919050565b611c0981611bf6565b82525050565b6000602082019050611c246000830184611c00565b92915050565b60008060408385031215611c4157611c406117ab565b5b6000611c4f85828601611966565b9250506020611c6085828601611966565b9150509250929050565b7f4e487b7100000000000000000000000000000000000000000000000000000000600052602260045260246000fd5b60006002820490506001821680611cb157607f821691505b602082108103611cc457611cc3611c6a565b5b50919050565b7f4275726e20616d6f756e74206d7573742062652067726561746572207468616e60008201527f207a65726f000000000000000000000000000000000000000000000000000000602082015250565b6000611d26602583611876565b9150611d3182611cca565b604082019050919050565b60006020820190508181036000830152611d5581611d19565b9050919050565b7f496e73756666696369656e7420436f696e476f6c642062616c616e6365000000600082015250565b6000611d92601d83611876565b9150611d9d82611d5c565b602082019050919050565b60006020820190508181036000830152611dc181611d85565b9050919050565b600069ffffffffffffffffffff82169050919050565b611de781611dc8565b8114611df257600080fd5b50565b600081519050611e0481611dde565b92915050565b611e1381611bf6565b8114611e1e57600080fd5b50565b600081519050611e3081611e0a565b92915050565b600081519050611e4581611985565b92915050565b600080600080600060a08688031215611e6757611e666117ab565b5b6000611e7588828901611df5565b9550506020611e8688828901611e21565b9450506040611e9788828901611e36565b9350506060611ea888828901611e36565b9250506080611eb988828901611df5565b9150509295509295909350565b7f496e76616c696420676f6c642070726963650000000000000000000000000000600082015250565b6000611efc601283611876565b9150611f0782611ec6565b602082019050919050565b60006020820190508181036000830152611f2b81611eef565b9050919050565b7f4e487b7100000000000000000000000000000000000000000000000000000000600052601260045260246000fd5b7f4e487b7100000000000000000000000000000000000000000000000000000000600052601160045260246000fd5b6000611f9b82611bf6565b9150611fa683611bf6565b925082611fb657611fb5611f32565b5b600160000383147f800000000000000000000000000000000000000000000000000000000000000083141615611fef57611fee611f61565b5b828205905092915050565b60006120058261197b565b91506120108361197b565b925082820261201e8161197b565b9150828204841483151761203557612034611f61565b5b5092915050565b7f4d696e7420616d6f756e74206d7573742062652067726561746572207468616e60008201527f207a65726f000000000000000000000000000000000000000000000000000000602082015250565b6000612098602583611876565b91506120a38261203c565b604082019050919050565b600060208201905081810360008301526120c78161208b565b9050919050565b60006060820190506120e36000830186611bcc565b6120f060208301856119f1565b6120fd60408301846119f1565b949350505050565b60006121108261197b565b915061211b8361197b565b925082820190508082111561213357612132611f61565b5b92915050565b600060408201905061214e6000830185611bcc565b61215b6020830184611ad1565b939250505056fea26469706673582212200b2fa3aeadd969ac22a9faafb59306359441e9189f43b30bc36bdcffa158982a64736f6c63430008140033",
  "linkReferences": {},
  "deployedLinkReferences": {}
}