{
    "_format": "hh-sol-artifact-1",
    "contractName": "CoinDollar",
    "sourceName": "contracts/CoinDollar.sol",
    "abi": [
        {
            "inputs": [
                {
                    "internalType": "string",
                    "name": "name",
                    "type": "string"
                },
                {
                    "internalType": "string",
                    "name": "symbol",
                    "type": "string"
                },
                {
                    "internalType": "address",
                    "name": "_coinGoldAddress",
                    "type": "address"
                },
                {
                    "internalType": "address",
                    "name": "_goldPriceFeed",
                    "type": "address"
                }
            ],
            "stateMutability": "nonpayable",
            "type": "constructor"
        },
        {
            "inputs": [],
            "name": "AccessControlBadConfirmation",
            "type": "error"
        },
        {
            "inputs": [
                {
                    "internalType": "address",
                    "name": "account",
                    "type": "address"
                },
                {
                    "internalType": "bytes32",
                    "name": "neededRole",
                    "type": "bytes32"
                }
            ],
            "name": "AccessControlUnauthorizedAccount",
            "type": "error"
        },
        {
            "inputs": [
                {
                    "internalType": "address",
                    "name": "spender",
                    "type": "address"
                },
                {
                    "internalType": "uint256",
                    "name": "allowance",
                    "type": "uint256"
                },
                {
                    "internalType": "uint256",
                    "name": "needed",
                    "type": "uint256"
                }
            ],
            "name": "ERC20InsufficientAllowance",
            "type": "error"
        },
        {
            "inputs": [
                {
                    "internalType": "address",
                    "name": "sender",
                    "type": "address"
                },
                {
                    "internalType": "uint256",
                    "name": "balance",
                    "type": "uint256"
                },
                {
                    "internalType": "uint256",
                    "name": "needed",
                    "type": "uint256"
                }
            ],
            "name": "ERC20InsufficientBalance",
            "type": "error"
        },
        {
            "inputs": [
                {
                    "internalType": "address",
                    "name": "approver",
                    "type": "address"
                }
            ],
            "name": "ERC20InvalidApprover",
            "type": "error"
        },
        {
            "inputs": [
                {
                    "internalType": "address",
                    "name": "receiver",
                    "type": "address"
                }
            ],
            "name": "ERC20InvalidReceiver",
            "type": "error"
        },
        {
            "inputs": [
                {
                    "internalType": "address",
                    "name": "sender",
                    "type": "address"
                }
            ],
            "name": "ERC20InvalidSender",
            "type": "error"
        },
        {
            "inputs": [
                {
                    "internalType": "address",
                    "name": "spender",
                    "type": "address"
                }
            ],
            "name": "ERC20InvalidSpender",
            "type": "error"
        },
        {
            "anonymous": false,
            "inputs": [
                {
                    "indexed": true,
                    "internalType": "address",
                    "name": "owner",
                    "type": "address"
                },
                {
                    "indexed": true,
                    "internalType": "address",
                    "name": "spender",
                    "type": "address"
                },
                {
                    "indexed": false,
                    "internalType": "uint256",
                    "name": "value",
                    "type": "uint256"
                }
            ],
            "name": "Approval",
            "type": "event"
        },
        {
            "anonymous": false,
            "inputs": [
                {
                    "indexed": true,
                    "internalType": "bytes32",
                    "name": "role",
                    "type": "bytes32"
                },
                {
                    "indexed": true,
                    "internalType": "bytes32",
                    "name": "previousAdminRole",
                    "type": "bytes32"
                },
                {
                    "indexed": true,
                    "internalType": "bytes32",
                    "name": "newAdminRole",
                    "type": "bytes32"
                }
            ],
            "name": "RoleAdminChanged",
            "type": "event"
        },
        {
            "anonymous": false,
            "inputs": [
                {
                    "indexed": true,
                    "internalType": "bytes32",
                    "name": "role",
                    "type": "bytes32"
                },
                {
                    "indexed": true,
                    "internalType": "address",
                    "name": "account",
                    "type": "address"
                },
                {
                    "indexed": true,
                    "internalType": "address",
                    "name": "sender",
                    "type": "address"
                }
            ],
            "name": "RoleGranted",
            "type": "event"
        },
        {
            "anonymous": false,
            "inputs": [
                {
                    "indexed": true,
                    "internalType": "bytes32",
                    "name": "role",
                    "type": "bytes32"
                },
                {
                    "indexed": true,
                    "internalType": "address",
                    "name": "account",
                    "type": "address"
                },
                {
                    "indexed": true,
                    "internalType": "address",
                    "name": "sender",
                    "type": "address"
                }
            ],
            "name": "RoleRevoked",
            "type": "event"
        },
        {
            "anonymous": false,
            "inputs": [
                {
                    "indexed": true,
                    "internalType": "address",
                    "name": "from",
                    "type": "address"
                },
                {
                    "indexed": true,
                    "internalType": "address",
                    "name": "to",
                    "type": "address"
                },
                {
                    "indexed": false,
                    "internalType": "uint256",
                    "name": "value",
                    "type": "uint256"
                }
            ],
            "name": "Transfer",
            "type": "event"
        },
        {
            "inputs": [],
            "name": "ADMIN_ROLE",
            "outputs": [
                {
                    "internalType": "bytes32",
                    "name": "",
                    "type": "bytes32"
                }
            ],
            "stateMutability": "view",
            "type": "function"
        },
        {
            "inputs": [],
            "name": "DEFAULT_ADMIN_ROLE",
            "outputs": [
                {
                    "internalType": "bytes32",
                    "name": "",
                    "type": "bytes32"
                }
            ],
            "stateMutability": "view",
            "type": "function"
        },
        {
            "inputs": [],
            "name": "MINTER_ROLE",
            "outputs": [
                {
                    "internalType": "bytes32",
                    "name": "",
                    "type": "bytes32"
                }
            ],
            "stateMutability": "view",
            "type": "function"
        },
        {
            "inputs": [],
            "name": "adjustSupply",
            "outputs": [],
            "stateMutability": "nonpayable",
            "type": "function"
        },
        {
            "inputs": [
                {
                    "internalType": "address",
                    "name": "owner",
                    "type": "address"
                },
                {
                    "internalType": "address",
                    "name": "spender",
                    "type": "address"
                }
            ],
            "name": "allowance",
            "outputs": [
                {
                    "internalType": "uint256",
                    "name": "",
                    "type": "uint256"
                }
            ],
            "stateMutability": "view",
            "type": "function"
        },
        {
            "inputs": [
                {
                    "internalType": "address",
                    "name": "spender",
                    "type": "address"
                },
                {
                    "internalType": "uint256",
                    "name": "value",
                    "type": "uint256"
                }
            ],
            "name": "approve",
            "outputs": [
                {
                    "internalType": "bool",
                    "name": "",
                    "type": "bool"
                }
            ],
            "stateMutability": "nonpayable",
            "type": "function"
        },
        {
            "inputs": [
                {
                    "internalType": "address",
                    "name": "account",
                    "type": "address"
                }
            ],
            "name": "balanceOf",
            "outputs": [
                {
                    "internalType": "uint256",
                    "name": "",
                    "type": "uint256"
                }
            ],
            "stateMutability": "view",
            "type": "function"
        },
        {
            "inputs": [
                {
                    "internalType": "uint256",
                    "name": "amount",
                    "type": "uint256"
                }
            ],
            "name": "burn",
            "outputs": [],
            "stateMutability": "nonpayable",
            "type": "function"
        },
        {
            "inputs": [
                {
                    "internalType": "uint256",
                    "name": "amount",
                    "type": "uint256"
                }
            ],
            "name": "burnCoinGold",
            "outputs": [],
            "stateMutability": "nonpayable",
            "type": "function"
        },
        {
            "inputs": [
                {
                    "internalType": "bytes",
                    "name": "",
                    "type": "bytes"
                }
            ],
            "name": "checkUpkeep",
            "outputs": [
                {
                    "internalType": "bool",
                    "name": "upkeepNeeded",
                    "type": "bool"
                },
                {
                    "internalType": "bytes",
                    "name": "performData",
                    "type": "bytes"
                }
            ],
            "stateMutability": "view",
            "type": "function"
        },
        {
            "inputs": [],
            "name": "coinGold",
            "outputs": [
                {
                    "internalType": "contract CoinGold",
                    "name": "",
                    "type": "address"
                }
            ],
            "stateMutability": "view",
            "type": "function"
        },
        {
            "inputs": [],
            "name": "decimals",
            "outputs": [
                {
                    "internalType": "uint8",
                    "name": "",
                    "type": "uint8"
                }
            ],
            "stateMutability": "view",
            "type": "function"
        },
        {
            "inputs": [],
            "name": "getGoldCoinTotalCapitalization",
            "outputs": [
                {
                    "internalType": "uint256",
                    "name": "",
                    "type": "uint256"
                }
            ],
            "stateMutability": "view",
            "type": "function"
        },
        {
            "inputs": [],
            "name": "getGoldPrice",
            "outputs": [
                {
                    "internalType": "uint256",
                    "name": "",
                    "type": "uint256"
                }
            ],
            "stateMutability": "view",
            "type": "function"
        },
        {
            "inputs": [
                {
                    "internalType": "bytes32",
                    "name": "role",
                    "type": "bytes32"
                }
            ],
            "name": "getRoleAdmin",
            "outputs": [
                {
                    "internalType": "bytes32",
                    "name": "",
                    "type": "bytes32"
                }
            ],
            "stateMutability": "view",
            "type": "function"
        },
        {
            "inputs": [
                {
                    "internalType": "address",
                    "name": "account",
                    "type": "address"
                }
            ],
            "name": "grantMinterRole",
            "outputs": [],
            "stateMutability": "nonpayable",
            "type": "function"
        },
        {
            "inputs": [],
            "name": "grantMinterRoleInCoinGold",
            "outputs": [],
            "stateMutability": "nonpayable",
            "type": "function"
        },
        {
            "inputs": [
                {
                    "internalType": "bytes32",
                    "name": "role",
                    "type": "bytes32"
                },
                {
                    "internalType": "address",
                    "name": "account",
                    "type": "address"
                }
            ],
            "name": "grantRole",
            "outputs": [],
            "stateMutability": "nonpayable",
            "type": "function"
        },
        {
            "inputs": [
                {
                    "internalType": "bytes32",
                    "name": "role",
                    "type": "bytes32"
                },
                {
                    "internalType": "address",
                    "name": "account",
                    "type": "address"
                }
            ],
            "name": "hasRole",
            "outputs": [
                {
                    "internalType": "bool",
                    "name": "",
                    "type": "bool"
                }
            ],
            "stateMutability": "view",
            "type": "function"
        },
        {
            "inputs": [],
            "name": "lastAdjustmentTimestamp",
            "outputs": [
                {
                    "internalType": "uint256",
                    "name": "",
                    "type": "uint256"
                }
            ],
            "stateMutability": "view",
            "type": "function"
        },
        {
            "inputs": [],
            "name": "maximumBackingValue",
            "outputs": [
                {
                    "internalType": "uint256",
                    "name": "",
                    "type": "uint256"
                }
            ],
            "stateMutability": "view",
            "type": "function"
        },
        {
            "inputs": [],
            "name": "minimumBackingValue",
            "outputs": [
                {
                    "internalType": "uint256",
                    "name": "",
                    "type": "uint256"
                }
            ],
            "stateMutability": "view",
            "type": "function"
        },
        {
            "inputs": [
                {
                    "internalType": "uint256",
                    "name": "amount",
                    "type": "uint256"
                }
            ],
            "name": "mint",
            "outputs": [],
            "stateMutability": "nonpayable",
            "type": "function"
        },
        {
            "inputs": [
                {
                    "internalType": "uint256",
                    "name": "gramsOfGold",
                    "type": "uint256"
                }
            ],
            "name": "mintCoinGold",
            "outputs": [],
            "stateMutability": "nonpayable",
            "type": "function"
        },
        {
            "inputs": [],
            "name": "name",
            "outputs": [
                {
                    "internalType": "string",
                    "name": "",
                    "type": "string"
                }
            ],
            "stateMutability": "view",
            "type": "function"
        },
        {
            "inputs": [],
            "name": "owner",
            "outputs": [
                {
                    "internalType": "address",
                    "name": "",
                    "type": "address"
                }
            ],
            "stateMutability": "view",
            "type": "function"
        },
        {
            "inputs": [
                {
                    "internalType": "bytes",
                    "name": "",
                    "type": "bytes"
                }
            ],
            "name": "performUpkeep",
            "outputs": [],
            "stateMutability": "nonpayable",
            "type": "function"
        },
        {
            "inputs": [
                {
                    "internalType": "bytes32",
                    "name": "role",
                    "type": "bytes32"
                },
                {
                    "internalType": "address",
                    "name": "callerConfirmation",
                    "type": "address"
                }
            ],
            "name": "renounceRole",
            "outputs": [],
            "stateMutability": "nonpayable",
            "type": "function"
        },
        {
            "inputs": [],
            "name": "reserveRatio",
            "outputs": [
                {
                    "internalType": "uint256",
                    "name": "",
                    "type": "uint256"
                }
            ],
            "stateMutability": "view",
            "type": "function"
        },
        {
            "inputs": [
                {
                    "internalType": "address",
                    "name": "account",
                    "type": "address"
                }
            ],
            "name": "revokeMinterRole",
            "outputs": [],
            "stateMutability": "nonpayable",
            "type": "function"
        },
        {
            "inputs": [],
            "name": "revokeMinterRoleInCoinGold",
            "outputs": [],
            "stateMutability": "nonpayable",
            "type": "function"
        },
        {
            "inputs": [
                {
                    "internalType": "bytes32",
                    "name": "role",
                    "type": "bytes32"
                },
                {
                    "internalType": "address",
                    "name": "account",
                    "type": "address"
                }
            ],
            "name": "revokeRole",
            "outputs": [],
            "stateMutability": "nonpayable",
            "type": "function"
        },
        {
            "inputs": [
                {
                    "internalType": "bytes4",
                    "name": "interfaceId",
                    "type": "bytes4"
                }
            ],
            "name": "supportsInterface",
            "outputs": [
                {
                    "internalType": "bool",
                    "name": "",
                    "type": "bool"
                }
            ],
            "stateMutability": "view",
            "type": "function"
        },
        {
            "inputs": [],
            "name": "symbol",
            "outputs": [
                {
                    "internalType": "string",
                    "name": "",
                    "type": "string"
                }
            ],
            "stateMutability": "view",
            "type": "function"
        },
        {
            "inputs": [],
            "name": "totalSupply",
            "outputs": [
                {
                    "internalType": "uint256",
                    "name": "",
                    "type": "uint256"
                }
            ],
            "stateMutability": "view",
            "type": "function"
        },
        {
            "inputs": [
                {
                    "internalType": "address",
                    "name": "to",
                    "type": "address"
                },
                {
                    "internalType": "uint256",
                    "name": "value",
                    "type": "uint256"
                }
            ],
            "name": "transfer",
            "outputs": [
                {
                    "internalType": "bool",
                    "name": "",
                    "type": "bool"
                }
            ],
            "stateMutability": "nonpayable",
            "type": "function"
        },
        {
            "inputs": [
                {
                    "internalType": "address",
                    "name": "to",
                    "type": "address"
                },
                {
                    "internalType": "uint256",
                    "name": "amount",
                    "type": "uint256"
                }
            ],
            "name": "transferCoinDollar",
            "outputs": [
                {
                    "internalType": "bool",
                    "name": "",
                    "type": "bool"
                }
            ],
            "stateMutability": "nonpayable",
            "type": "function"
        },
        {
            "inputs": [
                {
                    "internalType": "address",
                    "name": "to",
                    "type": "address"
                },
                {
                    "internalType": "uint256",
                    "name": "amount",
                    "type": "uint256"
                }
            ],
            "name": "transferCoinGold",
            "outputs": [],
            "stateMutability": "nonpayable",
            "type": "function"
        },
        {
            "inputs": [
                {
                    "internalType": "address",
                    "name": "user",
                    "type": "address"
                },
                {
                    "internalType": "address",
                    "name": "recipient",
                    "type": "address"
                },
                {
                    "internalType": "uint256",
                    "name": "amount",
                    "type": "uint256"
                }
            ],
            "name": "transferCoinGoldFromUser",
            "outputs": [],
            "stateMutability": "nonpayable",
            "type": "function"
        },
        {
            "inputs": [
                {
                    "internalType": "address",
                    "name": "from",
                    "type": "address"
                },
                {
                    "internalType": "address",
                    "name": "to",
                    "type": "address"
                },
                {
                    "internalType": "uint256",
                    "name": "value",
                    "type": "uint256"
                }
            ],
            "name": "transferFrom",
            "outputs": [
                {
                    "internalType": "bool",
                    "name": "",
                    "type": "bool"
                }
            ],
            "stateMutability": "nonpayable",
            "type": "function"
        }
    ],
    "bytecode": "0x60806040523480156200001157600080fd5b50604051620036df380380620036df8339818101604052810190620000379190620005d7565b838381600390816200004a9190620008d2565b5080600490816200005c9190620008d2565b50505033600860006101000a81548173ffffffffffffffffffffffffffffffffffffffff021916908373ffffffffffffffffffffffffffffffffffffffff16021790555081600660006101000a81548173ffffffffffffffffffffffffffffffffffffffff021916908373ffffffffffffffffffffffffffffffffffffffff16021790555080600760006101000a81548173ffffffffffffffffffffffffffffffffffffffff021916908373ffffffffffffffffffffffffffffffffffffffff160217905550426009819055506014600a81905550600660009054906101000a900473ffffffffffffffffffffffffffffffffffffffff1673ffffffffffffffffffffffffffffffffffffffff1663d7f7582c6040518163ffffffff1660e01b8152600401602060405180830381865afa1580156200019f573d6000803e3d6000fd5b505050506040513d601f19601f82011682018060405250810190620001c59190620009ea565b600b819055506002600b54620001dc919062000a4b565b600c81905550620001f76000801b336200026860201b60201c565b506200022a7fa49807205ce4d355092ef5a8a18f56e8913cf4a201fbe287825b095693c21775336200026860201b60201c565b506200025d7f9f2df0fed2c77648de5860a4cc508cd0818c85b8b8a1ab4ceeef8d981c8956a6336200026860201b60201c565b505050505062000a83565b60006200027c83836200036c60201b60201c565b620003615760016005600085815260200190815260200160002060000160008473ffffffffffffffffffffffffffffffffffffffff1673ffffffffffffffffffffffffffffffffffffffff16815260200190815260200160002060006101000a81548160ff021916908315150217905550620002fd620003d760201b60201c565b73ffffffffffffffffffffffffffffffffffffffff168273ffffffffffffffffffffffffffffffffffffffff16847f2f8788117e7eff1d82e926ec794901d17c78024a50270940304540a733656f0d60405160405180910390a46001905062000366565b600090505b92915050565b60006005600084815260200190815260200160002060000160008373ffffffffffffffffffffffffffffffffffffffff1673ffffffffffffffffffffffffffffffffffffffff16815260200190815260200160002060009054906101000a900460ff16905092915050565b600033905090565b6000604051905090565b600080fd5b600080fd5b600080fd5b600080fd5b6000601f19601f8301169050919050565b7f4e487b7100000000000000000000000000000000000000000000000000000000600052604160045260246000fd5b6200044882620003fd565b810181811067ffffffffffffffff821117156200046a57620004696200040e565b5b80604052505050565b60006200047f620003df565b90506200048d82826200043d565b919050565b600067ffffffffffffffff821115620004b057620004af6200040e565b5b620004bb82620003fd565b9050602081019050919050565b60005b83811015620004e8578082015181840152602081019050620004cb565b60008484015250505050565b60006200050b620005058462000492565b62000473565b9050828152602081018484840111156200052a5762000529620003f8565b5b62000537848285620004c8565b509392505050565b600082601f830112620005575762000556620003f3565b5b815162000569848260208601620004f4565b91505092915050565b600073ffffffffffffffffffffffffffffffffffffffff82169050919050565b60006200059f8262000572565b9050919050565b620005b18162000592565b8114620005bd57600080fd5b50565b600081519050620005d181620005a6565b92915050565b60008060008060808587031215620005f457620005f3620003e9565b5b600085015167ffffffffffffffff811115620006155762000614620003ee565b5b62000623878288016200053f565b945050602085015167ffffffffffffffff811115620006475762000646620003ee565b5b62000655878288016200053f565b93505060406200066887828801620005c0565b92505060606200067b87828801620005c0565b91505092959194509250565b600081519050919050565b7f4e487b7100000000000000000000000000000000000000000000000000000000600052602260045260246000fd5b60006002820490506001821680620006da57607f821691505b602082108103620006f057620006ef62000692565b5b50919050565b60008190508160005260206000209050919050565b60006020601f8301049050919050565b600082821b905092915050565b6000600883026200075a7fffffffffffffffffffffffffffffffffffffffffffffffffffffffffffffffff826200071b565b6200076686836200071b565b95508019841693508086168417925050509392505050565b6000819050919050565b6000819050919050565b6000620007b3620007ad620007a7846200077e565b62000788565b6200077e565b9050919050565b6000819050919050565b620007cf8362000792565b620007e7620007de82620007ba565b84845462000728565b825550505050565b600090565b620007fe620007ef565b6200080b818484620007c4565b505050565b5b81811015620008335762000827600082620007f4565b60018101905062000811565b5050565b601f82111562000882576200084c81620006f6565b62000857846200070b565b8101602085101562000867578190505b6200087f62000876856200070b565b83018262000810565b50505b505050565b600082821c905092915050565b6000620008a76000198460080262000887565b1980831691505092915050565b6000620008c2838362000894565b9150826002028217905092915050565b620008dd8262000687565b67ffffffffffffffff811115620008f957620008f86200040e565b5b620009058254620006c1565b6200091282828562000837565b600060209050601f8311600181146200094a576000841562000935578287015190505b620009418582620008b4565b865550620009b1565b601f1984166200095a86620006f6565b60005b8281101562000984578489015182556001820191506020850194506020810190506200095d565b86831015620009a45784890151620009a0601f89168262000894565b8355505b6001600288020188555050505b505050505050565b620009c4816200077e565b8114620009d057600080fd5b50565b600081519050620009e481620009b9565b92915050565b60006020828403121562000a035762000a02620003e9565b5b600062000a1384828501620009d3565b91505092915050565b7f4e487b7100000000000000000000000000000000000000000000000000000000600052601260045260246000fd5b600062000a58826200077e565b915062000a65836200077e565b92508262000a785762000a7762000a1c565b5b828204905092915050565b612c4c8062000a936000396000f3fe608060405234801561001057600080fd5b50600436106102475760003560e01c806366dabc9a1161013b578063a217fddf116100b8578063d547741f1161007c578063d547741f146106cd578063da6bae10146106e9578063dcd27c9e14610707578063dd62ed3e14610723578063ea68d3761461075357610247565b8063a217fddf14610639578063a9059cbb14610657578063b355175d14610687578063c79e3bd1146106a5578063d5391393146106af57610247565b80638da5cb5b116100ff5780638da5cb5b1461059357806391d14854146105b157806395d89b41146105e15780639c841efe146105ff578063a0712d681461061d57610247565b806366dabc9a146104da57806369e2f0fb146104f85780636e04ff0d1461051457806370a082311461054557806375b238fc1461057557610247565b806323b872dd116101c95780633dd1eb611161018d5780633dd1eb611461044e5780633f64524d1461046a57806342966c68146104865780634585e33b146104a25780634eec552e146104be57610247565b806323b872dd14610398578063248a9ca3146103c85780632f2ff15d146103f8578063313ce5671461041457806336568abe1461043257610247565b806308d362931161021057806308d36293146102e0578063095ea7b3146103105780630c7d5cd81461034057806312cbdd211461035e57806318160ddd1461037a57610247565b80626fd09a1461024c57806301ffc9a7146102565780630338c4771461028657806306fdde03146102a45780630844969a146102c2575b600080fd5b61025461075d565b005b610270600480360381019061026b91906120e7565b6107fa565b60405161027d919061212f565b60405180910390f35b61028e610874565b60405161029b9190612163565b60405180910390f35b6102ac61087a565b6040516102b9919061220e565b60405180910390f35b6102ca61090c565b6040516102d791906122af565b60405180910390f35b6102fa60048036038101906102f59190612334565b610932565b604051610307919061212f565b60405180910390f35b61032a60048036038101906103259190612334565b610949565b604051610337919061212f565b60405180910390f35b61034861096c565b6040516103559190612163565b60405180910390f35b61037860048036038101906103739190612374565b610972565b005b610382610a08565b60405161038f9190612163565b60405180910390f35b6103b260048036038101906103ad9190612374565b610a12565b6040516103bf919061212f565b60405180910390f35b6103e260048036038101906103dd91906123fd565b610a41565b6040516103ef9190612439565b60405180910390f35b610412600480360381019061040d9190612454565b610a61565b005b61041c610a83565b60405161042991906124b0565b60405180910390f35b61044c60048036038101906104479190612454565b610a8c565b005b610468600480360381019061046391906124cb565b610b07565b005b610484600480360381019061047f9190612334565b610b42565b005b6104a0600480360381019061049b91906124f8565b610be7565b005b6104bc60048036038101906104b7919061258a565b610c1f565b005b6104d860048036038101906104d391906124f8565b610c2b565b005b6104e2610cbb565b6040516104ef9190612163565b60405180910390f35b610512600480360381019061050d91906124cb565b610cc1565b005b61052e6004803603810190610529919061258a565b610cfc565b60405161053c92919061262c565b60405180910390f35b61055f600480360381019061055a91906124cb565b610df3565b60405161056c9190612163565b60405180910390f35b61057d610e3b565b60405161058a9190612439565b60405180910390f35b61059b610e5f565b6040516105a8919061266b565b60405180910390f35b6105cb60048036038101906105c69190612454565b610e85565b6040516105d8919061212f565b60405180910390f35b6105e9610ef0565b6040516105f6919061220e565b60405180910390f35b610607610f82565b6040516106149190612163565b60405180910390f35b610637600480360381019061063291906124f8565b610f88565b005b610641610fc0565b60405161064e9190612439565b60405180910390f35b610671600480360381019061066c9190612334565b610fc7565b60405161067e919061212f565b60405180910390f35b61068f610fea565b60405161069c9190612163565b60405180910390f35b6106ad611082565b005b6106b761128d565b6040516106c49190612439565b60405180910390f35b6106e760048036038101906106e29190612454565b6112b1565b005b6106f16112d3565b6040516106fe9190612163565b60405180910390f35b610721600480360381019061071c91906124f8565b6113b7565b005b61073d60048036038101906107389190612686565b611447565b60405161074a9190612163565b60405180910390f35b61075b6114ce565b005b6000801b61076a81611503565b600660009054906101000a900473ffffffffffffffffffffffffffffffffffffffff1673ffffffffffffffffffffffffffffffffffffffff166369e2f0fb306040518263ffffffff1660e01b81526004016107c5919061266b565b600060405180830381600087803b1580156107df57600080fd5b505af11580156107f3573d6000803e3d6000fd5b5050505050565b60007f7965db0b000000000000000000000000000000000000000000000000000000007bffffffffffffffffffffffffffffffffffffffffffffffffffffffff1916827bffffffffffffffffffffffffffffffffffffffffffffffffffffffff1916148061086d575061086c82611517565b5b9050919050565b60095481565b606060038054610889906126f5565b80601f01602080910402602001604051908101604052809291908181526020018280546108b5906126f5565b80156109025780601f106108d757610100808354040283529160200191610902565b820191906000526020600020905b8154815290600101906020018083116108e557829003601f168201915b5050505050905090565b600660009054906101000a900473ffffffffffffffffffffffffffffffffffffffff1681565b600061093f338484611581565b6001905092915050565b600080610954611675565b905061096181858561167d565b600191505092915050565b600a5481565b600660009054906101000a900473ffffffffffffffffffffffffffffffffffffffff1673ffffffffffffffffffffffffffffffffffffffff16633184b9fd8484846040518463ffffffff1660e01b81526004016109d193929190612726565b600060405180830381600087803b1580156109eb57600080fd5b505af11580156109ff573d6000803e3d6000fd5b50505050505050565b6000600254905090565b600080610a1d611675565b9050610a2a85828561168f565b610a35858585611581565b60019150509392505050565b600060056000838152602001908152602001600020600101549050919050565b610a6a82610a41565b610a7381611503565b610a7d8383611723565b50505050565b60006012905090565b610a94611675565b73ffffffffffffffffffffffffffffffffffffffff168173ffffffffffffffffffffffffffffffffffffffff1614610af8576040517f6697b23200000000000000000000000000000000000000000000000000000000815260040160405180910390fd5b610b028282611815565b505050565b6000801b610b1481611503565b610b3e7f9f2df0fed2c77648de5860a4cc508cd0818c85b8b8a1ab4ceeef8d981c8956a683610a61565b5050565b600660009054906101000a900473ffffffffffffffffffffffffffffffffffffffff1673ffffffffffffffffffffffffffffffffffffffff16633f64524d83836040518363ffffffff1660e01b8152600401610b9f92919061275d565b6020604051808303816000875af1158015610bbe573d6000803e3d6000fd5b505050506040513d601f19601f82011682018060405250810190610be291906127b2565b505050565b7f9f2df0fed2c77648de5860a4cc508cd0818c85b8b8a1ab4ceeef8d981c8956a6610c1181611503565b610c1b3383611908565b5050565b610c2761198a565b5050565b600660009054906101000a900473ffffffffffffffffffffffffffffffffffffffff1673ffffffffffffffffffffffffffffffffffffffff16634eec552e826040518263ffffffff1660e01b8152600401610c869190612163565b600060405180830381600087803b158015610ca057600080fd5b505af1158015610cb4573d6000803e3d6000fd5b5050505050565b600c5481565b6000801b610cce81611503565b610cf87f9f2df0fed2c77648de5860a4cc508cd0818c85b8b8a1ab4ceeef8d981c8956a6836112b1565b5050565b600060606000600660009054906101000a900473ffffffffffffffffffffffffffffffffffffffff1673ffffffffffffffffffffffffffffffffffffffff166318160ddd6040518163ffffffff1660e01b8152600401602060405180830381865afa158015610d6f573d6000803e3d6000fd5b505050506040513d601f19601f82011682018060405250810190610d9391906127f4565b6305f5e100610da06112d3565b610daa919061287f565b610db491906128b0565b90506000816002610dc591906128b0565b610dcd610a08565b119050600082610ddb610a08565b1090508180610de75750805b94505050509250929050565b60008060008373ffffffffffffffffffffffffffffffffffffffff1673ffffffffffffffffffffffffffffffffffffffff168152602001908152602001600020549050919050565b7fa49807205ce4d355092ef5a8a18f56e8913cf4a201fbe287825b095693c2177581565b600860009054906101000a900473ffffffffffffffffffffffffffffffffffffffff1681565b60006005600084815260200190815260200160002060000160008373ffffffffffffffffffffffffffffffffffffffff1673ffffffffffffffffffffffffffffffffffffffff16815260200190815260200160002060009054906101000a900460ff16905092915050565b606060048054610eff906126f5565b80601f0160208091040260200160405190810160405280929190818152602001828054610f2b906126f5565b8015610f785780601f10610f4d57610100808354040283529160200191610f78565b820191906000526020600020905b815481529060010190602001808311610f5b57829003601f168201915b5050505050905090565b600b5481565b7f9f2df0fed2c77648de5860a4cc508cd0818c85b8b8a1ab4ceeef8d981c8956a6610fb281611503565b610fbc3383611bb6565b5050565b6000801b81565b600080610fd2611675565b9050610fdf818585611581565b600191505092915050565b6000600660009054906101000a900473ffffffffffffffffffffffffffffffffffffffff1673ffffffffffffffffffffffffffffffffffffffff1663d7f7582c6040518163ffffffff1660e01b8152600401602060405180830381865afa158015611059573d6000803e3d6000fd5b505050506040513d601f19601f8201168201806040525081019061107d91906127f4565b905090565b6000801b61108f81611503565b600660009054906101000a900473ffffffffffffffffffffffffffffffffffffffff1673ffffffffffffffffffffffffffffffffffffffff166391d14854600660009054906101000a900473ffffffffffffffffffffffffffffffffffffffff1673ffffffffffffffffffffffffffffffffffffffff1663d53913936040518163ffffffff1660e01b8152600401602060405180830381865afa15801561113a573d6000803e3d6000fd5b505050506040513d601f19601f8201168201806040525081019061115e9190612907565b306040518363ffffffff1660e01b815260040161117c929190612934565b602060405180830381865afa158015611199573d6000803e3d6000fd5b505050506040513d601f19601f820116820180604052508101906111bd91906127b2565b156111fd576040517f08c379a00000000000000000000000000000000000000000000000000000000081526004016111f4906129cf565b60405180910390fd5b600660009054906101000a900473ffffffffffffffffffffffffffffffffffffffff1673ffffffffffffffffffffffffffffffffffffffff16633dd1eb61306040518263ffffffff1660e01b8152600401611258919061266b565b600060405180830381600087803b15801561127257600080fd5b505af1158015611286573d6000803e3d6000fd5b5050505050565b7f9f2df0fed2c77648de5860a4cc508cd0818c85b8b8a1ab4ceeef8d981c8956a681565b6112ba82610a41565b6112c381611503565b6112cd8383611815565b50505050565b600080600760009054906101000a900473ffffffffffffffffffffffffffffffffffffffff1673ffffffffffffffffffffffffffffffffffffffff1663feaf968c6040518163ffffffff1660e01b815260040160a060405180830381865afa158015611343573d6000803e3d6000fd5b505050506040513d601f19601f820116820180604052508101906113679190612a67565b505050915050600081136113b0576040517f08c379a00000000000000000000000000000000000000000000000000000000081526004016113a790612b2e565b60405180910390fd5b8091505090565b600660009054906101000a900473ffffffffffffffffffffffffffffffffffffffff1673ffffffffffffffffffffffffffffffffffffffff1663dcd27c9e826040518263ffffffff1660e01b81526004016114129190612163565b600060405180830381600087803b15801561142c57600080fd5b505af1158015611440573d6000803e3d6000fd5b5050505050565b6000600160008473ffffffffffffffffffffffffffffffffffffffff1673ffffffffffffffffffffffffffffffffffffffff16815260200190815260200160002060008373ffffffffffffffffffffffffffffffffffffffff1673ffffffffffffffffffffffffffffffffffffffff16815260200190815260200160002054905092915050565b7fa49807205ce4d355092ef5a8a18f56e8913cf4a201fbe287825b095693c217756114f881611503565b61150061198a565b50565b6115148161150f611675565b611c38565b50565b60007f01ffc9a7000000000000000000000000000000000000000000000000000000007bffffffffffffffffffffffffffffffffffffffffffffffffffffffff1916827bffffffffffffffffffffffffffffffffffffffffffffffffffffffff1916149050919050565b600073ffffffffffffffffffffffffffffffffffffffff168373ffffffffffffffffffffffffffffffffffffffff16036115f35760006040517f96c6fd1e0000000000000000000000000000000000000000000000000000000081526004016115ea919061266b565b60405180910390fd5b600073ffffffffffffffffffffffffffffffffffffffff168273ffffffffffffffffffffffffffffffffffffffff16036116655760006040517fec442f0500000000000000000000000000000000000000000000000000000000815260040161165c919061266b565b60405180910390fd5b611670838383611c89565b505050565b600033905090565b61168a8383836001611eae565b505050565b600061169b8484611447565b90507fffffffffffffffffffffffffffffffffffffffffffffffffffffffffffffffff811461171d578181101561170d578281836040517ffb8f41b200000000000000000000000000000000000000000000000000000000815260040161170493929190612b4e565b60405180910390fd5b61171c84848484036000611eae565b5b50505050565b600061172f8383610e85565b61180a5760016005600085815260200190815260200160002060000160008473ffffffffffffffffffffffffffffffffffffffff1673ffffffffffffffffffffffffffffffffffffffff16815260200190815260200160002060006101000a81548160ff0219169083151502179055506117a7611675565b73ffffffffffffffffffffffffffffffffffffffff168273ffffffffffffffffffffffffffffffffffffffff16847f2f8788117e7eff1d82e926ec794901d17c78024a50270940304540a733656f0d60405160405180910390a46001905061180f565b600090505b92915050565b60006118218383610e85565b156118fd5760006005600085815260200190815260200160002060000160008473ffffffffffffffffffffffffffffffffffffffff1673ffffffffffffffffffffffffffffffffffffffff16815260200190815260200160002060006101000a81548160ff02191690831515021790555061189a611675565b73ffffffffffffffffffffffffffffffffffffffff168273ffffffffffffffffffffffffffffffffffffffff16847ff6391f5c32d9c69d2a47ea670b442974b53935d1edc7fd64eb21e047a839171b60405160405180910390a460019050611902565b600090505b92915050565b600073ffffffffffffffffffffffffffffffffffffffff168273ffffffffffffffffffffffffffffffffffffffff160361197a5760006040517f96c6fd1e000000000000000000000000000000000000000000000000000000008152600401611971919061266b565b60405180910390fd5b61198682600083611c89565b5050565b60006119946112d3565b9050600081116119d9576040517f08c379a00000000000000000000000000000000000000000000000000000000081526004016119d090612b2e565b60405180910390fd5b6000600660009054906101000a900473ffffffffffffffffffffffffffffffffffffffff1673ffffffffffffffffffffffffffffffffffffffff166318160ddd6040518163ffffffff1660e01b8152600401602060405180830381865afa158015611a48573d6000803e3d6000fd5b505050506040513d601f19601f82011682018060405250810190611a6c91906127f4565b6305f5e100611a796112d3565b611a83919061287f565b611a8d91906128b0565b9050611a97610a08565b811115611ac5576000611aa8610a08565b82611ab39190612b85565b9050611abf3382611bb6565b50611bab565b806002611ad291906128b0565b611ada610a08565b1115611baa576000816002611aef91906128b0565b9050600081611afc610a08565b611b069190612b85565b90506000811115611ba75760006064600a54611b20610a08565b611b2a91906128b0565b611b34919061287f565b9050808211611b435781611b45565b805b915081611b73600860009054906101000a900473ffffffffffffffffffffffffffffffffffffffff16610df3565b10611ba557611ba4600860009054906101000a900473ffffffffffffffffffffffffffffffffffffffff1683611908565b5b505b50505b5b426009819055505050565b600073ffffffffffffffffffffffffffffffffffffffff168273ffffffffffffffffffffffffffffffffffffffff1603611c285760006040517fec442f05000000000000000000000000000000000000000000000000000000008152600401611c1f919061266b565b60405180910390fd5b611c3460008383611c89565b5050565b611c428282610e85565b611c855780826040517fe2517d3f000000000000000000000000000000000000000000000000000000008152600401611c7c929190612bb9565b60405180910390fd5b5050565b600073ffffffffffffffffffffffffffffffffffffffff168373ffffffffffffffffffffffffffffffffffffffff1603611cdb578060026000828254611ccf9190612be2565b92505081905550611dae565b60008060008573ffffffffffffffffffffffffffffffffffffffff1673ffffffffffffffffffffffffffffffffffffffff16815260200190815260200160002054905081811015611d67578381836040517fe450d38c000000000000000000000000000000000000000000000000000000008152600401611d5e93929190612b4e565b60405180910390fd5b8181036000808673ffffffffffffffffffffffffffffffffffffffff1673ffffffffffffffffffffffffffffffffffffffff16815260200190815260200160002081905550505b600073ffffffffffffffffffffffffffffffffffffffff168273ffffffffffffffffffffffffffffffffffffffff1603611df75780600260008282540392505081905550611e44565b806000808473ffffffffffffffffffffffffffffffffffffffff1673ffffffffffffffffffffffffffffffffffffffff168152602001908152602001600020600082825401925050819055505b8173ffffffffffffffffffffffffffffffffffffffff168373ffffffffffffffffffffffffffffffffffffffff167fddf252ad1be2c89b69c2b068fc378daa952ba7f163c4a11628f55a4df523b3ef83604051611ea19190612163565b60405180910390a3505050565b600073ffffffffffffffffffffffffffffffffffffffff168473ffffffffffffffffffffffffffffffffffffffff1603611f205760006040517fe602df05000000000000000000000000000000000000000000000000000000008152600401611f17919061266b565b60405180910390fd5b600073ffffffffffffffffffffffffffffffffffffffff168373ffffffffffffffffffffffffffffffffffffffff1603611f925760006040517f94280d62000000000000000000000000000000000000000000000000000000008152600401611f89919061266b565b60405180910390fd5b81600160008673ffffffffffffffffffffffffffffffffffffffff1673ffffffffffffffffffffffffffffffffffffffff16815260200190815260200160002060008573ffffffffffffffffffffffffffffffffffffffff1673ffffffffffffffffffffffffffffffffffffffff16815260200190815260200160002081905550801561207f578273ffffffffffffffffffffffffffffffffffffffff168473ffffffffffffffffffffffffffffffffffffffff167f8c5be1e5ebec7d5bd14f71427d1e84f3dd0314c0f7b2291e5b200ac8c7c3b925846040516120769190612163565b60405180910390a35b50505050565b600080fd5b600080fd5b60007fffffffff0000000000000000000000000000000000000000000000000000000082169050919050565b6120c48161208f565b81146120cf57600080fd5b50565b6000813590506120e1816120bb565b92915050565b6000602082840312156120fd576120fc612085565b5b600061210b848285016120d2565b91505092915050565b60008115159050919050565b61212981612114565b82525050565b60006020820190506121446000830184612120565b92915050565b6000819050919050565b61215d8161214a565b82525050565b60006020820190506121786000830184612154565b92915050565b600081519050919050565b600082825260208201905092915050565b60005b838110156121b857808201518184015260208101905061219d565b60008484015250505050565b6000601f19601f8301169050919050565b60006121e08261217e565b6121ea8185612189565b93506121fa81856020860161219a565b612203816121c4565b840191505092915050565b6000602082019050818103600083015261222881846121d5565b905092915050565b600073ffffffffffffffffffffffffffffffffffffffff82169050919050565b6000819050919050565b600061227561227061226b84612230565b612250565b612230565b9050919050565b60006122878261225a565b9050919050565b60006122998261227c565b9050919050565b6122a98161228e565b82525050565b60006020820190506122c460008301846122a0565b92915050565b60006122d582612230565b9050919050565b6122e5816122ca565b81146122f057600080fd5b50565b600081359050612302816122dc565b92915050565b6123118161214a565b811461231c57600080fd5b50565b60008135905061232e81612308565b92915050565b6000806040838503121561234b5761234a612085565b5b6000612359858286016122f3565b925050602061236a8582860161231f565b9150509250929050565b60008060006060848603121561238d5761238c612085565b5b600061239b868287016122f3565b93505060206123ac868287016122f3565b92505060406123bd8682870161231f565b9150509250925092565b6000819050919050565b6123da816123c7565b81146123e557600080fd5b50565b6000813590506123f7816123d1565b92915050565b60006020828403121561241357612412612085565b5b6000612421848285016123e8565b91505092915050565b612433816123c7565b82525050565b600060208201905061244e600083018461242a565b92915050565b6000806040838503121561246b5761246a612085565b5b6000612479858286016123e8565b925050602061248a858286016122f3565b9150509250929050565b600060ff82169050919050565b6124aa81612494565b82525050565b60006020820190506124c560008301846124a1565b92915050565b6000602082840312156124e1576124e0612085565b5b60006124ef848285016122f3565b91505092915050565b60006020828403121561250e5761250d612085565b5b600061251c8482850161231f565b91505092915050565b600080fd5b600080fd5b600080fd5b60008083601f84011261254a57612549612525565b5b8235905067ffffffffffffffff8111156125675761256661252a565b5b6020830191508360018202830111156125835761258261252f565b5b9250929050565b600080602083850312156125a1576125a0612085565b5b600083013567ffffffffffffffff8111156125bf576125be61208a565b5b6125cb85828601612534565b92509250509250929050565b600081519050919050565b600082825260208201905092915050565b60006125fe826125d7565b61260881856125e2565b935061261881856020860161219a565b612621816121c4565b840191505092915050565b60006040820190506126416000830185612120565b818103602083015261265381846125f3565b90509392505050565b612665816122ca565b82525050565b6000602082019050612680600083018461265c565b92915050565b6000806040838503121561269d5761269c612085565b5b60006126ab858286016122f3565b92505060206126bc858286016122f3565b9150509250929050565b7f4e487b7100000000000000000000000000000000000000000000000000000000600052602260045260246000fd5b6000600282049050600182168061270d57607f821691505b6020821081036127205761271f6126c6565b5b50919050565b600060608201905061273b600083018661265c565b612748602083018561265c565b6127556040830184612154565b949350505050565b6000604082019050612772600083018561265c565b61277f6020830184612154565b9392505050565b61278f81612114565b811461279a57600080fd5b50565b6000815190506127ac81612786565b92915050565b6000602082840312156127c8576127c7612085565b5b60006127d68482850161279d565b91505092915050565b6000815190506127ee81612308565b92915050565b60006020828403121561280a57612809612085565b5b6000612818848285016127df565b91505092915050565b7f4e487b7100000000000000000000000000000000000000000000000000000000600052601260045260246000fd5b7f4e487b7100000000000000000000000000000000000000000000000000000000600052601160045260246000fd5b600061288a8261214a565b91506128958361214a565b9250826128a5576128a4612821565b5b828204905092915050565b60006128bb8261214a565b91506128c68361214a565b92508282026128d48161214a565b915082820484148315176128eb576128ea612850565b5b5092915050565b600081519050612901816123d1565b92915050565b60006020828403121561291d5761291c612085565b5b600061292b848285016128f2565b91505092915050565b6000604082019050612949600083018561242a565b612956602083018461265c565b9392505050565b7f436f696e446f6c6c617220616c726561647920686173204d494e5445525f524f60008201527f4c4520696e20436f696e476f6c64000000000000000000000000000000000000602082015250565b60006129b9602e83612189565b91506129c48261295d565b604082019050919050565b600060208201905081810360008301526129e8816129ac565b9050919050565b600069ffffffffffffffffffff82169050919050565b612a0e816129ef565b8114612a1957600080fd5b50565b600081519050612a2b81612a05565b92915050565b6000819050919050565b612a4481612a31565b8114612a4f57600080fd5b50565b600081519050612a6181612a3b565b92915050565b600080600080600060a08688031215612a8357612a82612085565b5b6000612a9188828901612a1c565b9550506020612aa288828901612a52565b9450506040612ab3888289016127df565b9350506060612ac4888289016127df565b9250506080612ad588828901612a1c565b9150509295509295909350565b7f496e76616c696420676f6c642070726963650000000000000000000000000000600082015250565b6000612b18601283612189565b9150612b2382612ae2565b602082019050919050565b60006020820190508181036000830152612b4781612b0b565b9050919050565b6000606082019050612b63600083018661265c565b612b706020830185612154565b612b7d6040830184612154565b949350505050565b6000612b908261214a565b9150612b9b8361214a565b9250828203905081811115612bb357612bb2612850565b5b92915050565b6000604082019050612bce600083018561265c565b612bdb602083018461242a565b9392505050565b6000612bed8261214a565b9150612bf88361214a565b9250828201905080821115612c1057612c0f612850565b5b9291505056fea2646970667358221220aa3cf8b01b4bd6d65b073d31136760b71f1b0e94c7f92c4e624639706d8c3e7c64736f6c63430008140033",
    "linkReferences": {},
    "deployedLinkReferences": {}
}