{
  "_format": "hh-sol-artifact-1",
  "contractName": "CoinDollar",
  "sourceName": "contracts/CoinDollar.sol",
  "abi": [
    {
      "inputs": [
        {
          "internalType": "string",
          "name": "name",
          "type": "string"
        },
        {
          "internalType": "string",
          "name": "symbol",
          "type": "string"
        },
        {
          "internalType": "address",
          "name": "_coinGoldAddress",
          "type": "address"
        },
        {
          "internalType": "address",
          "name": "_goldPriceFeed",
          "type": "address"
        }
      ],
      "stateMutability": "nonpayable",
      "type": "constructor"
    },
    {
      "inputs": [
        {
          "internalType": "address",
          "name": "spender",
          "type": "address"
        },
        {
          "internalType": "uint256",
          "name": "allowance",
          "type": "uint256"
        },
        {
          "internalType": "uint256",
          "name": "needed",
          "type": "uint256"
        }
      ],
      "name": "ERC20InsufficientAllowance",
      "type": "error"
    },
    {
      "inputs": [
        {
          "internalType": "address",
          "name": "sender",
          "type": "address"
        },
        {
          "internalType": "uint256",
          "name": "balance",
          "type": "uint256"
        },
        {
          "internalType": "uint256",
          "name": "needed",
          "type": "uint256"
        }
      ],
      "name": "ERC20InsufficientBalance",
      "type": "error"
    },
    {
      "inputs": [
        {
          "internalType": "address",
          "name": "approver",
          "type": "address"
        }
      ],
      "name": "ERC20InvalidApprover",
      "type": "error"
    },
    {
      "inputs": [
        {
          "internalType": "address",
          "name": "receiver",
          "type": "address"
        }
      ],
      "name": "ERC20InvalidReceiver",
      "type": "error"
    },
    {
      "inputs": [
        {
          "internalType": "address",
          "name": "sender",
          "type": "address"
        }
      ],
      "name": "ERC20InvalidSender",
      "type": "error"
    },
    {
      "inputs": [
        {
          "internalType": "address",
          "name": "spender",
          "type": "address"
        }
      ],
      "name": "ERC20InvalidSpender",
      "type": "error"
    },
    {
      "anonymous": false,
      "inputs": [
        {
          "indexed": true,
          "internalType": "address",
          "name": "owner",
          "type": "address"
        },
        {
          "indexed": true,
          "internalType": "address",
          "name": "spender",
          "type": "address"
        },
        {
          "indexed": false,
          "internalType": "uint256",
          "name": "value",
          "type": "uint256"
        }
      ],
      "name": "Approval",
      "type": "event"
    },
    {
      "anonymous": false,
      "inputs": [
        {
          "indexed": true,
          "internalType": "address",
          "name": "from",
          "type": "address"
        },
        {
          "indexed": false,
          "internalType": "uint256",
          "name": "amount",
          "type": "uint256"
        }
      ],
      "name": "ExchangeGoldToDollar",
      "type": "event"
    },
    {
      "anonymous": false,
      "inputs": [
        {
          "indexed": true,
          "internalType": "address",
          "name": "from",
          "type": "address"
        },
        {
          "indexed": true,
          "internalType": "address",
          "name": "to",
          "type": "address"
        },
        {
          "indexed": false,
          "internalType": "uint256",
          "name": "value",
          "type": "uint256"
        }
      ],
      "name": "Transfer",
      "type": "event"
    },
    {
      "inputs": [],
      "name": "adjustSupply",
      "outputs": [],
      "stateMutability": "nonpayable",
      "type": "function"
    },
    {
      "inputs": [
        {
          "internalType": "address",
          "name": "owner",
          "type": "address"
        },
        {
          "internalType": "address",
          "name": "spender",
          "type": "address"
        }
      ],
      "name": "allowance",
      "outputs": [
        {
          "internalType": "uint256",
          "name": "",
          "type": "uint256"
        }
      ],
      "stateMutability": "view",
      "type": "function"
    },
    {
      "inputs": [
        {
          "internalType": "address",
          "name": "spender",
          "type": "address"
        },
        {
          "internalType": "uint256",
          "name": "value",
          "type": "uint256"
        }
      ],
      "name": "approve",
      "outputs": [
        {
          "internalType": "bool",
          "name": "",
          "type": "bool"
        }
      ],
      "stateMutability": "nonpayable",
      "type": "function"
    },
    {
      "inputs": [
        {
          "internalType": "address",
          "name": "account",
          "type": "address"
        }
      ],
      "name": "balanceOf",
      "outputs": [
        {
          "internalType": "uint256",
          "name": "",
          "type": "uint256"
        }
      ],
      "stateMutability": "view",
      "type": "function"
    },
    {
      "inputs": [
        {
          "internalType": "uint256",
          "name": "amount",
          "type": "uint256"
        }
      ],
      "name": "burn",
      "outputs": [],
      "stateMutability": "nonpayable",
      "type": "function"
    },
    {
      "inputs": [
        {
          "internalType": "uint256",
          "name": "amount",
          "type": "uint256"
        }
      ],
      "name": "burnCoinGold",
      "outputs": [],
      "stateMutability": "nonpayable",
      "type": "function"
    },
    {
      "inputs": [
        {
          "internalType": "bytes",
          "name": "",
          "type": "bytes"
        }
      ],
      "name": "checkUpkeep",
      "outputs": [
        {
          "internalType": "bool",
          "name": "upkeepNeeded",
          "type": "bool"
        },
        {
          "internalType": "bytes",
          "name": "performData",
          "type": "bytes"
        }
      ],
      "stateMutability": "view",
      "type": "function"
    },
    {
      "inputs": [],
      "name": "coinGold",
      "outputs": [
        {
          "internalType": "contract CoinGold",
          "name": "",
          "type": "address"
        }
      ],
      "stateMutability": "view",
      "type": "function"
    },
    {
      "inputs": [],
      "name": "decimals",
      "outputs": [
        {
          "internalType": "uint8",
          "name": "",
          "type": "uint8"
        }
      ],
      "stateMutability": "view",
      "type": "function"
    },
    {
      "inputs": [
        {
          "internalType": "uint256",
          "name": "coinGoldAmount",
          "type": "uint256"
        }
      ],
      "name": "exchangeGoldToDollar",
      "outputs": [],
      "stateMutability": "nonpayable",
      "type": "function"
    },
    {
      "inputs": [],
      "name": "getGoldCoinTotalCapitalization",
      "outputs": [
        {
          "internalType": "uint256",
          "name": "",
          "type": "uint256"
        }
      ],
      "stateMutability": "view",
      "type": "function"
    },
    {
      "inputs": [],
      "name": "getGoldPrice",
      "outputs": [
        {
          "internalType": "uint256",
          "name": "",
          "type": "uint256"
        }
      ],
      "stateMutability": "view",
      "type": "function"
    },
    {
      "inputs": [],
      "name": "lastAdjustmentTimestamp",
      "outputs": [
        {
          "internalType": "uint256",
          "name": "",
          "type": "uint256"
        }
      ],
      "stateMutability": "view",
      "type": "function"
    },
    {
      "inputs": [],
      "name": "lastGoldPrice",
      "outputs": [
        {
          "internalType": "uint256",
          "name": "",
          "type": "uint256"
        }
      ],
      "stateMutability": "view",
      "type": "function"
    },
    {
      "inputs": [],
      "name": "maximumBackingValue",
      "outputs": [
        {
          "internalType": "uint256",
          "name": "",
          "type": "uint256"
        }
      ],
      "stateMutability": "view",
      "type": "function"
    },
    {
      "inputs": [],
      "name": "minimumBackingValue",
      "outputs": [
        {
          "internalType": "uint256",
          "name": "",
          "type": "uint256"
        }
      ],
      "stateMutability": "view",
      "type": "function"
    },
    {
      "inputs": [
        {
          "internalType": "uint256",
          "name": "amount",
          "type": "uint256"
        }
      ],
      "name": "mint",
      "outputs": [],
      "stateMutability": "nonpayable",
      "type": "function"
    },
    {
      "inputs": [
        {
          "internalType": "uint256",
          "name": "gramsOfGold",
          "type": "uint256"
        }
      ],
      "name": "mintCoinGold",
      "outputs": [],
      "stateMutability": "nonpayable",
      "type": "function"
    },
    {
      "inputs": [],
      "name": "name",
      "outputs": [
        {
          "internalType": "string",
          "name": "",
          "type": "string"
        }
      ],
      "stateMutability": "view",
      "type": "function"
    },
    {
      "inputs": [],
      "name": "owner",
      "outputs": [
        {
          "internalType": "address",
          "name": "",
          "type": "address"
        }
      ],
      "stateMutability": "view",
      "type": "function"
    },
    {
      "inputs": [
        {
          "internalType": "bytes",
          "name": "",
          "type": "bytes"
        }
      ],
      "name": "performUpkeep",
      "outputs": [],
      "stateMutability": "nonpayable",
      "type": "function"
    },
    {
      "inputs": [],
      "name": "reserveRatio",
      "outputs": [
        {
          "internalType": "uint256",
          "name": "",
          "type": "uint256"
        }
      ],
      "stateMutability": "view",
      "type": "function"
    },
    {
      "inputs": [],
      "name": "symbol",
      "outputs": [
        {
          "internalType": "string",
          "name": "",
          "type": "string"
        }
      ],
      "stateMutability": "view",
      "type": "function"
    },
    {
      "inputs": [],
      "name": "totalSupply",
      "outputs": [
        {
          "internalType": "uint256",
          "name": "",
          "type": "uint256"
        }
      ],
      "stateMutability": "view",
      "type": "function"
    },
    {
      "inputs": [
        {
          "internalType": "address",
          "name": "to",
          "type": "address"
        },
        {
          "internalType": "uint256",
          "name": "value",
          "type": "uint256"
        }
      ],
      "name": "transfer",
      "outputs": [
        {
          "internalType": "bool",
          "name": "",
          "type": "bool"
        }
      ],
      "stateMutability": "nonpayable",
      "type": "function"
    },
    {
      "inputs": [
        {
          "internalType": "address",
          "name": "to",
          "type": "address"
        },
        {
          "internalType": "uint256",
          "name": "amount",
          "type": "uint256"
        }
      ],
      "name": "transferCoinDollar",
      "outputs": [
        {
          "internalType": "bool",
          "name": "",
          "type": "bool"
        }
      ],
      "stateMutability": "nonpayable",
      "type": "function"
    },
    {
      "inputs": [
        {
          "internalType": "address",
          "name": "to",
          "type": "address"
        },
        {
          "internalType": "uint256",
          "name": "amount",
          "type": "uint256"
        }
      ],
      "name": "transferCoinGold",
      "outputs": [],
      "stateMutability": "nonpayable",
      "type": "function"
    },
    {
      "inputs": [
        {
          "internalType": "address",
          "name": "user",
          "type": "address"
        },
        {
          "internalType": "address",
          "name": "recipient",
          "type": "address"
        },
        {
          "internalType": "uint256",
          "name": "amount",
          "type": "uint256"
        }
      ],
      "name": "transferCoinGoldFromUser",
      "outputs": [],
      "stateMutability": "nonpayable",
      "type": "function"
    },
    {
      "inputs": [
        {
          "internalType": "address",
          "name": "from",
          "type": "address"
        },
        {
          "internalType": "address",
          "name": "to",
          "type": "address"
        },
        {
          "internalType": "uint256",
          "name": "value",
          "type": "uint256"
        }
      ],
      "name": "transferFrom",
      "outputs": [
        {
          "internalType": "bool",
          "name": "",
          "type": "bool"
        }
      ],
      "stateMutability": "nonpayable",
      "type": "function"
    }
  ],
  "bytecode": "0x60806040523480156200001157600080fd5b5060405162003066380380620030668339818101604052810190620000379190620004e4565b838381600390816200004a9190620007df565b5080600490816200005c9190620007df565b50505033600760006101000a81548173ffffffffffffffffffffffffffffffffffffffff021916908373ffffffffffffffffffffffffffffffffffffffff16021790555081600560006101000a81548173ffffffffffffffffffffffffffffffffffffffff021916908373ffffffffffffffffffffffffffffffffffffffff16021790555080600660006101000a81548173ffffffffffffffffffffffffffffffffffffffff021916908373ffffffffffffffffffffffffffffffffffffffff160217905550426008819055506014600981905550600560009054906101000a900473ffffffffffffffffffffffffffffffffffffffff1673ffffffffffffffffffffffffffffffffffffffff1663d7f7582c6040518163ffffffff1660e01b8152600401602060405180830381865afa1580156200019f573d6000803e3d6000fd5b505050506040513d601f19601f82011682018060405250810190620001c59190620008f7565b600a819055506002600a54620001dc919062000958565b600b81905550620001f26200020260201b60201c565b600c819055505050505062000b1d565b600080600660009054906101000a900473ffffffffffffffffffffffffffffffffffffffff1673ffffffffffffffffffffffffffffffffffffffff1663feaf968c6040518163ffffffff1660e01b815260040160a060405180830381865afa15801562000273573d6000803e3d6000fd5b505050506040513d601f19601f8201168201806040525081019062000299919062000a12565b50505091505060008113620002e5576040517f08c379a0000000000000000000000000000000000000000000000000000000008152600401620002dc9062000afb565b60405180910390fd5b8091505090565b6000604051905090565b600080fd5b600080fd5b600080fd5b600080fd5b6000601f19601f8301169050919050565b7f4e487b7100000000000000000000000000000000000000000000000000000000600052604160045260246000fd5b62000355826200030a565b810181811067ffffffffffffffff821117156200037757620003766200031b565b5b80604052505050565b60006200038c620002ec565b90506200039a82826200034a565b919050565b600067ffffffffffffffff821115620003bd57620003bc6200031b565b5b620003c8826200030a565b9050602081019050919050565b60005b83811015620003f5578082015181840152602081019050620003d8565b60008484015250505050565b60006200041862000412846200039f565b62000380565b90508281526020810184848401111562000437576200043662000305565b5b62000444848285620003d5565b509392505050565b600082601f83011262000464576200046362000300565b5b81516200047684826020860162000401565b91505092915050565b600073ffffffffffffffffffffffffffffffffffffffff82169050919050565b6000620004ac826200047f565b9050919050565b620004be816200049f565b8114620004ca57600080fd5b50565b600081519050620004de81620004b3565b92915050565b60008060008060808587031215620005015762000500620002f6565b5b600085015167ffffffffffffffff811115620005225762000521620002fb565b5b62000530878288016200044c565b945050602085015167ffffffffffffffff811115620005545762000553620002fb565b5b62000562878288016200044c565b93505060406200057587828801620004cd565b92505060606200058887828801620004cd565b91505092959194509250565b600081519050919050565b7f4e487b7100000000000000000000000000000000000000000000000000000000600052602260045260246000fd5b60006002820490506001821680620005e757607f821691505b602082108103620005fd57620005fc6200059f565b5b50919050565b60008190508160005260206000209050919050565b60006020601f8301049050919050565b600082821b905092915050565b600060088302620006677fffffffffffffffffffffffffffffffffffffffffffffffffffffffffffffffff8262000628565b62000673868362000628565b95508019841693508086168417925050509392505050565b6000819050919050565b6000819050919050565b6000620006c0620006ba620006b4846200068b565b62000695565b6200068b565b9050919050565b6000819050919050565b620006dc836200069f565b620006f4620006eb82620006c7565b84845462000635565b825550505050565b600090565b6200070b620006fc565b62000718818484620006d1565b505050565b5b8181101562000740576200073460008262000701565b6001810190506200071e565b5050565b601f8211156200078f57620007598162000603565b620007648462000618565b8101602085101562000774578190505b6200078c620007838562000618565b8301826200071d565b50505b505050565b600082821c905092915050565b6000620007b46000198460080262000794565b1980831691505092915050565b6000620007cf8383620007a1565b9150826002028217905092915050565b620007ea8262000594565b67ffffffffffffffff8111156200080657620008056200031b565b5b620008128254620005ce565b6200081f82828562000744565b600060209050601f83116001811462000857576000841562000842578287015190505b6200084e8582620007c1565b865550620008be565b601f198416620008678662000603565b60005b8281101562000891578489015182556001820191506020850194506020810190506200086a565b86831015620008b15784890151620008ad601f891682620007a1565b8355505b6001600288020188555050505b505050505050565b620008d1816200068b565b8114620008dd57600080fd5b50565b600081519050620008f181620008c6565b92915050565b60006020828403121562000910576200090f620002f6565b5b60006200092084828501620008e0565b91505092915050565b7f4e487b7100000000000000000000000000000000000000000000000000000000600052601260045260246000fd5b600062000965826200068b565b915062000972836200068b565b92508262000985576200098462000929565b5b828204905092915050565b600069ffffffffffffffffffff82169050919050565b620009b18162000990565b8114620009bd57600080fd5b50565b600081519050620009d181620009a6565b92915050565b6000819050919050565b620009ec81620009d7565b8114620009f857600080fd5b50565b60008151905062000a0c81620009e1565b92915050565b600080600080600060a0868803121562000a315762000a30620002f6565b5b600062000a4188828901620009c0565b955050602062000a5488828901620009fb565b945050604062000a6788828901620008e0565b935050606062000a7a88828901620008e0565b925050608062000a8d88828901620009c0565b9150509295509295909350565b600082825260208201905092915050565b7f496e76616c696420676f6c642070726963650000000000000000000000000000600082015250565b600062000ae360128362000a9a565b915062000af08262000aab565b602082019050919050565b6000602082019050818103600083015262000b168162000ad4565b9050919050565b6125398062000b2d6000396000f3fe608060405234801561001057600080fd5b50600436106101cf5760003560e01c80634eec552e116101045780639c841efe116100a2578063da6bae1011610071578063da6bae1014610521578063dcd27c9e1461053f578063dd62ed3e1461055b578063ea68d3761461058b576101cf565b80639c841efe14610499578063a0712d68146104b7578063a9059cbb146104d3578063b355175d14610503576101cf565b806370a08231116100de57806370a08231146104115780638da5cb5b14610441578063942ca33d1461045f57806395d89b411461047b576101cf565b80634eec552e146103a657806366dabc9a146103c25780636e04ff0d146103e0576101cf565b806312cbdd2111610171578063313ce5671161014b578063313ce567146103345780633f64524d1461035257806342966c681461036e5780634585e33b1461038a576101cf565b806312cbdd21146102ca57806318160ddd146102e657806323b872dd14610304576101cf565b806308d36293116101ad57806308d362931461022e5780630912c4731461025e578063095ea7b31461027c5780630c7d5cd8146102ac576101cf565b80630338c477146101d457806306fdde03146101f25780630844969a14610210575b600080fd5b6101dc610595565b6040516101e99190611b05565b60405180910390f35b6101fa61059b565b6040516102079190611bb0565b60405180910390f35b61021861062d565b6040516102259190611c51565b60405180910390f35b61024860048036038101906102439190611ce0565b610653565b6040516102559190611d3b565b60405180910390f35b61026661066a565b6040516102739190611b05565b60405180910390f35b61029660048036038101906102919190611ce0565b610670565b6040516102a39190611d3b565b60405180910390f35b6102b4610693565b6040516102c19190611b05565b60405180910390f35b6102e460048036038101906102df9190611d56565b610699565b005b6102ee61072f565b6040516102fb9190611b05565b60405180910390f35b61031e60048036038101906103199190611d56565b610739565b60405161032b9190611d3b565b60405180910390f35b61033c610768565b6040516103499190611dc5565b60405180910390f35b61036c60048036038101906103679190611ce0565b610771565b005b61038860048036038101906103839190611de0565b610816565b005b6103a4600480360381019061039f9190611e72565b6108b3565b005b6103c060048036038101906103bb9190611de0565b6108bf565b005b6103ca61094f565b6040516103d79190611b05565b60405180910390f35b6103fa60048036038101906103f59190611e72565b610955565b604051610408929190611f14565b60405180910390f35b61042b60048036038101906104269190611f44565b610a4c565b6040516104389190611b05565b60405180910390f35b610449610a94565b6040516104569190611f80565b60405180910390f35b61047960048036038101906104749190611de0565b610aba565b005b610483610c93565b6040516104909190611bb0565b60405180910390f35b6104a1610d25565b6040516104ae9190611b05565b60405180910390f35b6104d160048036038101906104cc9190611de0565b610d2b565b005b6104ed60048036038101906104e89190611ce0565b610dc8565b6040516104fa9190611d3b565b60405180910390f35b61050b610deb565b6040516105189190611b05565b60405180910390f35b610529610e83565b6040516105369190611b05565b60405180910390f35b61055960048036038101906105549190611de0565b610f67565b005b61057560048036038101906105709190611f9b565b610ff7565b6040516105829190611b05565b60405180910390f35b61059361107e565b005b60085481565b6060600380546105aa9061200a565b80601f01602080910402602001604051908101604052809291908181526020018280546105d69061200a565b80156106235780601f106105f857610100808354040283529160200191610623565b820191906000526020600020905b81548152906001019060200180831161060657829003601f168201915b5050505050905090565b600560009054906101000a900473ffffffffffffffffffffffffffffffffffffffff1681565b6000610660338484611118565b6001905092915050565b600c5481565b60008061067b61120c565b9050610688818585611214565b600191505092915050565b60095481565b600560009054906101000a900473ffffffffffffffffffffffffffffffffffffffff1673ffffffffffffffffffffffffffffffffffffffff16633184b9fd8484846040518463ffffffff1660e01b81526004016106f89392919061203b565b600060405180830381600087803b15801561071257600080fd5b505af1158015610726573d6000803e3d6000fd5b50505050505050565b6000600254905090565b60008061074461120c565b9050610751858285611226565b61075c858585611118565b60019150509392505050565b60006012905090565b600560009054906101000a900473ffffffffffffffffffffffffffffffffffffffff1673ffffffffffffffffffffffffffffffffffffffff16633f64524d83836040518363ffffffff1660e01b81526004016107ce929190612072565b6020604051808303816000875af11580156107ed573d6000803e3d6000fd5b505050506040513d601f19601f8201168201806040525081019061081191906120c7565b505050565b600760009054906101000a900473ffffffffffffffffffffffffffffffffffffffff1673ffffffffffffffffffffffffffffffffffffffff163373ffffffffffffffffffffffffffffffffffffffff16146108a6576040517f08c379a000000000000000000000000000000000000000000000000000000000815260040161089d90612166565b60405180910390fd5b6108b033826112ba565b50565b6108bb61133c565b5050565b600560009054906101000a900473ffffffffffffffffffffffffffffffffffffffff1673ffffffffffffffffffffffffffffffffffffffff16634eec552e826040518263ffffffff1660e01b815260040161091a9190611b05565b600060405180830381600087803b15801561093457600080fd5b505af1158015610948573d6000803e3d6000fd5b5050505050565b600b5481565b600060606000600560009054906101000a900473ffffffffffffffffffffffffffffffffffffffff1673ffffffffffffffffffffffffffffffffffffffff166318160ddd6040518163ffffffff1660e01b8152600401602060405180830381865afa1580156109c8573d6000803e3d6000fd5b505050506040513d601f19601f820116820180604052508101906109ec919061219b565b6305f5e1006109f9610e83565b610a039190612226565b610a0d9190612257565b90506000816002610a1e9190612257565b610a2661072f565b119050600082610a3461072f565b1090508180610a405750805b94505050509250929050565b60008060008373ffffffffffffffffffffffffffffffffffffffff1673ffffffffffffffffffffffffffffffffffffffff168152602001908152602001600020549050919050565b600760009054906101000a900473ffffffffffffffffffffffffffffffffffffffff1681565b80600560009054906101000a900473ffffffffffffffffffffffffffffffffffffffff1673ffffffffffffffffffffffffffffffffffffffff166370a08231336040518263ffffffff1660e01b8152600401610b169190611f80565b602060405180830381865afa158015610b33573d6000803e3d6000fd5b505050506040513d601f19601f82011682018060405250810190610b57919061219b565b1015610b98576040517f08c379a0000000000000000000000000000000000000000000000000000000008152600401610b8f906122e5565b60405180910390fd5b600560009054906101000a900473ffffffffffffffffffffffffffffffffffffffff1673ffffffffffffffffffffffffffffffffffffffff16633184b9fd3330846040518463ffffffff1660e01b8152600401610bf79392919061203b565b600060405180830381600087803b158015610c1157600080fd5b505af1158015610c25573d6000803e3d6000fd5b505050506000610c3482611568565b9050610c403382610dc8565b503373ffffffffffffffffffffffffffffffffffffffff167f95056a926dd4920fd4d920110b660cc11fdb4241fb468b53438f482873d5ec2a83604051610c879190611b05565b60405180910390a25050565b606060048054610ca29061200a565b80601f0160208091040260200160405190810160405280929190818152602001828054610cce9061200a565b8015610d1b5780601f10610cf057610100808354040283529160200191610d1b565b820191906000526020600020905b815481529060010190602001808311610cfe57829003601f168201915b5050505050905090565b600a5481565b600760009054906101000a900473ffffffffffffffffffffffffffffffffffffffff1673ffffffffffffffffffffffffffffffffffffffff163373ffffffffffffffffffffffffffffffffffffffff1614610dbb576040517f08c379a0000000000000000000000000000000000000000000000000000000008152600401610db290612166565b60405180910390fd5b610dc5338261166e565b50565b600080610dd361120c565b9050610de0818585611118565b600191505092915050565b6000600560009054906101000a900473ffffffffffffffffffffffffffffffffffffffff1673ffffffffffffffffffffffffffffffffffffffff1663d7f7582c6040518163ffffffff1660e01b8152600401602060405180830381865afa158015610e5a573d6000803e3d6000fd5b505050506040513d601f19601f82011682018060405250810190610e7e919061219b565b905090565b600080600660009054906101000a900473ffffffffffffffffffffffffffffffffffffffff1673ffffffffffffffffffffffffffffffffffffffff1663feaf968c6040518163ffffffff1660e01b815260040160a060405180830381865afa158015610ef3573d6000803e3d6000fd5b505050506040513d601f19601f82011682018060405250810190610f17919061237d565b50505091505060008113610f60576040517f08c379a0000000000000000000000000000000000000000000000000000000008152600401610f5790612444565b60405180910390fd5b8091505090565b600560009054906101000a900473ffffffffffffffffffffffffffffffffffffffff1673ffffffffffffffffffffffffffffffffffffffff1663dcd27c9e826040518263ffffffff1660e01b8152600401610fc29190611b05565b600060405180830381600087803b158015610fdc57600080fd5b505af1158015610ff0573d6000803e3d6000fd5b5050505050565b6000600160008473ffffffffffffffffffffffffffffffffffffffff1673ffffffffffffffffffffffffffffffffffffffff16815260200190815260200160002060008373ffffffffffffffffffffffffffffffffffffffff1673ffffffffffffffffffffffffffffffffffffffff16815260200190815260200160002054905092915050565b600760009054906101000a900473ffffffffffffffffffffffffffffffffffffffff1673ffffffffffffffffffffffffffffffffffffffff163373ffffffffffffffffffffffffffffffffffffffff161461110e576040517f08c379a000000000000000000000000000000000000000000000000000000000815260040161110590612166565b60405180910390fd5b61111661133c565b565b600073ffffffffffffffffffffffffffffffffffffffff168373ffffffffffffffffffffffffffffffffffffffff160361118a5760006040517f96c6fd1e0000000000000000000000000000000000000000000000000000000081526004016111819190611f80565b60405180910390fd5b600073ffffffffffffffffffffffffffffffffffffffff168273ffffffffffffffffffffffffffffffffffffffff16036111fc5760006040517fec442f050000000000000000000000000000000000000000000000000000000081526004016111f39190611f80565b60405180910390fd5b6112078383836116f0565b505050565b600033905090565b6112218383836001611915565b505050565b60006112328484610ff7565b90507fffffffffffffffffffffffffffffffffffffffffffffffffffffffffffffffff81146112b457818110156112a4578281836040517ffb8f41b200000000000000000000000000000000000000000000000000000000815260040161129b93929190612464565b60405180910390fd5b6112b384848484036000611915565b5b50505050565b600073ffffffffffffffffffffffffffffffffffffffff168273ffffffffffffffffffffffffffffffffffffffff160361132c5760006040517f96c6fd1e0000000000000000000000000000000000000000000000000000000081526004016113239190611f80565b60405180910390fd5b611338826000836116f0565b5050565b6000611346610e83565b90506000811161138b576040517f08c379a000000000000000000000000000000000000000000000000000000000815260040161138290612444565b60405180910390fd5b6000600560009054906101000a900473ffffffffffffffffffffffffffffffffffffffff1673ffffffffffffffffffffffffffffffffffffffff166318160ddd6040518163ffffffff1660e01b8152600401602060405180830381865afa1580156113fa573d6000803e3d6000fd5b505050506040513d601f19601f8201168201806040525081019061141e919061219b565b6305f5e10061142b610e83565b6114359190612226565b61143f9190612257565b905061144961072f565b81111561147757600061145a61072f565b82611465919061249b565b9050611471338261166e565b5061155d565b8060026114849190612257565b61148c61072f565b111561155c5760008160026114a19190612257565b90506000816114ae61072f565b6114b8919061249b565b9050600081111561155957600060646009546114d261072f565b6114dc9190612257565b6114e69190612226565b90508082116114f557816114f7565b805b915081611525600760009054906101000a900473ffffffffffffffffffffffffffffffffffffffff16610a4c565b1061155757611556600760009054906101000a900473ffffffffffffffffffffffffffffffffffffffff16836112ba565b5b505b50505b5b426008819055505050565b600080600660009054906101000a900473ffffffffffffffffffffffffffffffffffffffff1673ffffffffffffffffffffffffffffffffffffffff1663feaf968c6040518163ffffffff1660e01b815260040160a060405180830381865afa1580156115d8573d6000803e3d6000fd5b505050506040513d601f19601f820116820180604052508101906115fc919061237d565b50505091505060008113611645576040517f08c379a000000000000000000000000000000000000000000000000000000000815260040161163c90612444565b60405180910390fd5b60006305f5e10082856116589190612257565b6116629190612226565b90508092505050919050565b600073ffffffffffffffffffffffffffffffffffffffff168273ffffffffffffffffffffffffffffffffffffffff16036116e05760006040517fec442f050000000000000000000000000000000000000000000000000000000081526004016116d79190611f80565b60405180910390fd5b6116ec600083836116f0565b5050565b600073ffffffffffffffffffffffffffffffffffffffff168373ffffffffffffffffffffffffffffffffffffffff160361174257806002600082825461173691906124cf565b92505081905550611815565b60008060008573ffffffffffffffffffffffffffffffffffffffff1673ffffffffffffffffffffffffffffffffffffffff168152602001908152602001600020549050818110156117ce578381836040517fe450d38c0000000000000000000000000000000000000000000000000000000081526004016117c593929190612464565b60405180910390fd5b8181036000808673ffffffffffffffffffffffffffffffffffffffff1673ffffffffffffffffffffffffffffffffffffffff16815260200190815260200160002081905550505b600073ffffffffffffffffffffffffffffffffffffffff168273ffffffffffffffffffffffffffffffffffffffff160361185e57806002600082825403925050819055506118ab565b806000808473ffffffffffffffffffffffffffffffffffffffff1673ffffffffffffffffffffffffffffffffffffffff168152602001908152602001600020600082825401925050819055505b8173ffffffffffffffffffffffffffffffffffffffff168373ffffffffffffffffffffffffffffffffffffffff167fddf252ad1be2c89b69c2b068fc378daa952ba7f163c4a11628f55a4df523b3ef836040516119089190611b05565b60405180910390a3505050565b600073ffffffffffffffffffffffffffffffffffffffff168473ffffffffffffffffffffffffffffffffffffffff16036119875760006040517fe602df0500000000000000000000000000000000000000000000000000000000815260040161197e9190611f80565b60405180910390fd5b600073ffffffffffffffffffffffffffffffffffffffff168373ffffffffffffffffffffffffffffffffffffffff16036119f95760006040517f94280d620000000000000000000000000000000000000000000000000000000081526004016119f09190611f80565b60405180910390fd5b81600160008673ffffffffffffffffffffffffffffffffffffffff1673ffffffffffffffffffffffffffffffffffffffff16815260200190815260200160002060008573ffffffffffffffffffffffffffffffffffffffff1673ffffffffffffffffffffffffffffffffffffffff168152602001908152602001600020819055508015611ae6578273ffffffffffffffffffffffffffffffffffffffff168473ffffffffffffffffffffffffffffffffffffffff167f8c5be1e5ebec7d5bd14f71427d1e84f3dd0314c0f7b2291e5b200ac8c7c3b92584604051611add9190611b05565b60405180910390a35b50505050565b6000819050919050565b611aff81611aec565b82525050565b6000602082019050611b1a6000830184611af6565b92915050565b600081519050919050565b600082825260208201905092915050565b60005b83811015611b5a578082015181840152602081019050611b3f565b60008484015250505050565b6000601f19601f8301169050919050565b6000611b8282611b20565b611b8c8185611b2b565b9350611b9c818560208601611b3c565b611ba581611b66565b840191505092915050565b60006020820190508181036000830152611bca8184611b77565b905092915050565b600073ffffffffffffffffffffffffffffffffffffffff82169050919050565b6000819050919050565b6000611c17611c12611c0d84611bd2565b611bf2565b611bd2565b9050919050565b6000611c2982611bfc565b9050919050565b6000611c3b82611c1e565b9050919050565b611c4b81611c30565b82525050565b6000602082019050611c666000830184611c42565b92915050565b600080fd5b600080fd5b6000611c8182611bd2565b9050919050565b611c9181611c76565b8114611c9c57600080fd5b50565b600081359050611cae81611c88565b92915050565b611cbd81611aec565b8114611cc857600080fd5b50565b600081359050611cda81611cb4565b92915050565b60008060408385031215611cf757611cf6611c6c565b5b6000611d0585828601611c9f565b9250506020611d1685828601611ccb565b9150509250929050565b60008115159050919050565b611d3581611d20565b82525050565b6000602082019050611d506000830184611d2c565b92915050565b600080600060608486031215611d6f57611d6e611c6c565b5b6000611d7d86828701611c9f565b9350506020611d8e86828701611c9f565b9250506040611d9f86828701611ccb565b9150509250925092565b600060ff82169050919050565b611dbf81611da9565b82525050565b6000602082019050611dda6000830184611db6565b92915050565b600060208284031215611df657611df5611c6c565b5b6000611e0484828501611ccb565b91505092915050565b600080fd5b600080fd5b600080fd5b60008083601f840112611e3257611e31611e0d565b5b8235905067ffffffffffffffff811115611e4f57611e4e611e12565b5b602083019150836001820283011115611e6b57611e6a611e17565b5b9250929050565b60008060208385031215611e8957611e88611c6c565b5b600083013567ffffffffffffffff811115611ea757611ea6611c71565b5b611eb385828601611e1c565b92509250509250929050565b600081519050919050565b600082825260208201905092915050565b6000611ee682611ebf565b611ef08185611eca565b9350611f00818560208601611b3c565b611f0981611b66565b840191505092915050565b6000604082019050611f296000830185611d2c565b8181036020830152611f3b8184611edb565b90509392505050565b600060208284031215611f5a57611f59611c6c565b5b6000611f6884828501611c9f565b91505092915050565b611f7a81611c76565b82525050565b6000602082019050611f956000830184611f71565b92915050565b60008060408385031215611fb257611fb1611c6c565b5b6000611fc085828601611c9f565b9250506020611fd185828601611c9f565b9150509250929050565b7f4e487b7100000000000000000000000000000000000000000000000000000000600052602260045260246000fd5b6000600282049050600182168061202257607f821691505b60208210810361203557612034611fdb565b5b50919050565b60006060820190506120506000830186611f71565b61205d6020830185611f71565b61206a6040830184611af6565b949350505050565b60006040820190506120876000830185611f71565b6120946020830184611af6565b9392505050565b6120a481611d20565b81146120af57600080fd5b50565b6000815190506120c18161209b565b92915050565b6000602082840312156120dd576120dc611c6c565b5b60006120eb848285016120b2565b91505092915050565b7f4f6e6c7920746865206f776e65722063616e2063616c6c20746869732066756e60008201527f6374696f6e000000000000000000000000000000000000000000000000000000602082015250565b6000612150602583611b2b565b915061215b826120f4565b604082019050919050565b6000602082019050818103600083015261217f81612143565b9050919050565b60008151905061219581611cb4565b92915050565b6000602082840312156121b1576121b0611c6c565b5b60006121bf84828501612186565b91505092915050565b7f4e487b7100000000000000000000000000000000000000000000000000000000600052601260045260246000fd5b7f4e487b7100000000000000000000000000000000000000000000000000000000600052601160045260246000fd5b600061223182611aec565b915061223c83611aec565b92508261224c5761224b6121c8565b5b828204905092915050565b600061226282611aec565b915061226d83611aec565b925082820261227b81611aec565b91508282048414831517612292576122916121f7565b5b5092915050565b7f496e73756666696369656e7420436f696e476f6c642062616c616e6365000000600082015250565b60006122cf601d83611b2b565b91506122da82612299565b602082019050919050565b600060208201905081810360008301526122fe816122c2565b9050919050565b600069ffffffffffffffffffff82169050919050565b61232481612305565b811461232f57600080fd5b50565b6000815190506123418161231b565b92915050565b6000819050919050565b61235a81612347565b811461236557600080fd5b50565b60008151905061237781612351565b92915050565b600080600080600060a0868803121561239957612398611c6c565b5b60006123a788828901612332565b95505060206123b888828901612368565b94505060406123c988828901612186565b93505060606123da88828901612186565b92505060806123eb88828901612332565b9150509295509295909350565b7f496e76616c696420676f6c642070726963650000000000000000000000000000600082015250565b600061242e601283611b2b565b9150612439826123f8565b602082019050919050565b6000602082019050818103600083015261245d81612421565b9050919050565b60006060820190506124796000830186611f71565b6124866020830185611af6565b6124936040830184611af6565b949350505050565b60006124a682611aec565b91506124b183611aec565b92508282039050818111156124c9576124c86121f7565b5b92915050565b60006124da82611aec565b91506124e583611aec565b92508282019050808211156124fd576124fc6121f7565b5b9291505056fea264697066735822122049fa70baba1d9b8c162680e483bdc2800d86fc7f8ced8fa8ebb8a2112c089e2c64736f6c63430008140033",
  "linkReferences": {},
  "deployedLinkReferences": {}
}