{
    "_format": "hh-sol-artifact-1",
    "contractName": "CoinGold",
    "sourceName": "contracts/CoinGold.sol",
    "abi": [
        {
            "inputs": [
                {
                    "internalType": "string",
                    "name": "name",
                    "type": "string"
                },
                {
                    "internalType": "string",
                    "name": "symbol",
                    "type": "string"
                },
                {
                    "internalType": "address",
                    "name": "_dataFeedAddress",
                    "type": "address"
                }
            ],
            "stateMutability": "nonpayable",
            "type": "constructor"
        },
        {
            "inputs": [
                {
                    "internalType": "address",
                    "name": "spender",
                    "type": "address"
                },
                {
                    "internalType": "uint256",
                    "name": "allowance",
                    "type": "uint256"
                },
                {
                    "internalType": "uint256",
                    "name": "needed",
                    "type": "uint256"
                }
            ],
            "name": "ERC20InsufficientAllowance",
            "type": "error"
        },
        {
            "inputs": [
                {
                    "internalType": "address",
                    "name": "sender",
                    "type": "address"
                },
                {
                    "internalType": "uint256",
                    "name": "balance",
                    "type": "uint256"
                },
                {
                    "internalType": "uint256",
                    "name": "needed",
                    "type": "uint256"
                }
            ],
            "name": "ERC20InsufficientBalance",
            "type": "error"
        },
        {
            "inputs": [
                {
                    "internalType": "address",
                    "name": "approver",
                    "type": "address"
                }
            ],
            "name": "ERC20InvalidApprover",
            "type": "error"
        },
        {
            "inputs": [
                {
                    "internalType": "address",
                    "name": "receiver",
                    "type": "address"
                }
            ],
            "name": "ERC20InvalidReceiver",
            "type": "error"
        },
        {
            "inputs": [
                {
                    "internalType": "address",
                    "name": "sender",
                    "type": "address"
                }
            ],
            "name": "ERC20InvalidSender",
            "type": "error"
        },
        {
            "inputs": [
                {
                    "internalType": "address",
                    "name": "spender",
                    "type": "address"
                }
            ],
            "name": "ERC20InvalidSpender",
            "type": "error"
        },
        {
            "anonymous": false,
            "inputs": [
                {
                    "indexed": true,
                    "internalType": "address",
                    "name": "owner",
                    "type": "address"
                },
                {
                    "indexed": true,
                    "internalType": "address",
                    "name": "spender",
                    "type": "address"
                },
                {
                    "indexed": false,
                    "internalType": "uint256",
                    "name": "value",
                    "type": "uint256"
                }
            ],
            "name": "Approval",
            "type": "event"
        },
        {
            "anonymous": false,
            "inputs": [
                {
                    "indexed": true,
                    "internalType": "address",
                    "name": "from",
                    "type": "address"
                },
                {
                    "indexed": false,
                    "internalType": "uint256",
                    "name": "amount",
                    "type": "uint256"
                }
            ],
            "name": "Burn",
            "type": "event"
        },
        {
            "anonymous": false,
            "inputs": [
                {
                    "indexed": true,
                    "internalType": "address",
                    "name": "to",
                    "type": "address"
                },
                {
                    "indexed": false,
                    "internalType": "uint256",
                    "name": "amount",
                    "type": "uint256"
                }
            ],
            "name": "Mint",
            "type": "event"
        },
        {
            "anonymous": false,
            "inputs": [
                {
                    "indexed": true,
                    "internalType": "address",
                    "name": "from",
                    "type": "address"
                },
                {
                    "indexed": true,
                    "internalType": "address",
                    "name": "to",
                    "type": "address"
                },
                {
                    "indexed": false,
                    "internalType": "uint256",
                    "name": "value",
                    "type": "uint256"
                }
            ],
            "name": "Transfer",
            "type": "event"
        },
        {
            "inputs": [
                {
                    "internalType": "address",
                    "name": "owner",
                    "type": "address"
                },
                {
                    "internalType": "address",
                    "name": "spender",
                    "type": "address"
                }
            ],
            "name": "allowance",
            "outputs": [
                {
                    "internalType": "uint256",
                    "name": "",
                    "type": "uint256"
                }
            ],
            "stateMutability": "view",
            "type": "function"
        },
        {
            "inputs": [
                {
                    "internalType": "address",
                    "name": "spender",
                    "type": "address"
                },
                {
                    "internalType": "uint256",
                    "name": "value",
                    "type": "uint256"
                }
            ],
            "name": "approve",
            "outputs": [
                {
                    "internalType": "bool",
                    "name": "",
                    "type": "bool"
                }
            ],
            "stateMutability": "nonpayable",
            "type": "function"
        },
        {
            "inputs": [
                {
                    "internalType": "address",
                    "name": "account",
                    "type": "address"
                }
            ],
            "name": "balanceOf",
            "outputs": [
                {
                    "internalType": "uint256",
                    "name": "",
                    "type": "uint256"
                }
            ],
            "stateMutability": "view",
            "type": "function"
        },
        {
            "inputs": [
                {
                    "internalType": "uint256",
                    "name": "amount",
                    "type": "uint256"
                }
            ],
            "name": "burnCoinGold",
            "outputs": [],
            "stateMutability": "nonpayable",
            "type": "function"
        },
        {
            "inputs": [],
            "name": "decimals",
            "outputs": [
                {
                    "internalType": "uint8",
                    "name": "",
                    "type": "uint8"
                }
            ],
            "stateMutability": "view",
            "type": "function"
        },
        {
            "inputs": [],
            "name": "getChainlinkDataFeedLatestAnswer",
            "outputs": [
                {
                    "internalType": "int256",
                    "name": "",
                    "type": "int256"
                }
            ],
            "stateMutability": "view",
            "type": "function"
        },
        {
            "inputs": [
                {
                    "internalType": "uint256",
                    "name": "gramsOfGold",
                    "type": "uint256"
                }
            ],
            "name": "mintCoinGold",
            "outputs": [],
            "stateMutability": "nonpayable",
            "type": "function"
        },
        {
            "inputs": [],
            "name": "name",
            "outputs": [
                {
                    "internalType": "string",
                    "name": "",
                    "type": "string"
                }
            ],
            "stateMutability": "view",
            "type": "function"
        },
        {
            "inputs": [],
            "name": "owner",
            "outputs": [
                {
                    "internalType": "address",
                    "name": "",
                    "type": "address"
                }
            ],
            "stateMutability": "view",
            "type": "function"
        },
        {
            "inputs": [],
            "name": "symbol",
            "outputs": [
                {
                    "internalType": "string",
                    "name": "",
                    "type": "string"
                }
            ],
            "stateMutability": "view",
            "type": "function"
        },
        {
            "inputs": [],
            "name": "totalCapitalization",
            "outputs": [
                {
                    "internalType": "uint256",
                    "name": "",
                    "type": "uint256"
                }
            ],
            "stateMutability": "view",
            "type": "function"
        },
        {
            "inputs": [],
            "name": "totalSupply",
            "outputs": [
                {
                    "internalType": "uint256",
                    "name": "",
                    "type": "uint256"
                }
            ],
            "stateMutability": "view",
            "type": "function"
        },
        {
            "inputs": [
                {
                    "internalType": "address",
                    "name": "to",
                    "type": "address"
                },
                {
                    "internalType": "uint256",
                    "name": "value",
                    "type": "uint256"
                }
            ],
            "name": "transfer",
            "outputs": [
                {
                    "internalType": "bool",
                    "name": "",
                    "type": "bool"
                }
            ],
            "stateMutability": "nonpayable",
            "type": "function"
        },
        {
            "inputs": [
                {
                    "internalType": "address",
                    "name": "from",
                    "type": "address"
                },
                {
                    "internalType": "address",
                    "name": "to",
                    "type": "address"
                },
                {
                    "internalType": "uint256",
                    "name": "value",
                    "type": "uint256"
                }
            ],
            "name": "transferFrom",
            "outputs": [
                {
                    "internalType": "bool",
                    "name": "",
                    "type": "bool"
                }
            ],
            "stateMutability": "nonpayable",
            "type": "function"
        }
    ],
    "bytecode": "0x60806040523480156200001157600080fd5b5060405162001f9938038062001f998339818101604052810190620000379190620002e2565b828281600390816200004a9190620005c7565b5080600490816200005c9190620005c7565b50505080600560006101000a81548173ffffffffffffffffffffffffffffffffffffffff021916908373ffffffffffffffffffffffffffffffffffffffff16021790555033600660006101000a81548173ffffffffffffffffffffffffffffffffffffffff021916908373ffffffffffffffffffffffffffffffffffffffff160217905550505050620006ae565b6000604051905090565b600080fd5b600080fd5b600080fd5b600080fd5b6000601f19601f8301169050919050565b7f4e487b7100000000000000000000000000000000000000000000000000000000600052604160045260246000fd5b620001538262000108565b810181811067ffffffffffffffff8211171562000175576200017462000119565b5b80604052505050565b60006200018a620000ea565b905062000198828262000148565b919050565b600067ffffffffffffffff821115620001bb57620001ba62000119565b5b620001c68262000108565b9050602081019050919050565b60005b83811015620001f3578082015181840152602081019050620001d6565b60008484015250505050565b60006200021662000210846200019d565b6200017e565b90508281526020810184848401111562000235576200023462000103565b5b62000242848285620001d3565b509392505050565b600082601f830112620002625762000261620000fe565b5b815162000274848260208601620001ff565b91505092915050565b600073ffffffffffffffffffffffffffffffffffffffff82169050919050565b6000620002aa826200027d565b9050919050565b620002bc816200029d565b8114620002c857600080fd5b50565b600081519050620002dc81620002b1565b92915050565b600080600060608486031215620002fe57620002fd620000f4565b5b600084015167ffffffffffffffff8111156200031f576200031e620000f9565b5b6200032d868287016200024a565b935050602084015167ffffffffffffffff811115620003515762000350620000f9565b5b6200035f868287016200024a565b92505060406200037286828701620002cb565b9150509250925092565b600081519050919050565b7f4e487b7100000000000000000000000000000000000000000000000000000000600052602260045260246000fd5b60006002820490506001821680620003cf57607f821691505b602082108103620003e557620003e462000387565b5b50919050565b60008190508160005260206000209050919050565b60006020601f8301049050919050565b600082821b905092915050565b6000600883026200044f7fffffffffffffffffffffffffffffffffffffffffffffffffffffffffffffffff8262000410565b6200045b868362000410565b95508019841693508086168417925050509392505050565b6000819050919050565b6000819050919050565b6000620004a8620004a26200049c8462000473565b6200047d565b62000473565b9050919050565b6000819050919050565b620004c48362000487565b620004dc620004d382620004af565b8484546200041d565b825550505050565b600090565b620004f3620004e4565b62000500818484620004b9565b505050565b5b8181101562000528576200051c600082620004e9565b60018101905062000506565b5050565b601f82111562000577576200054181620003eb565b6200054c8462000400565b810160208510156200055c578190505b620005746200056b8562000400565b83018262000505565b50505b505050565b600082821c905092915050565b60006200059c600019846008026200057c565b1980831691505092915050565b6000620005b7838362000589565b9150826002028217905092915050565b620005d2826200037c565b67ffffffffffffffff811115620005ee57620005ed62000119565b5b620005fa8254620003b6565b620006078282856200052c565b600060209050601f8311600181146200063f57600084156200062a578287015190505b620006368582620005a9565b865550620006a6565b601f1984166200064f86620003eb565b60005b82811015620006795784890151825560018201915060208501945060208101905062000652565b8683101562000699578489015162000695601f89168262000589565b8355505b6001600288020188555050505b505050505050565b6118db80620006be6000396000f3fe608060405234801561001057600080fd5b50600436106100ea5760003560e01c80638da5cb5b1161008c578063bea4dfb511610066578063bea4dfb514610261578063d7f7582c1461027f578063dcd27c9e1461029d578063dd62ed3e146102b9576100ea565b80638da5cb5b146101f557806395d89b4114610213578063a9059cbb14610231576100ea565b806323b872dd116100c857806323b872dd1461015b578063313ce5671461018b5780634eec552e146101a957806370a08231146101c5576100ea565b806306fdde03146100ef578063095ea7b31461010d57806318160ddd1461013d575b600080fd5b6100f76102e9565b6040516101049190611100565b60405180910390f35b610127600480360381019061012291906111bb565b61037b565b6040516101349190611216565b60405180910390f35b61014561039e565b6040516101529190611240565b60405180910390f35b6101756004803603810190610170919061125b565b6103a8565b6040516101829190611216565b60405180910390f35b6101936103d7565b6040516101a091906112ca565b60405180910390f35b6101c360048036038101906101be91906112e5565b6103e0565b005b6101df60048036038101906101da9190611312565b610559565b6040516101ec9190611240565b60405180910390f35b6101fd6105a1565b60405161020a919061134e565b60405180910390f35b61021b6105c7565b6040516102289190611100565b60405180910390f35b61024b600480360381019061024691906111bb565b610659565b6040516102589190611216565b60405180910390f35b61026961067c565b6040516102769190611382565b60405180910390f35b61028761071d565b6040516102949190611240565b60405180910390f35b6102b760048036038101906102b291906112e5565b610819565b005b6102d360048036038101906102ce919061139d565b610947565b6040516102e09190611240565b60405180910390f35b6060600380546102f89061140c565b80601f01602080910402602001604051908101604052809291908181526020018280546103249061140c565b80156103715780601f1061034657610100808354040283529160200191610371565b820191906000526020600020905b81548152906001019060200180831161035457829003601f168201915b5050505050905090565b6000806103866109ce565b90506103938185856109d6565b600191505092915050565b6000600254905090565b6000806103b36109ce565b90506103c08582856109e8565b6103cb858585610a7c565b60019150509392505050565b60006012905090565b600660009054906101000a900473ffffffffffffffffffffffffffffffffffffffff1673ffffffffffffffffffffffffffffffffffffffff163373ffffffffffffffffffffffffffffffffffffffff1614610470576040517f08c379a0000000000000000000000000000000000000000000000000000000008152600401610467906114af565b60405180910390fd5b600081116104b3576040517f08c379a00000000000000000000000000000000000000000000000000000000081526004016104aa90611541565b60405180910390fd5b806104bd33610559565b10156104fe576040517f08c379a00000000000000000000000000000000000000000000000000000000081526004016104f5906115ad565b60405180910390fd5b6105083382610b70565b3373ffffffffffffffffffffffffffffffffffffffff167fcc16f5dbb4873280815c1ee09dbd06736cffcc184412cf7a71a0fdb75d397ca58260405161054e9190611240565b60405180910390a250565b60008060008373ffffffffffffffffffffffffffffffffffffffff1673ffffffffffffffffffffffffffffffffffffffff168152602001908152602001600020549050919050565b600660009054906101000a900473ffffffffffffffffffffffffffffffffffffffff1681565b6060600480546105d69061140c565b80601f01602080910402602001604051908101604052809291908181526020018280546106029061140c565b801561064f5780601f106106245761010080835404028352916020019161064f565b820191906000526020600020905b81548152906001019060200180831161063257829003601f168201915b5050505050905090565b6000806106646109ce565b9050610671818585610a7c565b600191505092915050565b600080600560009054906101000a900473ffffffffffffffffffffffffffffffffffffffff1673ffffffffffffffffffffffffffffffffffffffff1663feaf968c6040518163ffffffff1660e01b815260040160a060405180830381865afa1580156106ec573d6000803e3d6000fd5b505050506040513d601f19601f820116820180604052508101906107109190611650565b5050509150508091505090565b600080600560009054906101000a900473ffffffffffffffffffffffffffffffffffffffff1673ffffffffffffffffffffffffffffffffffffffff1663feaf968c6040518163ffffffff1660e01b815260040160a060405180830381865afa15801561078d573d6000803e3d6000fd5b505050506040513d601f19601f820116820180604052508101906107b19190611650565b505050915050600081136107fa576040517f08c379a00000000000000000000000000000000000000000000000000000000081526004016107f190611717565b60405180910390fd5b600061080461039e565b905080826108129190611766565b9250505090565b600660009054906101000a900473ffffffffffffffffffffffffffffffffffffffff1673ffffffffffffffffffffffffffffffffffffffff163373ffffffffffffffffffffffffffffffffffffffff16146108a9576040517f08c379a00000000000000000000000000000000000000000000000000000000081526004016108a0906114af565b60405180910390fd5b600081116108ec576040517f08c379a00000000000000000000000000000000000000000000000000000000081526004016108e39061181a565b60405180910390fd5b6108f63382610bf2565b3373ffffffffffffffffffffffffffffffffffffffff167f0f6798a560793a54c3bcfe86a93cde1e73087d944c0ea20544137d41213968858260405161093c9190611240565b60405180910390a250565b6000600160008473ffffffffffffffffffffffffffffffffffffffff1673ffffffffffffffffffffffffffffffffffffffff16815260200190815260200160002060008373ffffffffffffffffffffffffffffffffffffffff1673ffffffffffffffffffffffffffffffffffffffff16815260200190815260200160002054905092915050565b600033905090565b6109e38383836001610c74565b505050565b60006109f48484610947565b90507fffffffffffffffffffffffffffffffffffffffffffffffffffffffffffffffff8114610a765781811015610a66578281836040517ffb8f41b2000000000000000000000000000000000000000000000000000000008152600401610a5d9392919061183a565b60405180910390fd5b610a7584848484036000610c74565b5b50505050565b600073ffffffffffffffffffffffffffffffffffffffff168373ffffffffffffffffffffffffffffffffffffffff1603610aee5760006040517f96c6fd1e000000000000000000000000000000000000000000000000000000008152600401610ae5919061134e565b60405180910390fd5b600073ffffffffffffffffffffffffffffffffffffffff168273ffffffffffffffffffffffffffffffffffffffff1603610b605760006040517fec442f05000000000000000000000000000000000000000000000000000000008152600401610b57919061134e565b60405180910390fd5b610b6b838383610e4b565b505050565b600073ffffffffffffffffffffffffffffffffffffffff168273ffffffffffffffffffffffffffffffffffffffff1603610be25760006040517f96c6fd1e000000000000000000000000000000000000000000000000000000008152600401610bd9919061134e565b60405180910390fd5b610bee82600083610e4b565b5050565b600073ffffffffffffffffffffffffffffffffffffffff168273ffffffffffffffffffffffffffffffffffffffff1603610c645760006040517fec442f05000000000000000000000000000000000000000000000000000000008152600401610c5b919061134e565b60405180910390fd5b610c7060008383610e4b565b5050565b600073ffffffffffffffffffffffffffffffffffffffff168473ffffffffffffffffffffffffffffffffffffffff1603610ce65760006040517fe602df05000000000000000000000000000000000000000000000000000000008152600401610cdd919061134e565b60405180910390fd5b600073ffffffffffffffffffffffffffffffffffffffff168373ffffffffffffffffffffffffffffffffffffffff1603610d585760006040517f94280d62000000000000000000000000000000000000000000000000000000008152600401610d4f919061134e565b60405180910390fd5b81600160008673ffffffffffffffffffffffffffffffffffffffff1673ffffffffffffffffffffffffffffffffffffffff16815260200190815260200160002060008573ffffffffffffffffffffffffffffffffffffffff1673ffffffffffffffffffffffffffffffffffffffff168152602001908152602001600020819055508015610e45578273ffffffffffffffffffffffffffffffffffffffff168473ffffffffffffffffffffffffffffffffffffffff167f8c5be1e5ebec7d5bd14f71427d1e84f3dd0314c0f7b2291e5b200ac8c7c3b92584604051610e3c9190611240565b60405180910390a35b50505050565b600073ffffffffffffffffffffffffffffffffffffffff168373ffffffffffffffffffffffffffffffffffffffff1603610e9d578060026000828254610e919190611871565b92505081905550610f70565b60008060008573ffffffffffffffffffffffffffffffffffffffff1673ffffffffffffffffffffffffffffffffffffffff16815260200190815260200160002054905081811015610f29578381836040517fe450d38c000000000000000000000000000000000000000000000000000000008152600401610f209392919061183a565b60405180910390fd5b8181036000808673ffffffffffffffffffffffffffffffffffffffff1673ffffffffffffffffffffffffffffffffffffffff16815260200190815260200160002081905550505b600073ffffffffffffffffffffffffffffffffffffffff168273ffffffffffffffffffffffffffffffffffffffff1603610fb95780600260008282540392505081905550611006565b806000808473ffffffffffffffffffffffffffffffffffffffff1673ffffffffffffffffffffffffffffffffffffffff168152602001908152602001600020600082825401925050819055505b8173ffffffffffffffffffffffffffffffffffffffff168373ffffffffffffffffffffffffffffffffffffffff167fddf252ad1be2c89b69c2b068fc378daa952ba7f163c4a11628f55a4df523b3ef836040516110639190611240565b60405180910390a3505050565b600081519050919050565b600082825260208201905092915050565b60005b838110156110aa57808201518184015260208101905061108f565b60008484015250505050565b6000601f19601f8301169050919050565b60006110d282611070565b6110dc818561107b565b93506110ec81856020860161108c565b6110f5816110b6565b840191505092915050565b6000602082019050818103600083015261111a81846110c7565b905092915050565b600080fd5b600073ffffffffffffffffffffffffffffffffffffffff82169050919050565b600061115282611127565b9050919050565b61116281611147565b811461116d57600080fd5b50565b60008135905061117f81611159565b92915050565b6000819050919050565b61119881611185565b81146111a357600080fd5b50565b6000813590506111b58161118f565b92915050565b600080604083850312156111d2576111d1611122565b5b60006111e085828601611170565b92505060206111f1858286016111a6565b9150509250929050565b60008115159050919050565b611210816111fb565b82525050565b600060208201905061122b6000830184611207565b92915050565b61123a81611185565b82525050565b60006020820190506112556000830184611231565b92915050565b60008060006060848603121561127457611273611122565b5b600061128286828701611170565b935050602061129386828701611170565b92505060406112a4868287016111a6565b9150509250925092565b600060ff82169050919050565b6112c4816112ae565b82525050565b60006020820190506112df60008301846112bb565b92915050565b6000602082840312156112fb576112fa611122565b5b6000611309848285016111a6565b91505092915050565b60006020828403121561132857611327611122565b5b600061133684828501611170565b91505092915050565b61134881611147565b82525050565b6000602082019050611363600083018461133f565b92915050565b6000819050919050565b61137c81611369565b82525050565b60006020820190506113976000830184611373565b92915050565b600080604083850312156113b4576113b3611122565b5b60006113c285828601611170565b92505060206113d385828601611170565b9150509250929050565b7f4e487b7100000000000000000000000000000000000000000000000000000000600052602260045260246000fd5b6000600282049050600182168061142457607f821691505b602082108103611437576114366113dd565b5b50919050565b7f4f6e6c7920746865206f776e65722063616e2063616c6c20746869732066756e60008201527f6374696f6e000000000000000000000000000000000000000000000000000000602082015250565b600061149960258361107b565b91506114a48261143d565b604082019050919050565b600060208201905081810360008301526114c88161148c565b9050919050565b7f4275726e20616d6f756e74206d7573742062652067726561746572207468616e60008201527f207a65726f000000000000000000000000000000000000000000000000000000602082015250565b600061152b60258361107b565b9150611536826114cf565b604082019050919050565b6000602082019050818103600083015261155a8161151e565b9050919050565b7f496e73756666696369656e7420436f696e476f6c642062616c616e6365000000600082015250565b6000611597601d8361107b565b91506115a282611561565b602082019050919050565b600060208201905081810360008301526115c68161158a565b9050919050565b600069ffffffffffffffffffff82169050919050565b6115ec816115cd565b81146115f757600080fd5b50565b600081519050611609816115e3565b92915050565b61161881611369565b811461162357600080fd5b50565b6000815190506116358161160f565b92915050565b60008151905061164a8161118f565b92915050565b600080600080600060a0868803121561166c5761166b611122565b5b600061167a888289016115fa565b955050602061168b88828901611626565b945050604061169c8882890161163b565b93505060606116ad8882890161163b565b92505060806116be888289016115fa565b9150509295509295909350565b7f496e76616c696420676f6c642070726963650000000000000000000000000000600082015250565b600061170160128361107b565b915061170c826116cb565b602082019050919050565b60006020820190508181036000830152611730816116f4565b9050919050565b7f4e487b7100000000000000000000000000000000000000000000000000000000600052601160045260246000fd5b600061177182611185565b915061177c83611185565b925082820261178a81611185565b915082820484148315176117a1576117a0611737565b5b5092915050565b7f4d696e7420616d6f756e74206d7573742062652067726561746572207468616e60008201527f207a65726f000000000000000000000000000000000000000000000000000000602082015250565b600061180460258361107b565b915061180f826117a8565b604082019050919050565b60006020820190508181036000830152611833816117f7565b9050919050565b600060608201905061184f600083018661133f565b61185c6020830185611231565b6118696040830184611231565b949350505050565b600061187c82611185565b915061188783611185565b925082820190508082111561189f5761189e611737565b5b9291505056fea2646970667358221220cb45efc3b8769b78d102b91ab6b652527b6593424f95d56c33cd8dcee9462b0564736f6c63430008140033",
    "linkReferences": {},
    "deployedLinkReferences": {}
}