{
    "_format": "hh-sol-artifact-1",
    "contractName": "CoinDollar",
    "sourceName": "contracts/CoinDollar.sol",
    "abi": [
        {
            "inputs": [
                {
                    "internalType": "string",
                    "name": "name",
                    "type": "string"
                },
                {
                    "internalType": "string",
                    "name": "symbol",
                    "type": "string"
                },
                {
                    "internalType": "address",
                    "name": "_coinGoldAddress",
                    "type": "address"
                },
                {
                    "internalType": "address",
                    "name": "_goldPriceFeed",
                    "type": "address"
                }
            ],
            "stateMutability": "nonpayable",
            "type": "constructor"
        },
        {
            "inputs": [
                {
                    "internalType": "address",
                    "name": "spender",
                    "type": "address"
                },
                {
                    "internalType": "uint256",
                    "name": "allowance",
                    "type": "uint256"
                },
                {
                    "internalType": "uint256",
                    "name": "needed",
                    "type": "uint256"
                }
            ],
            "name": "ERC20InsufficientAllowance",
            "type": "error"
        },
        {
            "inputs": [
                {
                    "internalType": "address",
                    "name": "sender",
                    "type": "address"
                },
                {
                    "internalType": "uint256",
                    "name": "balance",
                    "type": "uint256"
                },
                {
                    "internalType": "uint256",
                    "name": "needed",
                    "type": "uint256"
                }
            ],
            "name": "ERC20InsufficientBalance",
            "type": "error"
        },
        {
            "inputs": [
                {
                    "internalType": "address",
                    "name": "approver",
                    "type": "address"
                }
            ],
            "name": "ERC20InvalidApprover",
            "type": "error"
        },
        {
            "inputs": [
                {
                    "internalType": "address",
                    "name": "receiver",
                    "type": "address"
                }
            ],
            "name": "ERC20InvalidReceiver",
            "type": "error"
        },
        {
            "inputs": [
                {
                    "internalType": "address",
                    "name": "sender",
                    "type": "address"
                }
            ],
            "name": "ERC20InvalidSender",
            "type": "error"
        },
        {
            "inputs": [
                {
                    "internalType": "address",
                    "name": "spender",
                    "type": "address"
                }
            ],
            "name": "ERC20InvalidSpender",
            "type": "error"
        },
        {
            "anonymous": false,
            "inputs": [
                {
                    "indexed": true,
                    "internalType": "address",
                    "name": "owner",
                    "type": "address"
                },
                {
                    "indexed": true,
                    "internalType": "address",
                    "name": "spender",
                    "type": "address"
                },
                {
                    "indexed": false,
                    "internalType": "uint256",
                    "name": "value",
                    "type": "uint256"
                }
            ],
            "name": "Approval",
            "type": "event"
        },
        {
            "anonymous": false,
            "inputs": [
                {
                    "indexed": true,
                    "internalType": "address",
                    "name": "from",
                    "type": "address"
                },
                {
                    "indexed": false,
                    "internalType": "uint256",
                    "name": "amount",
                    "type": "uint256"
                }
            ],
            "name": "ExchangeGoldToDollar",
            "type": "event"
        },
        {
            "anonymous": false,
            "inputs": [
                {
                    "indexed": true,
                    "internalType": "address",
                    "name": "from",
                    "type": "address"
                },
                {
                    "indexed": true,
                    "internalType": "address",
                    "name": "to",
                    "type": "address"
                },
                {
                    "indexed": false,
                    "internalType": "uint256",
                    "name": "value",
                    "type": "uint256"
                }
            ],
            "name": "Transfer",
            "type": "event"
        },
        {
            "inputs": [],
            "name": "adjustSupply",
            "outputs": [],
            "stateMutability": "nonpayable",
            "type": "function"
        },
        {
            "inputs": [
                {
                    "internalType": "address",
                    "name": "owner",
                    "type": "address"
                },
                {
                    "internalType": "address",
                    "name": "spender",
                    "type": "address"
                }
            ],
            "name": "allowance",
            "outputs": [
                {
                    "internalType": "uint256",
                    "name": "",
                    "type": "uint256"
                }
            ],
            "stateMutability": "view",
            "type": "function"
        },
        {
            "inputs": [
                {
                    "internalType": "address",
                    "name": "spender",
                    "type": "address"
                },
                {
                    "internalType": "uint256",
                    "name": "value",
                    "type": "uint256"
                }
            ],
            "name": "approve",
            "outputs": [
                {
                    "internalType": "bool",
                    "name": "",
                    "type": "bool"
                }
            ],
            "stateMutability": "nonpayable",
            "type": "function"
        },
        {
            "inputs": [
                {
                    "internalType": "address",
                    "name": "account",
                    "type": "address"
                }
            ],
            "name": "balanceOf",
            "outputs": [
                {
                    "internalType": "uint256",
                    "name": "",
                    "type": "uint256"
                }
            ],
            "stateMutability": "view",
            "type": "function"
        },
        {
            "inputs": [
                {
                    "internalType": "uint256",
                    "name": "amount",
                    "type": "uint256"
                }
            ],
            "name": "burn",
            "outputs": [],
            "stateMutability": "nonpayable",
            "type": "function"
        },
        {
            "inputs": [
                {
                    "internalType": "bytes",
                    "name": "",
                    "type": "bytes"
                }
            ],
            "name": "checkUpkeep",
            "outputs": [
                {
                    "internalType": "bool",
                    "name": "upkeepNeeded",
                    "type": "bool"
                },
                {
                    "internalType": "bytes",
                    "name": "performData",
                    "type": "bytes"
                }
            ],
            "stateMutability": "view",
            "type": "function"
        },
        {
            "inputs": [],
            "name": "coinDollar",
            "outputs": [
                {
                    "internalType": "contract CoinDollar",
                    "name": "",
                    "type": "address"
                }
            ],
            "stateMutability": "view",
            "type": "function"
        },
        {
            "inputs": [],
            "name": "coinGold",
            "outputs": [
                {
                    "internalType": "contract CoinGold",
                    "name": "",
                    "type": "address"
                }
            ],
            "stateMutability": "view",
            "type": "function"
        },
        {
            "inputs": [],
            "name": "coinGoldContract",
            "outputs": [
                {
                    "internalType": "address",
                    "name": "",
                    "type": "address"
                }
            ],
            "stateMutability": "view",
            "type": "function"
        },
        {
            "inputs": [],
            "name": "decimals",
            "outputs": [
                {
                    "internalType": "uint8",
                    "name": "",
                    "type": "uint8"
                }
            ],
            "stateMutability": "view",
            "type": "function"
        },
        {
            "inputs": [],
            "name": "getGoldCoinTotalCapitalization",
            "outputs": [
                {
                    "internalType": "uint256",
                    "name": "",
                    "type": "uint256"
                }
            ],
            "stateMutability": "view",
            "type": "function"
        },
        {
            "inputs": [],
            "name": "getGoldPrice",
            "outputs": [
                {
                    "internalType": "uint256",
                    "name": "",
                    "type": "uint256"
                }
            ],
            "stateMutability": "view",
            "type": "function"
        },
        {
            "inputs": [],
            "name": "lastAdjustmentTimestamp",
            "outputs": [
                {
                    "internalType": "uint256",
                    "name": "",
                    "type": "uint256"
                }
            ],
            "stateMutability": "view",
            "type": "function"
        },
        {
            "inputs": [],
            "name": "lastGoldPrice",
            "outputs": [
                {
                    "internalType": "uint256",
                    "name": "",
                    "type": "uint256"
                }
            ],
            "stateMutability": "view",
            "type": "function"
        },
        {
            "inputs": [],
            "name": "maximumBackingValue",
            "outputs": [
                {
                    "internalType": "uint256",
                    "name": "",
                    "type": "uint256"
                }
            ],
            "stateMutability": "view",
            "type": "function"
        },
        {
            "inputs": [],
            "name": "minimumBackingValue",
            "outputs": [
                {
                    "internalType": "uint256",
                    "name": "",
                    "type": "uint256"
                }
            ],
            "stateMutability": "view",
            "type": "function"
        },
        {
            "inputs": [
                {
                    "internalType": "uint256",
                    "name": "amount",
                    "type": "uint256"
                }
            ],
            "name": "mint",
            "outputs": [],
            "stateMutability": "nonpayable",
            "type": "function"
        },
        {
            "inputs": [
                {
                    "internalType": "address",
                    "name": "to",
                    "type": "address"
                },
                {
                    "internalType": "uint256",
                    "name": "amount",
                    "type": "uint256"
                }
            ],
            "name": "mintFromCoinGold",
            "outputs": [],
            "stateMutability": "nonpayable",
            "type": "function"
        },
        {
            "inputs": [],
            "name": "name",
            "outputs": [
                {
                    "internalType": "string",
                    "name": "",
                    "type": "string"
                }
            ],
            "stateMutability": "view",
            "type": "function"
        },
        {
            "inputs": [],
            "name": "owner",
            "outputs": [
                {
                    "internalType": "address",
                    "name": "",
                    "type": "address"
                }
            ],
            "stateMutability": "view",
            "type": "function"
        },
        {
            "inputs": [
                {
                    "internalType": "bytes",
                    "name": "",
                    "type": "bytes"
                }
            ],
            "name": "performUpkeep",
            "outputs": [],
            "stateMutability": "nonpayable",
            "type": "function"
        },
        {
            "inputs": [],
            "name": "reserveRatio",
            "outputs": [
                {
                    "internalType": "uint256",
                    "name": "",
                    "type": "uint256"
                }
            ],
            "stateMutability": "view",
            "type": "function"
        },
        {
            "inputs": [
                {
                    "internalType": "address",
                    "name": "_coinGold",
                    "type": "address"
                }
            ],
            "name": "setCoinGoldContract",
            "outputs": [],
            "stateMutability": "nonpayable",
            "type": "function"
        },
        {
            "inputs": [],
            "name": "symbol",
            "outputs": [
                {
                    "internalType": "string",
                    "name": "",
                    "type": "string"
                }
            ],
            "stateMutability": "view",
            "type": "function"
        },
        {
            "inputs": [],
            "name": "totalSupply",
            "outputs": [
                {
                    "internalType": "uint256",
                    "name": "",
                    "type": "uint256"
                }
            ],
            "stateMutability": "view",
            "type": "function"
        },
        {
            "inputs": [
                {
                    "internalType": "address",
                    "name": "to",
                    "type": "address"
                },
                {
                    "internalType": "uint256",
                    "name": "value",
                    "type": "uint256"
                }
            ],
            "name": "transfer",
            "outputs": [
                {
                    "internalType": "bool",
                    "name": "",
                    "type": "bool"
                }
            ],
            "stateMutability": "nonpayable",
            "type": "function"
        },
        {
            "inputs": [
                {
                    "internalType": "address",
                    "name": "from",
                    "type": "address"
                },
                {
                    "internalType": "address",
                    "name": "to",
                    "type": "address"
                },
                {
                    "internalType": "uint256",
                    "name": "value",
                    "type": "uint256"
                }
            ],
            "name": "transferFrom",
            "outputs": [
                {
                    "internalType": "bool",
                    "name": "",
                    "type": "bool"
                }
            ],
            "stateMutability": "nonpayable",
            "type": "function"
        }
    ],
    "bytecode": "0x60806040523480156200001157600080fd5b5060405162002be838038062002be88339818101604052810190620000379190620004e4565b838381600390816200004a9190620007df565b5080600490816200005c9190620007df565b50505033600760006101000a81548173ffffffffffffffffffffffffffffffffffffffff021916908373ffffffffffffffffffffffffffffffffffffffff16021790555081600560006101000a81548173ffffffffffffffffffffffffffffffffffffffff021916908373ffffffffffffffffffffffffffffffffffffffff16021790555080600660006101000a81548173ffffffffffffffffffffffffffffffffffffffff021916908373ffffffffffffffffffffffffffffffffffffffff160217905550426008819055506014600981905550600560009054906101000a900473ffffffffffffffffffffffffffffffffffffffff1673ffffffffffffffffffffffffffffffffffffffff1663d7f7582c6040518163ffffffff1660e01b8152600401602060405180830381865afa1580156200019f573d6000803e3d6000fd5b505050506040513d601f19601f82011682018060405250810190620001c59190620008f7565b600a819055506002600a54620001dc919062000958565b600b81905550620001f26200020260201b60201c565b600c819055505050505062000b1d565b600080600660009054906101000a900473ffffffffffffffffffffffffffffffffffffffff1673ffffffffffffffffffffffffffffffffffffffff1663feaf968c6040518163ffffffff1660e01b815260040160a060405180830381865afa15801562000273573d6000803e3d6000fd5b505050506040513d601f19601f8201168201806040525081019062000299919062000a12565b50505091505060008113620002e5576040517f08c379a0000000000000000000000000000000000000000000000000000000008152600401620002dc9062000afb565b60405180910390fd5b8091505090565b6000604051905090565b600080fd5b600080fd5b600080fd5b600080fd5b6000601f19601f8301169050919050565b7f4e487b7100000000000000000000000000000000000000000000000000000000600052604160045260246000fd5b62000355826200030a565b810181811067ffffffffffffffff821117156200037757620003766200031b565b5b80604052505050565b60006200038c620002ec565b90506200039a82826200034a565b919050565b600067ffffffffffffffff821115620003bd57620003bc6200031b565b5b620003c8826200030a565b9050602081019050919050565b60005b83811015620003f5578082015181840152602081019050620003d8565b60008484015250505050565b60006200041862000412846200039f565b62000380565b90508281526020810184848401111562000437576200043662000305565b5b62000444848285620003d5565b509392505050565b600082601f83011262000464576200046362000300565b5b81516200047684826020860162000401565b91505092915050565b600073ffffffffffffffffffffffffffffffffffffffff82169050919050565b6000620004ac826200047f565b9050919050565b620004be816200049f565b8114620004ca57600080fd5b50565b600081519050620004de81620004b3565b92915050565b60008060008060808587031215620005015762000500620002f6565b5b600085015167ffffffffffffffff811115620005225762000521620002fb565b5b62000530878288016200044c565b945050602085015167ffffffffffffffff811115620005545762000553620002fb565b5b62000562878288016200044c565b93505060406200057587828801620004cd565b92505060606200058887828801620004cd565b91505092959194509250565b600081519050919050565b7f4e487b7100000000000000000000000000000000000000000000000000000000600052602260045260246000fd5b60006002820490506001821680620005e757607f821691505b602082108103620005fd57620005fc6200059f565b5b50919050565b60008190508160005260206000209050919050565b60006020601f8301049050919050565b600082821b905092915050565b600060088302620006677fffffffffffffffffffffffffffffffffffffffffffffffffffffffffffffffff8262000628565b62000673868362000628565b95508019841693508086168417925050509392505050565b6000819050919050565b6000819050919050565b6000620006c0620006ba620006b4846200068b565b62000695565b6200068b565b9050919050565b6000819050919050565b620006dc836200069f565b620006f4620006eb82620006c7565b84845462000635565b825550505050565b600090565b6200070b620006fc565b62000718818484620006d1565b505050565b5b8181101562000740576200073460008262000701565b6001810190506200071e565b5050565b601f8211156200078f57620007598162000603565b620007648462000618565b8101602085101562000774578190505b6200078c620007838562000618565b8301826200071d565b50505b505050565b600082821c905092915050565b6000620007b46000198460080262000794565b1980831691505092915050565b6000620007cf8383620007a1565b9150826002028217905092915050565b620007ea8262000594565b67ffffffffffffffff8111156200080657620008056200031b565b5b620008128254620005ce565b6200081f82828562000744565b600060209050601f83116001811462000857576000841562000842578287015190505b6200084e8582620007c1565b865550620008be565b601f198416620008678662000603565b60005b8281101562000891578489015182556001820191506020850194506020810190506200086a565b86831015620008b15784890151620008ad601f891682620007a1565b8355505b6001600288020188555050505b505050505050565b620008d1816200068b565b8114620008dd57600080fd5b50565b600081519050620008f181620008c6565b92915050565b60006020828403121562000910576200090f620002f6565b5b60006200092084828501620008e0565b91505092915050565b7f4e487b7100000000000000000000000000000000000000000000000000000000600052601260045260246000fd5b600062000965826200068b565b915062000972836200068b565b92508262000985576200098462000929565b5b828204905092915050565b600069ffffffffffffffffffff82169050919050565b620009b18162000990565b8114620009bd57600080fd5b50565b600081519050620009d181620009a6565b92915050565b6000819050919050565b620009ec81620009d7565b8114620009f857600080fd5b50565b60008151905062000a0c81620009e1565b92915050565b600080600080600060a0868803121562000a315762000a30620002f6565b5b600062000a4188828901620009c0565b955050602062000a5488828901620009fb565b945050604062000a6788828901620008e0565b935050606062000a7a88828901620008e0565b925050608062000a8d88828901620009c0565b9150509295509295909350565b600082825260208201905092915050565b7f496e76616c696420676f6c642070726963650000000000000000000000000000600082015250565b600062000ae360128362000a9a565b915062000af08262000aab565b602082019050919050565b6000602082019050818103600083015262000b168162000ad4565b9050919050565b6120bb8062000b2d6000396000f3fe608060405234801561001057600080fd5b50600436106101a95760003560e01c806366dabc9a116100f9578063a9059cbb11610097578063dd62ed3e11610071578063dd62ed3e146104b3578063e492f016146104e3578063ea68d376146104ff578063edd413dd14610509576101a9565b8063a9059cbb14610447578063b355175d14610477578063da6bae1014610495576101a9565b80638da5cb5b116100d35780638da5cb5b146103d157806395d89b41146103ef5780639c841efe1461040d578063a0712d681461042b576101a9565b806366dabc9a146103525780636e04ff0d1461037057806370a08231146103a1576101a9565b806318160ddd11610166578063314292041161014057806331429204146102e057806342966c68146102fc5780634585e33b14610318578063655ad62b14610334576101a9565b806318160ddd1461027457806323b872dd14610292578063313ce567146102c2576101a9565b80630338c477146101ae57806306fdde03146101cc5780630844969a146101ea5780630912c47314610208578063095ea7b3146102265780630c7d5cd814610256575b600080fd5b6101b6610527565b6040516101c39190611704565b60405180910390f35b6101d461052d565b6040516101e191906117af565b60405180910390f35b6101f26105bf565b6040516101ff9190611850565b60405180910390f35b6102106105e5565b60405161021d9190611704565b60405180910390f35b610240600480360381019061023b91906118df565b6105eb565b60405161024d919061193a565b60405180910390f35b61025e61060e565b60405161026b9190611704565b60405180910390f35b61027c610614565b6040516102899190611704565b60405180910390f35b6102ac60048036038101906102a79190611955565b61061e565b6040516102b9919061193a565b60405180910390f35b6102ca61064d565b6040516102d791906119c4565b60405180910390f35b6102fa60048036038101906102f591906119df565b610656565b005b61031660048036038101906103119190611a0c565b61072a565b005b610332600480360381019061032d9190611a9e565b6107c7565b005b61033c6107d3565b6040516103499190611b0c565b60405180910390f35b61035a6107f9565b6040516103679190611704565b60405180910390f35b61038a60048036038101906103859190611a9e565b6107ff565b604051610398929190611b7c565b60405180910390f35b6103bb60048036038101906103b691906119df565b6108f6565b6040516103c89190611704565b60405180910390f35b6103d961093e565b6040516103e69190611bbb565b60405180910390f35b6103f7610964565b60405161040491906117af565b60405180910390f35b6104156109f6565b6040516104229190611704565b60405180910390f35b61044560048036038101906104409190611a0c565b6109fc565b005b610461600480360381019061045c91906118df565b610a99565b60405161046e919061193a565b60405180910390f35b61047f610abc565b60405161048c9190611704565b60405180910390f35b61049d610b54565b6040516104aa9190611704565b60405180910390f35b6104cd60048036038101906104c89190611bd6565b610c38565b6040516104da9190611704565b60405180910390f35b6104fd60048036038101906104f891906118df565b610cbf565b005b610507610d5d565b005b610511610df7565b60405161051e9190611bbb565b60405180910390f35b60085481565b60606003805461053c90611c45565b80601f016020809104026020016040519081016040528092919081815260200182805461056890611c45565b80156105b55780601f1061058a576101008083540402835291602001916105b5565b820191906000526020600020905b81548152906001019060200180831161059857829003601f168201915b5050505050905090565b600560009054906101000a900473ffffffffffffffffffffffffffffffffffffffff1681565b600c5481565b6000806105f6610e1d565b9050610603818585610e25565b600191505092915050565b60095481565b6000600254905090565b600080610629610e1d565b9050610636858285610e37565b610641858585610ecb565b60019150509392505050565b60006012905090565b600760009054906101000a900473ffffffffffffffffffffffffffffffffffffffff1673ffffffffffffffffffffffffffffffffffffffff163373ffffffffffffffffffffffffffffffffffffffff16146106e6576040517f08c379a00000000000000000000000000000000000000000000000000000000081526004016106dd90611ce8565b60405180910390fd5b80600d60006101000a81548173ffffffffffffffffffffffffffffffffffffffff021916908373ffffffffffffffffffffffffffffffffffffffff16021790555050565b600760009054906101000a900473ffffffffffffffffffffffffffffffffffffffff1673ffffffffffffffffffffffffffffffffffffffff163373ffffffffffffffffffffffffffffffffffffffff16146107ba576040517f08c379a00000000000000000000000000000000000000000000000000000000081526004016107b190611ce8565b60405180910390fd5b6107c43382610fbf565b50565b6107cf611041565b5050565b600e60009054906101000a900473ffffffffffffffffffffffffffffffffffffffff1681565b600b5481565b600060606000600560009054906101000a900473ffffffffffffffffffffffffffffffffffffffff1673ffffffffffffffffffffffffffffffffffffffff166318160ddd6040518163ffffffff1660e01b8152600401602060405180830381865afa158015610872573d6000803e3d6000fd5b505050506040513d601f19601f820116820180604052508101906108969190611d1d565b6305f5e1006108a3610b54565b6108ad9190611da8565b6108b79190611dd9565b905060008160026108c89190611dd9565b6108d0610614565b1190506000826108de610614565b10905081806108ea5750805b94505050509250929050565b60008060008373ffffffffffffffffffffffffffffffffffffffff1673ffffffffffffffffffffffffffffffffffffffff168152602001908152602001600020549050919050565b600760009054906101000a900473ffffffffffffffffffffffffffffffffffffffff1681565b60606004805461097390611c45565b80601f016020809104026020016040519081016040528092919081815260200182805461099f90611c45565b80156109ec5780601f106109c1576101008083540402835291602001916109ec565b820191906000526020600020905b8154815290600101906020018083116109cf57829003601f168201915b5050505050905090565b600a5481565b600760009054906101000a900473ffffffffffffffffffffffffffffffffffffffff1673ffffffffffffffffffffffffffffffffffffffff163373ffffffffffffffffffffffffffffffffffffffff1614610a8c576040517f08c379a0000000000000000000000000000000000000000000000000000000008152600401610a8390611ce8565b60405180910390fd5b610a96338261126d565b50565b600080610aa4610e1d565b9050610ab1818585610ecb565b600191505092915050565b6000600560009054906101000a900473ffffffffffffffffffffffffffffffffffffffff1673ffffffffffffffffffffffffffffffffffffffff1663d7f7582c6040518163ffffffff1660e01b8152600401602060405180830381865afa158015610b2b573d6000803e3d6000fd5b505050506040513d601f19601f82011682018060405250810190610b4f9190611d1d565b905090565b600080600660009054906101000a900473ffffffffffffffffffffffffffffffffffffffff1673ffffffffffffffffffffffffffffffffffffffff1663feaf968c6040518163ffffffff1660e01b815260040160a060405180830381865afa158015610bc4573d6000803e3d6000fd5b505050506040513d601f19601f82011682018060405250810190610be89190611e93565b50505091505060008113610c31576040517f08c379a0000000000000000000000000000000000000000000000000000000008152600401610c2890611f5a565b60405180910390fd5b8091505090565b6000600160008473ffffffffffffffffffffffffffffffffffffffff1673ffffffffffffffffffffffffffffffffffffffff16815260200190815260200160002060008373ffffffffffffffffffffffffffffffffffffffff1673ffffffffffffffffffffffffffffffffffffffff16815260200190815260200160002054905092915050565b600d60009054906101000a900473ffffffffffffffffffffffffffffffffffffffff1673ffffffffffffffffffffffffffffffffffffffff163373ffffffffffffffffffffffffffffffffffffffff1614610d4f576040517f08c379a0000000000000000000000000000000000000000000000000000000008152600401610d4690611fc6565b60405180910390fd5b610d59828261126d565b5050565b600760009054906101000a900473ffffffffffffffffffffffffffffffffffffffff1673ffffffffffffffffffffffffffffffffffffffff163373ffffffffffffffffffffffffffffffffffffffff1614610ded576040517f08c379a0000000000000000000000000000000000000000000000000000000008152600401610de490611ce8565b60405180910390fd5b610df5611041565b565b600d60009054906101000a900473ffffffffffffffffffffffffffffffffffffffff1681565b600033905090565b610e3283838360016112ef565b505050565b6000610e438484610c38565b90507fffffffffffffffffffffffffffffffffffffffffffffffffffffffffffffffff8114610ec55781811015610eb5578281836040517ffb8f41b2000000000000000000000000000000000000000000000000000000008152600401610eac93929190611fe6565b60405180910390fd5b610ec4848484840360006112ef565b5b50505050565b600073ffffffffffffffffffffffffffffffffffffffff168373ffffffffffffffffffffffffffffffffffffffff1603610f3d5760006040517f96c6fd1e000000000000000000000000000000000000000000000000000000008152600401610f349190611bbb565b60405180910390fd5b600073ffffffffffffffffffffffffffffffffffffffff168273ffffffffffffffffffffffffffffffffffffffff1603610faf5760006040517fec442f05000000000000000000000000000000000000000000000000000000008152600401610fa69190611bbb565b60405180910390fd5b610fba8383836114c6565b505050565b600073ffffffffffffffffffffffffffffffffffffffff168273ffffffffffffffffffffffffffffffffffffffff16036110315760006040517f96c6fd1e0000000000000000000000000000000000000000000000000000000081526004016110289190611bbb565b60405180910390fd5b61103d826000836114c6565b5050565b600061104b610b54565b905060008111611090576040517f08c379a000000000000000000000000000000000000000000000000000000000815260040161108790611f5a565b60405180910390fd5b6000600560009054906101000a900473ffffffffffffffffffffffffffffffffffffffff1673ffffffffffffffffffffffffffffffffffffffff166318160ddd6040518163ffffffff1660e01b8152600401602060405180830381865afa1580156110ff573d6000803e3d6000fd5b505050506040513d601f19601f820116820180604052508101906111239190611d1d565b6305f5e100611130610b54565b61113a9190611da8565b6111449190611dd9565b905061114e610614565b81111561117c57600061115f610614565b8261116a919061201d565b9050611176338261126d565b50611262565b8060026111899190611dd9565b611191610614565b11156112615760008160026111a69190611dd9565b90506000816111b3610614565b6111bd919061201d565b9050600081111561125e57600060646009546111d7610614565b6111e19190611dd9565b6111eb9190611da8565b90508082116111fa57816111fc565b805b91508161122a600760009054906101000a900473ffffffffffffffffffffffffffffffffffffffff166108f6565b1061125c5761125b600760009054906101000a900473ffffffffffffffffffffffffffffffffffffffff1683610fbf565b5b505b50505b5b426008819055505050565b600073ffffffffffffffffffffffffffffffffffffffff168273ffffffffffffffffffffffffffffffffffffffff16036112df5760006040517fec442f050000000000000000000000000000000000000000000000000000000081526004016112d69190611bbb565b60405180910390fd5b6112eb600083836114c6565b5050565b600073ffffffffffffffffffffffffffffffffffffffff168473ffffffffffffffffffffffffffffffffffffffff16036113615760006040517fe602df050000000000000000000000000000000000000000000000000000000081526004016113589190611bbb565b60405180910390fd5b600073ffffffffffffffffffffffffffffffffffffffff168373ffffffffffffffffffffffffffffffffffffffff16036113d35760006040517f94280d620000000000000000000000000000000000000000000000000000000081526004016113ca9190611bbb565b60405180910390fd5b81600160008673ffffffffffffffffffffffffffffffffffffffff1673ffffffffffffffffffffffffffffffffffffffff16815260200190815260200160002060008573ffffffffffffffffffffffffffffffffffffffff1673ffffffffffffffffffffffffffffffffffffffff1681526020019081526020016000208190555080156114c0578273ffffffffffffffffffffffffffffffffffffffff168473ffffffffffffffffffffffffffffffffffffffff167f8c5be1e5ebec7d5bd14f71427d1e84f3dd0314c0f7b2291e5b200ac8c7c3b925846040516114b79190611704565b60405180910390a35b50505050565b600073ffffffffffffffffffffffffffffffffffffffff168373ffffffffffffffffffffffffffffffffffffffff160361151857806002600082825461150c9190612051565b925050819055506115eb565b60008060008573ffffffffffffffffffffffffffffffffffffffff1673ffffffffffffffffffffffffffffffffffffffff168152602001908152602001600020549050818110156115a4578381836040517fe450d38c00000000000000000000000000000000000000000000000000000000815260040161159b93929190611fe6565b60405180910390fd5b8181036000808673ffffffffffffffffffffffffffffffffffffffff1673ffffffffffffffffffffffffffffffffffffffff16815260200190815260200160002081905550505b600073ffffffffffffffffffffffffffffffffffffffff168273ffffffffffffffffffffffffffffffffffffffff16036116345780600260008282540392505081905550611681565b806000808473ffffffffffffffffffffffffffffffffffffffff1673ffffffffffffffffffffffffffffffffffffffff168152602001908152602001600020600082825401925050819055505b8173ffffffffffffffffffffffffffffffffffffffff168373ffffffffffffffffffffffffffffffffffffffff167fddf252ad1be2c89b69c2b068fc378daa952ba7f163c4a11628f55a4df523b3ef836040516116de9190611704565b60405180910390a3505050565b6000819050919050565b6116fe816116eb565b82525050565b600060208201905061171960008301846116f5565b92915050565b600081519050919050565b600082825260208201905092915050565b60005b8381101561175957808201518184015260208101905061173e565b60008484015250505050565b6000601f19601f8301169050919050565b60006117818261171f565b61178b818561172a565b935061179b81856020860161173b565b6117a481611765565b840191505092915050565b600060208201905081810360008301526117c98184611776565b905092915050565b600073ffffffffffffffffffffffffffffffffffffffff82169050919050565b6000819050919050565b600061181661181161180c846117d1565b6117f1565b6117d1565b9050919050565b6000611828826117fb565b9050919050565b600061183a8261181d565b9050919050565b61184a8161182f565b82525050565b60006020820190506118656000830184611841565b92915050565b600080fd5b600080fd5b6000611880826117d1565b9050919050565b61189081611875565b811461189b57600080fd5b50565b6000813590506118ad81611887565b92915050565b6118bc816116eb565b81146118c757600080fd5b50565b6000813590506118d9816118b3565b92915050565b600080604083850312156118f6576118f561186b565b5b60006119048582860161189e565b9250506020611915858286016118ca565b9150509250929050565b60008115159050919050565b6119348161191f565b82525050565b600060208201905061194f600083018461192b565b92915050565b60008060006060848603121561196e5761196d61186b565b5b600061197c8682870161189e565b935050602061198d8682870161189e565b925050604061199e868287016118ca565b9150509250925092565b600060ff82169050919050565b6119be816119a8565b82525050565b60006020820190506119d960008301846119b5565b92915050565b6000602082840312156119f5576119f461186b565b5b6000611a038482850161189e565b91505092915050565b600060208284031215611a2257611a2161186b565b5b6000611a30848285016118ca565b91505092915050565b600080fd5b600080fd5b600080fd5b60008083601f840112611a5e57611a5d611a39565b5b8235905067ffffffffffffffff811115611a7b57611a7a611a3e565b5b602083019150836001820283011115611a9757611a96611a43565b5b9250929050565b60008060208385031215611ab557611ab461186b565b5b600083013567ffffffffffffffff811115611ad357611ad2611870565b5b611adf85828601611a48565b92509250509250929050565b6000611af68261181d565b9050919050565b611b0681611aeb565b82525050565b6000602082019050611b216000830184611afd565b92915050565b600081519050919050565b600082825260208201905092915050565b6000611b4e82611b27565b611b588185611b32565b9350611b6881856020860161173b565b611b7181611765565b840191505092915050565b6000604082019050611b91600083018561192b565b8181036020830152611ba38184611b43565b90509392505050565b611bb581611875565b82525050565b6000602082019050611bd06000830184611bac565b92915050565b60008060408385031215611bed57611bec61186b565b5b6000611bfb8582860161189e565b9250506020611c0c8582860161189e565b9150509250929050565b7f4e487b7100000000000000000000000000000000000000000000000000000000600052602260045260246000fd5b60006002820490506001821680611c5d57607f821691505b602082108103611c7057611c6f611c16565b5b50919050565b7f4f6e6c7920746865206f776e65722063616e2063616c6c20746869732066756e60008201527f6374696f6e000000000000000000000000000000000000000000000000000000602082015250565b6000611cd260258361172a565b9150611cdd82611c76565b604082019050919050565b60006020820190508181036000830152611d0181611cc5565b9050919050565b600081519050611d17816118b3565b92915050565b600060208284031215611d3357611d3261186b565b5b6000611d4184828501611d08565b91505092915050565b7f4e487b7100000000000000000000000000000000000000000000000000000000600052601260045260246000fd5b7f4e487b7100000000000000000000000000000000000000000000000000000000600052601160045260246000fd5b6000611db3826116eb565b9150611dbe836116eb565b925082611dce57611dcd611d4a565b5b828204905092915050565b6000611de4826116eb565b9150611def836116eb565b9250828202611dfd816116eb565b91508282048414831517611e1457611e13611d79565b5b5092915050565b600069ffffffffffffffffffff82169050919050565b611e3a81611e1b565b8114611e4557600080fd5b50565b600081519050611e5781611e31565b92915050565b6000819050919050565b611e7081611e5d565b8114611e7b57600080fd5b50565b600081519050611e8d81611e67565b92915050565b600080600080600060a08688031215611eaf57611eae61186b565b5b6000611ebd88828901611e48565b9550506020611ece88828901611e7e565b9450506040611edf88828901611d08565b9350506060611ef088828901611d08565b9250506080611f0188828901611e48565b9150509295509295909350565b7f496e76616c696420676f6c642070726963650000000000000000000000000000600082015250565b6000611f4460128361172a565b9150611f4f82611f0e565b602082019050919050565b60006020820190508181036000830152611f7381611f37565b9050919050565b7f43616c6c6572206973206e6f7420436f696e476f6c6400000000000000000000600082015250565b6000611fb060168361172a565b9150611fbb82611f7a565b602082019050919050565b60006020820190508181036000830152611fdf81611fa3565b9050919050565b6000606082019050611ffb6000830186611bac565b61200860208301856116f5565b61201560408301846116f5565b949350505050565b6000612028826116eb565b9150612033836116eb565b925082820390508181111561204b5761204a611d79565b5b92915050565b600061205c826116eb565b9150612067836116eb565b925082820190508082111561207f5761207e611d79565b5b9291505056fea26469706673582212200fc969a61394ed72f821aa7783451cdaf96e846c8503304e81decbf5dbbf4a3264736f6c63430008140033",
    "linkReferences": {},
    "deployedLinkReferences": {}
}